:020000040800F2
:1000000050D2002065BC020819BB02081BBB0208C5
:100010001DBB02081FBB020821BB02080000000034
:1000200000000000000000000000000023BB0208E8
:1000300025BB02080000000027BB020829BB0208FC
:10004000A1BC0208A5BC0208A9BC0208ADBC0208FC
:10005000B1BC0208B5BC0208B9BC0208BDBC0208AC
:10006000C1BC0208C5BC0208C9BC0208CDBC02085C
:10007000D1BC0208D5BC0208D9BC0208DDBC02080C
:10008000E1BC0208E5BC0208E9BC0208EDBC0208BC
:100090002DBB020831BB02083DBB0208F1BC0208BF
:1000A000F5BC0208F9BC0208FDBC020801BD02084B
:1000B00005BD020809BD02080DBD020811BD0208F8
:1000C00015BD020819BD02081DBD020821BD0208A8
:1000D00025BD020829BD02082DBD020831BD020858
:1000E00035BD020839BD02083DBD020841BD020808
:1000F00045BD020849BD02084DBD020851BD0208B8
:1001000055BD020859BD02085DBD020861BD020867
:1001100065BD020869BD02086DBD020871BD020817
:1001200075BD020879BD02087DBD020881BD0208C7
:1001300085BD020889BD02088DBD020891BD020877
:1001400095BD020899BD02089DBD0208A1BD020827
:10015000A5BD0208A9BD0208ADBD0208B1BD0208D7
:10016000B5BD0208B9BD0208BDBD0208C1BD020887
:10017000C5BD0208C9BD0208CDBD020800000000CF
:10018000D1BD0208D5BD0208FFFFFFFFFFFFFFFF43
:10019000FFFFFFFFFFFFFFFFFFFFFFFFFFFFFFFF6F
:1001A000FFFFFFFFFFFFFFFFFFFFFFFFFFFFFFFF5F
:1001B000FFFFFFFFFFFFFFFFFFFFFFFFFFFFFFFF4F
:1001C000FFFFFFFFFFFFFFFFFFFFFFFFFFFFFFFF3F
:100D3000FFFFFFFFFFFFFFFFFFFFFFFFBEF7DFFF2C
:100D4000FFFFFFFFFFFFFFFFFFFFFFFFFFFFFFFFB3
:100D5000FFFFFFFFFFFFFFFFFFFFFFFFFFFFFFFFA3
:100D6000FFFFFFFFFFFFFFFFFFFFFFFFFFFFFFFF93
:100D7000FFFFFFFFFFFFFFFFFFFFFFFFFFFFFFFF83
:1010F000FFFFFFFFFFFFFFFFDFFF17BE2B5338C6C9
:10110000FFFFFFFFFFFFFFFFFFFFFFFFFFFFFFFFEF
:10111000FFFFFFFFFFFFFFFFFFFFFFFFFFFFFFFFDF
:10112000FFFFFFFFFFFFFFFFFFFFFFFFFFFFFFFFCF
:10113000FFFFFFFFFFFFFFFFFFFFFFFFFFFFFFFFBF
:1014B000FFFFFFFFFFFFBEF7B18C2422CC63DEF7F6
:1014C000FFFFFFFFFFFFFFFFFFFFFFFFFFFFFFFF2C
:1014D000FFFFFFFFFFFFFFFFFFFFFFFFFFFFFFFF1C
:1014E000FFFFFFFFFFFFFFFFFFFFFFFFFFFFFFFF0C
:1014F000FFFFFFFFFFFFFFFFFFFFFFFFFFFFFFFFFC
:10187000FFFFFFFF3CE7CC63E209E311BACEFFFFB5
:10188000FFFFFFFFFFFFFFFFFFFFFFFFFFFFFFFF68
:10189000FFFFFFFFFFFFFFFFFFFFFFFFFFFFFFFF58
:1018A000FFFFFFFFFFFFFFFFFFFFFFFFFFFFFFFF48
:1018B000FFFFFFFFFFFFFFFFFFFFFFFFFFFFFFFF38
:101C3000FFFF5DEF6B53C209C209ED63BEF7FFFF03
:101C4000FFFFFFFFFFFFFFFFFFFFFFFFFFFFFFFFA4
:101C5000FFFFFFFFFFFFFFFFFFFFFFFFFFFFFFFF94
:101C6000FFFFFFFFFFFFFFFFFFFFFFFFFFFFFFFF84
:101C7000FFFFFFFFFFFFFFFFFFFFFFFFFFFFFFFF74
:101FA000FFFFFFFF9EF7BAD6FBDE7DEFDFFFFFFFEF
:101FB000FFFFFFFFFFFFFFFFFFFFFFFFFFFFFFFF31
:101FC000FFFFFFFFFFFFFFFFFFFFFFFFFFFFFFFF21
:101FD000FFFFFFFFFFFFFFFFFFFFFFFFFFFFFFFF11
:101FE000FFFFFFFFFFFFFFFFFFFFFFFFFFFFFFFF01
:101FF0005CE76B53C209C209441A38BEFFFFFFFFFA
:10200000FFFFFFFFFFFFFFFFFFFFFFFFFFFFFFFFE0
:10201000FFFFFFFFFFFFFFFFFFFFFFFFFFFFFFFFD0
:10202000FFFFFFFFFFFFFFFFFFFFFFFFFFFFFFFFC0
:10203000FFFFFFFFFFFFFFFFFFFFFFFFFFFFFFFFB0
:10236000FFFFFFFFDFFFBAD6F294CB53CA4B8E7448
:10237000D5AD3BDF9EF7FFFFFFFFFFFFFFFFFFFF36
:10238000FFFFFFFFFFFFFFFFFFFFFFFFFFFFFFFF5D
:10239000FFFFFFFFFFFFFFFFFFFFFFFFFFFFFFFF4D
:1023A000FFFFFFFFFFFFFFFFFFFFFFFFFFFFBEF786
:1023B0000D6CC209C209C2098B53DFFFFFFFFFFF8B
:1023C000FFFFFFFFFFFFFFFFFFFFFFFFFFFFFFFF1D
:1023D000FFFFFFFFFFFFFFFFFFFFFFFFFFFFFFFF0D
:1023E000FFFFFFFFFFFFFFFFFFFFFFFFFFFFFFFFFD
:1023F000FFFFFFFFFFFFFFFFFFFFFFFFFFFFFFFFED
:10272000FFFFFFFFFFFFFFFFFFFF7DEFD5AD4C5C1D
:10273000C31204130B54939D1BDFFFFFFFFFFFFF2A
:10274000FFFFFFFFFFFFFFFFFFFFFFFFFFFFFFFF99
:10275000FFFFFFFFFFFFFFFFFFFFFFFFFFFFFFFF89
:10276000FFFFFFFFFFFFFFFFFFFFFFFFDFFF1295F0
:10277000E311C209C209C20917BEFFFFFFFFFFFF35
:10278000FFFFFFFFFFFFFFFFFFFFFFFFFFFFFFFF59
:10279000FFFFFFFFFFFFFFFFFFFFFFFFFFFFFFFF49
:1027A000FFFFFFFFFFFFFFFFFFFFFFFFFFFFFFFF39
:1027B000FFFFFFFFFFFFFFFFFFFFFFFFFFFFFFFF29
:102AE000FFFFFFFFFFFFFFFFFFFFFFFFFFFFBEF73F
:102AF00099CE2C5C2413030B6523CF7CDAD6DFFF41
:102B0000FFFFFFFFFFFFFFFFFFFFFFFFFFFFFFFFD5
:102B1000FFFFFFFFFFFFFFFFFFFFFFFFFFFFFFFFC5
:102B2000FFFFFFFFFFFFFFFFFFFFFFFF99CE252203
:102B3000C209C209C20909437DEFFFFFFFFFFFFF82
:102B4000FFFFFFFFFFFFFFFFFFFFFFFFFFFFFFFF95
:102B5000FFFFFFFFFFFFFFFFFFFFFFFFFFFFFFFF85
:102B6000FFFFFFFFFFFFFFFFFFFFFFFFFFFFFFFF75
:102B7000FFFFFFFFFFFFFFFFFFFFFFFFFFFFFFFF65
:102EB000FFFFDFFF57BEEA43E2020203241BF07C60
:102EC0001BDFFFFFFFFFFFFFFFFFFFFFFFFFFFFF16
:102ED000FFFFFFFFFFFFFFFFFFFFFFFFFFFFFFFF02
:102EE000FFFFFFFFFFFFFFFFFFFFBEF78B5BC20986
:102EF000C209C209E2111395FFFFFFFFFFFFFFFFA9
:102F0000FFFFFFFFFFFFFFFFFFFFFFFFFFFFFFFFD1
:102F1000FFFFFFFFFFFFFFFFFFFFFFFFFFFFFFFFC1
:102F2000FFFFFFFFFFFFFFFFFFFFFFFFFFFFFFFFB1
:102F3000FFFFFFFFFFFFFFFFFFFFFFFFFFFFFFFFA1
:10327000FFFFFFFFFFFF7DEF73954523020302036E
:103280004523D4A59DEFFFFFFFFFFFFFFFFFFFFFDB
:10329000FFFFFFFFFFFFFFFFFFFFFFFFFFFFFFFF3E
:1032A000FFFFFFFFFFFFFFFFFFFFD6AD241AC2099C
:1032B000C209C209862AFBDEFFFFFFFFFFFFFFFFF7
:1032C000FFFFFFFFFFFFFFFFFFFFFFFFFFFFFFFF0E
:1032D000FFFFFFFFFFFFFFFFFFFFFFFFFFFFFFFFFE
:1032E000FFFFFFFFFFFFFFFFFFFFFFFFFFFFFFFFEE
:1032F000FFFFFFFFFFFFFFFFFFFFFFFFFFFFFFFFDE
:10363000FFFFFFFFFFFFFFFFFFFF78C6C943020345
:103640000203030B2B5C3CE7FFFFFFFFFFFFFFFFC5
:10365000FFFFFFFFFFFFFFFFFFFFFFFFFFFFFFFF7A
:10366000FFFFFFFFFFFFFFFF9EF78B5BC209C20951
:10367000C209C2090D6CFFFFFFFFFFFFFFFFFFFF45
:10368000FFFFFFFFFFFFFFFFFFFFFFFFFFFFBEF793
:103690009AD658C637B636AE36AE36AE37B657BE01
:1036A00079CE1CE7FFFFFFFFFFFFFFFFFFFFFFFFDC
:1036B000FFFFFFFFFFFFFFFFFFFFFFFFFFFFFFFF1A
:1036C000FFFFFFFFFFFFFFFFFFFFFFFFFFFFFFFF0A
:1036D000FFFFFFFFFFFFFFFFFFFFFFFFFFFFFFFFFA
:1036E000FFFFFFFFFFFFFFFFFFFFFFFFFFFFFFFFEA
:1039F000FFFFFFFFFFFFFFFFFFFFFFFF9DEFAE6C2D
:103A0000230B02030203673316B6FFFFFFFFFFFF1E
:103A1000FFFFFFFFFFFFFFFFFFFFFFFFFFFFFFFFB6
:103A2000FFFFFFFFFFFFFFFF99CEE311C209C209AD
:103A3000C209C20978C6FFFFFFFFFFFFFFFFFFFFBC
:103A4000FFFFFFFFFFFFFFFF5CE798C6728D507D11
:103A5000F185117E117E117E117E117E117E117E07
:103A6000117EB17D307D929537B61BDF7DEFDFFF94
:103A7000FFFFFFFFFFFFFFFFFFFFFFFFFFFFFFFF56
:103A8000FFFFFFFFFFFFFFFFFFFFFFFFFFFFFFFF46
:103A9000FFFFFFFFFFFFFFFFFFFFFFFFFFFFFFFF36
:103AA000FFFFFFFFFFFFFFFFFFFFFFFFFFFFFFFF26
:103DB000FFFFFFFFFFFFFFFFFFFFFFFFFFFFBEF75C
:103DC000949DE30A02030203041394A5DFFFFFFF9F
:103DD000FFFFFFFFFFFFFFFFFFFFFFFFFFFFFFFFF3
:103DE000FFFFFFFFFFFFFFFF9084C209C209C20966
:103DF000C209E83A7DEFFFFFFFFFFFFFFFFFFFFF74
:103E0000FFFFFFFF7DEFF6AD9185B075317E317E0E
:103E1000317E317E317E317E317E317E317E317E2A
:103E2000317E317E317E317ED0757075B28DD4A5F4
:103E300079C69EF7FFFFFFFFFFFFFFFFFFFFFFFFBA
:103E4000FFFFFFFFFFFFFFFFFFFFFFFFFFFFFFFF82
:103E5000FFFFFFFFFFFFFFFFFFFFFFFFFFFFFFFF72
:103E6000FFFFFFFFFFFFFFFFFFFFFFFFFFFFFFFF62
:103E7000FFFFFFFFFFFFFFFFFFFFFFFFFFFFFFFF52
:10418000FFFF16B6662B02030203030BD07CBEF7BB
:10419000FFFFFFFFFFFFFFFFFFFFFFFFFFFFFFFF2F
:1041A000FFFFFFFFFFFFBEF7C83AC209C209C209FD
:1041B000C209B084DFFFFFFFFFFFFFFFFFFFFFFF2C
:1041C000DFFF98C6707DF17D317E317E317E317E9C
:1041D000317E317E317E317E317E317E317E317E67
:1041E000317E317E317E317E317E317E317E117E77
:1041F000F17D4F759295B9CE7DEFFFFFFFFFFFFF79
:10420000FFFFFFFFFFFFFFFFFFFFFFFFFFFFFFFFBE
:10421000FFFFFFFFFFFFFFFFFFFFFFFFFFFFFFFFAE
:10422000FFFFFFFFFFFFFFFFFFFFFFFFFFFFFFFF9E
:10423000FFFFFFFFFFFFFFFFFFFFFFFFFFFFFFFF8E
:10454000FFFFFFFF99C6452302030203E202108525
:10455000BEF7FFFFFFFFFFFFFFFFFFFFFFFFFFFFB4
:10456000FFFFFFFFFFFF99CE6522C209C209C20902
:10457000241A18C6FFFFFFFFFFFFFFFFFFFFFFFF2B
:10458000D5A5907D317E317E317E317E317E317E8A
:10459000317E317E317E317E317E317E317E317EA3
:1045A000317E317E317E317E317E317E317E317E93
:1045B000317E317E117E9075B28DF6AD3CE7FFFF06
:1045C000FFFFFFFFFFFFFFFFFFFFFFFFFFFFFFFFFB
:1045D000FFFFFFFFFFFFFFFFFFFFFFFFFFFFFFFFEB
:1045E000FFFFFFFFFFFFFFFFFFFFFFFFFFFFFFFFDB
:1045F000FFFFFFFFFFFFFFFFFFFFFFFFFFFFFFFFCB
:10490000FFFFFFFFFFFFB9CEA83B02030203E20A4D
:10491000AE6CBEF7FFFFFFFFFFFFFFFFFFFFFFFFD4
:10492000FFFFFFFFFFFF74A5E311C209C209C2091F
:10493000C83ABEF7FFFFFFFFFFFFFFFF9EF7B49DE2
:10494000F07D317E317E317E317E317E317E317E31
:10495000317E317E317E317E317E317E317E317EDF
:10496000317E317E117EB075B07DD185F28DD28DD4
:10497000B28D728D928D9395B3957295D18C17BE31
:10498000DFFFFFFFFFFFFFFFFFFFFFFFFFFFFFFF57
:10499000FFFFFFFFFFFFFFFFFFFFFFFFFFFFFFFF27
:1049A000FFFFFFFFFFFFFFFFFFFFFFFFFFFFFFFF17
:1049B000FFFFFFFFFFFFFFFFFFFFFFFFFFFFFFFF07
:1049C000FFFFFFFFFFFFFFFFFFFFFFFFFFFFFFFFF7
:104CC000FFFFFFFFFFFFFFFFDAD6462302030203C9
:104CD000E2025295DFFFFFFFFFFFFFFFFFFFFFFF35
:104CE000FFFFFFFFFFFFD184C209C209C209C20949
:104CF0002F74FFFFFFFFFFFFFFFFFFFFD5A5D07D54
:104D0000317E317E317E317E317E317E317E317E2B
:104D1000317E317E317E317E317E317E317E107E3C
:104D20002F6D5185D49D77BEB9CEFAD61CE77DEFA5
:104D3000BEF7FFFFFFFFFFFFFFFFFFFFFFFFDFFFEC
:104D4000FFFFFFFFFFFFFFFFFFFFFFFFFFFFFFFF73
:104D5000FFFFFFFFFFFFFFFFFFFFFFFFFFFFFFFF63
:104D6000FFFFFFFFFFFFFFFFFFFFFFFFFFFFFFFF53
:104D7000FFFFFFFFFFFFFFFFFFFFFFFFFFFFFFFF43
:10508000FFFFFFFFFFFFFFFFFFFFBACEA83B0203BA
:105090000203030B5295FFFFFFFFFFFFFFFFFFFF20
:1050A000FFFFFFFFBEF7ED63C209C209C209A209F3
:1050B00038C6FFFFFFFFFFFFDFFF16B6D17D317E51
:1050C000317E317E317E317E317E317E317E317E68
:1050D000317E317E317E107EB07DB285B49D58C662
:1050E0009EF7FFFFFFFFFFFFFFFFFFFFFFFFFFFF39
:1050F000FFFFFFFFFFFFFFFFFFFFFFFFFFFFFFFFC0
:10510000FFFFFFFFFFFFFFFFFFFFFFFFFFFFFFFFAF
:10511000FFFFFFFFFFFFFFFFFFFFFFFFFFFFFFFF9F
:10512000FFFFFFFFFFFFFFFFFFFFFFFFFFFFFFFF8F
:10544000FFFFFFFFFFFFFFFFFFFFFFFF99CEE4120B
:1054500002030203041B79C6FFFFFFFFFFFFFFFFEC
:10546000FFFFFFFF9EF76A53C209C209C209452226
:105470003CE7FFFFFFFFFFFF1BDF707D317E317ECA
:10548000317E317E317E317E317E317E317E317EA4
:10549000317E317E2F75B39DDACE5DE7FFFFFFFFD2
:1054A000FFFFFFFFFFFFFFFFFFFFFFFFFFFFFFFF0C
:1054B000FFFFFFFFFFFFFFFFFFFFFFFFFFFFFFFFFC
:1054C000FFFFFFFFFFFFFFFFFFFFFFFFFFFFFFFFEC
:1054D000FFFFFFFFFFFFFFFFFFFFFFFFFFFFFFFFDC
:10580000FFFFFFFFFFFFFFFFFFFFFFFFFFFF57BE91
:10581000452302030203672BBAD6FFFFFFFFFFFFFA
:10582000FFFFFFFF9DEF0943C209C209C2098C5B5C
:105830009EF7FFFFFFFFBEF7528D117E317E317E56
:10584000317E317E317E317E317E317E317EB0756A
:10585000928DD5ADBEF7FFFFFFFFFFFFFFFFFFFFFC
:10586000FFFFFFFFFFFFFFFFFFFFFFFFFFFFFFFF48
:10587000FFFFFFFFFFFFFFFFFFFFFFFFFFFFFFFF38
:10588000FFFFFFFFFFFFFFFFFFFFFFFFFFFFFFFF28
:10589000FFFFFFFFFFFFFFFFFFFFFFFFFFFFFFFF18
:105BC000FFFFFFFFFFFFFFFFFFFFFFFFFFFFDFFF05
:105BD000B5A5E202020302030B54DFFFFFFFFFFF44
:105BE000FFFFFFFF7DEFE83AC209C209C209B18495
:105BF000FFFFFFFFFFFF78C6D07D317E317E317E13
:105C0000317E317E317E317E317E117E507D36B6E1
:105C10005DEFFFFFFFFFFFFFFFFFFFFFFFFFFFFF46
:105C2000FFFFFFFFFFFFFFFFFFFFFFFFFFFFFFFF84
:105C3000FFFFFFFFFFFFFFFFFFFFFFFFFFFFFFFF74
:105C4000FFFFFFFFFFFFFFFFFFFFFFFFFFFFFFFF64
:105C5000FFFFFFFFFFFFFFFFFFFFFFFFFFFFFFFF54
:105F9000FFFF318D030B02030203318DDFFFFFFF93
:105FA000FFFFFFFF7DEFC83AC209C2090312D6B551
:105FB000FFFFFFFF9DEFB28D117E317E317E317E7E
:105FC000317E317E317E317E907DB4A59EF7FFFF1C
:105FD000FFFFFFFFFFFFFFFFFFFFFFFFFFFFFFFFD1
:105FE000FFFFFFFFFFFFFFFFFFFFFFFFFFFFFFFFC1
:105FF000FFFFFFFFFFFFFFFFFFFFFFFFFFFFFFFFB1
:10600000FFFFFFFFFFFFFFFFFFFFFFFFFFFFFFFFA0
:10632000FFFFFFFFFFFFFFFFFFFFDFFFBEF7BEF72F
:106330009DEF7DE75CE79DEFBEF7DEF7DFFFFFFF38
:10634000FFFFFFFFFFFFFFFFFFFFFFFFFFFFFFFF5D
:10635000FFFF9DEF6D64020302034523B9CEFFFFEB
:10636000FFFFFFFF9DEF0843C209C2094522BAD6CD
:10637000FFFFFFFFDACE9075317E317E317E317EB8
:10638000317E317E117E517DDAD6DFFFFFFFFFFFC8
:10639000FFFFFFFFFFFFFFFFFFFFFFFFFFFFFFFF0D
:1063A000FFFFFFFFFFFFFFFFFFFFFFFFFFFFFFFFFD
:1063B000FFFFFFFFFFFFFFFFFFFFFFFFFFFFFFFFED
:1063C000FFFFFFFFFFFFFFFFFFFFFFFFFFFFFFFFDD
:1066E000FFFFFFFF1CE757BE9395AE6C4A4C083C7A
:1066F000C72B072CE72BE73309448C5CF07CF5A50E
:10670000B9CEBEF7FFFFFFFFFFFFFFFFFFFFFFFF59
:10671000FFFFFFFF9DEFA94302030203A9439EF77A
:10672000FFFFFFFF9EF74A4BC209C209862ABEF748
:10673000FFFFFFFF7295317E317E317E317E317EEB
:10674000317EB075D49D7DEFFFFFFFFFFFFFFFFFA0
:10675000FFFFFFFFFFFFFFFFFFFFFFFFFFFFFFFF49
:10676000FFFFFFFFFFFFFFFFFFFFFFFFFFFFFFFF39
:10677000FFFFFFFFFFFFFFFFFFFFFFFFFFFFFFFF29
:10678000FFFFFFFFFFFFFFFFFFFFFFFFFFFFFFFF19
:106A9000FFFFFFFFFFFFFFFFFFFFFFFFFFFFBEF74F
:106AA00099CE10856B5469446834883CA83CA83C56
:106AB000A83CA83CA83CA83CA83C883C883C483C56
:106AC0008A44AD6494A57DEFDFFFFFFFFFFFFFFF6A
:106AD000FFFFFFFFFFFF78C666230203020B939DB3
:106AE000FFFFFFFFBEF7AC5BC209C209294BFFFFE6
:106AF000FFFF3CE7B17D317E317E317E317E317EDC
:106B0000D07DF5A5BEF7FFFFFFFFFFFFFFFFFFFFF3
:106B1000FFFFFFFFFFFFFFFFFFFFFFFFFFFFFFFF85
:106B2000FFFFFFFFFFFFFFFFFFFFFFFFFFFFFFFF75
:106B3000FFFFFFFFFFFFFFFFFFFFFFFFFFFFFFFF65
:106B4000FFFFFFFFFFFFFFFFFFFFFFFFFFFFFFFF55
:106E5000FFFFFFFFFFFFFFFFFFFFFFFF3CE7F28C9D
:106E60000B544944283C47348834A83CA83CA83CEF
:106E7000A83CA83CA83CA83CA83CA83CA83CA83CF2
:106E8000A83CA83C88342A4C528D1CDFFFFFFFFF32
:106E9000FFFFFFFFFFFFFFFFD5AD020B0203662BD5
:106EA000FAD6FFFFDFFF4F74C209C2090E6CFFFF65
:106EB000FFFF57BEF17D317E317E317E317E907590
:106EC00037B6DFFFFFFFFFFFFFFFFFFFFFFFFFFF03
:106ED000FFFFFFFFFFFFFFFFFFFFFFFFFFFFFFFFC2
:106EE000FFFFFFFFFFFFFFFFFFFFFFFFFFFFFFFFB2
:106EF000FFFFFFFFFFFFFFFFFFFFFFFFFFFFFFFFA2
:106F0000FFFFFFFFFFFFFFFFFFFFFFFFFFFFFFFF91
:10721000FFFFFFFFFFFFFFFFFFFFFFFFBEF75DEF79
:107220003CE71BDFFAD637B67395EF744B544A44EC
:10723000A944883C883C883CA83CA83CA83CA83C85
:10724000A83CA83CA83C883C683C8B54B4A5BEF73D
:10725000FFFFFFFFFFFFFFFFDEF7AE6C020302033D
:10726000AF74FFFFFFFF1295C209C209B18CFFFF87
:10727000DFFFF49D117E317E317E317ED07D16AEF2
:10728000DFFFFFFFFFFFFFFFFFFFFFFFFFFFFFFF2E
:10729000FFFFFFFFFFFFFFFFFFFFFFFFFFFFFFFFFE
:1072A000FFFFFFFFFFFFFFFFFFFFFFFFFFFFFFFFEE
:1072B000FFFFFFFFFFFFFFFFFFFFFFFFFFFFFFFFDE
:1072C000FFFFFFFFFFFFFFFFFFFFFFFFFFFFFFFFCE
:1075E000FFFFFFFFFFFFFFFFFFFFFFFFFFFF5DEF5D
:1075F00099C6D5A5518DCD6449444734883CA83CF3
:10760000A83CA83CA83CA83CA83CA83C4734AE6C8D
:10761000B9CEFFFFFFFFFFFFFFFF5CE7C943020397
:10762000231399CEFFFFB6AD0312C209549DFFFF8D
:107630007DEF9285317E317E317ED075F5ADDFFFF5
:10764000FFFFFFFFFFFFFFFFFFFFFFFFFFFFFFFF4A
:10765000FFFFFFFFFFFFFFFFFFFFFFFFFFFFFFFF3A
:10766000FFFFFFFFFFFFFFFFFFFFFFFFFFFFFFFF2A
:10767000FFFFFFFFFFFFFFFFFFFFFFFFFFFFFFFF1A
:1079B000FFFFFFFFDFFF7DEF3BDF37BE31854B541D
:1079C0008944883C883CA83CA83CA83CA83C883C0E
:1079D000694CF5ADBEF7FFFFFFFFFFFF99C604132B
:1079E00002036D6CBEF799CE6522C209D6B5FFFFC2
:1079F0005CE76F75317E317EF17DB3959EF7FFFFB9
:107A0000FFFFFFFFFFFFFFFFFFFFFFFFFFFFFFFF86
:107A1000FFFFFFFFFFFFFFFFFFFFFFFFFFFFFFFF76
:107A2000FFFFFFFFFFFFFFFFFFFFFFFFFFFFFFFF66
:107A3000FFFFFFFFFFFFFFFFFFFFFFFFFFFFFFFF56
:107D7000FFFFFFFFFFFFFFFFFFFFFFFFFFFFBEF75C
:107D800099CEB395CE64283C883CA83CA83CA83C3E
:107D9000A83C483C30859EF7FFFFFFFFDFFF3185A1
:107DA000030B041398C69EF7A732A20917BEFFFF64
:107DB00078C6D075317E317E71853CE7FFFFFFFFCD
:107DC000FFFFFFFFFFFFFFFFFFFFFFFFFFFFFFFFC3
:107DD000FFFFFFFFFFFFFFFFFFFFFFFFFFFFFFFFB3
:107DE000FFFFFFFFFFFFFFFFFFFFFFFFFFFFFFFFA3
:107DF000FFFFFFFFFFFFFFFFFFFFFFFFFFFFFFFF93
:10814000FFFFFFFF9EEFFAD673956B54893C883C86
:10815000A83CA83C883CEF7C3CE7FFFFFFFF7DEF9D
:10816000EA4B02032C5CDFFFCD63A20937BEFFFFA1
:10817000D5A5317E317EB07599CEFFFFFFFFFFFFA1
:10818000FFFFFFFFFFFFFFFF5DEFB9CE32956D648C
:10819000C943883BA943EB53CF74B4A5FAD67DEF0E
:1081A000FFFFFFFFFFFFFFFFFFFFFFFFFFFFFFFFDF
:1081B000FFFFFFFFFFFFFFFFFFFFFFFFFFFFFFFFCF
:1081C000FFFFFFFFFFFFFFFFFFFFFFFFFFFFFFFFBF
:1081D000FFFFFFFFFFFFFFFFFFFFFFFFFFFFFFFFAF
:10850000FFFFFFFFFFFFFFFFFFFF7DEF37B6CE6CE2
:10851000283C883CA83C683CAD645DEFFFFFFFFF52
:1085200099CE0413241399CE74A5820917BEFFFFB8
:108530009295317EF07DB39DDEF7FFFFFFFFFFFFD9
:10854000FFFFFFFF3CE7528DA83BC30A0203020373
:1085500002030203020302030203E202E312E943FD
:108560003185BAD6FFFFFFFFFFFFFFFFFFFFFFFFD1
:10857000FFFFFFFFFFFFFFFFFFFFFFFFFFFFFFFF0B
:10858000FFFFFFFFFFFFFFFFFFFFFFFFFFFFFFFFFB
:10859000FFFFFFFFFFFFFFFFFFFFFFFFFFFFFFFFEB
:1085A000FFFFFFFFFFFFFFFFFFFFFFFFFFFFFFFFDB
:1088C000FFFFFFFFFFFFFFFFFFFFFFFFFFFFBEF701
:1088D000DAD6CF74694C883C883CCE6C3CDFFFFF15
:1088E000DFFF1185030BAE6CDAD6041AB5ADFFFFBE
:1088F0005185317EB185FBD6FFFFFFFFFFFFFFFFF4
:108900007DEF939D66230203020302030203020329
:10891000020302030203020302030203020302032F
:108920000203451B6D6499CEBEF7FFFFFFFFFFFFFB
:10893000FFFFFFFFFFFFFFFFFFFFFFFFFFFFFFFF47
:10894000FFFFFFFFFFFFFFFFFFFFFFFFFFFFFFFF37
:10895000FFFFFFFFFFFFFFFFFFFFFFFFFFFFFFFF27
:10896000FFFFFFFFFFFFFFFFFFFFFFFFFFFFFFFF17
:108C7000FFFFFFFFFFFFFFFFFFFFDFFF7DEF1CE7B1
:108C80001CE75DEFBEF7FFFFFFFFFFFFFFFFFFFFEA
:108C9000FFFFDFFF98C6CE6C483C683CCE6C7DEF92
:108CA000FFFF5CE7A83B452399CE6A53339D7DEFD8
:108CB000707D117EB4A5FFFFFFFFFFFFFFFF1CE7E4
:108CC0002B54020B020302030203020302030203FA
:108CD000020302030203020302030203020302036C
:108CE0000203020302030413AE74FBDEFFFFFFFF67
:108CF000FFFFFFFFFFFFFFFFFFFFFFFFFFFFFFFF84
:108D0000FFFFFFFFFFFFFFFFFFFFFFFFFFFFFFFF73
:108D1000FFFFFFFFFFFFFFFFFFFFFFFFFFFFFFFF63
:108D2000FFFFFFFFFFFFFFFFFFFFFFFFFFFFFFFF53
:10903000FFFF3CE777BEF07CCA4B2523041B2413BB
:1090400044130413251B883B4C5C739D98C63CE776
:10905000DFFFFFFFFFFFBEF737BE6B54483C107DBC
:109060009EEFFFFF37BEE30A118D129570841CE757
:10907000D18570753CE7FFFFFFFFFFFF78C68733A0
:1090800002030203020302030203020302030203B8
:1090900002030203020302030203020302030203A8
:1090A000020302030203020302034623939D9DEF82
:1090B000FFFFFFFFFFFFFFFFFFFFFFFFFFFFFFFFC0
:1090C000FFFFFFFFFFFFFFFFFFFFFFFFFFFFFFFFB0
:1090D000FFFFFFFFFFFFFFFFFFFFFFFFFFFFFFFFA0
:1090E000FFFFFFFFFFFFFFFFFFFFFFFFFFFFFFFF90
:1093E000FFFFFFFFFFFFFFFFFFFFFFFFFFFF5CE748
:1093F0003185C83BE30A02030203020302030203AE
:10940000020302030203020302030203E30AA83B6E
:109410006D6416B69DEFFFFFFFFF1BDF3085E8335D
:109420009395FFFFBEF76C64873359CEEE73BAD6BF
:10943000D185D49DDFFFFFFFFFFF99CE462B0203AE
:1094400002030203020302030203020302030203F4
:10945000020302030203E202E102A102A202C30A22
:10946000C312E312E312C30AC202A202A20A2C5CD4
:109470001BDFFFFFFFFFFFFFFFFFFFFFFFFFFFFF00
:10948000FFFFFFFFFFFFFFFFFFFFFFFFFFFFFFFFEC
:10949000FFFFFFFFFFFFFFFFFFFFFFFFFFFFFFFFDC
:1094A000FFFFFFFFFFFFFFFFFFFFFFFFFFFFFFFFCC
:1094B000FFFFFFFFFFFFFFFFFFFFFFFFFFFFFFFFBC
:1097A000FFFFFFFFFFFFFFFFFFFF7DEF73954523E7
:1097B0000203020302030203020302030203020381
:1097C0000203020302030203020302030203020371
:1097D0000203230B25231085B9CEBEF7BEF7F5ADE6
:1097E0004B5416B6FFFFDAD68833D5AD918C38C608
:1097F000B18599CEFFFFFFFF99CE672B02030203CD
:109800000203020302030203E2024413A72BC93B33
:109810006C64F08494A537BEBAD65CE77DEF9DEF0B
:109820009DEF9DEF9DEF9DEF7DEF5CE7DAD658C68B
:109830009AD6DFFFFFFFFFFFFFFFFFFFFFFFFFFFE6
:10984000FFFFFFFFFFFFFFFFFFFFFFFFFFFFFFFF28
:10985000FFFFFFFFFFFFFFFFFFFFFFFFFFFFFFFF18
:10986000FFFFFFFFFFFFFFFFFFFFFFFFFFFFFFFF08
:10987000FFFFFFFFFFFFFFFFFFFFFFFFFFFFFFFFF8
:109B6000FFFFFFFFFFFFFFFF3CE74D5C030B02031E
:109B700002030203020302030203020302030203BD
:109B800002030203020302030203020302030203AD
:109B90000203020302030203451B8E6C99CEFFFFF2
:109BA00078C62D64FBDEFFFF11856D6C79CE54A560
:109BB00051859EF7FFFF7DEFC943020302030203B5
:109BC0000203E202251B2C5C939D57BE1BDFBEF7F0
:109BD000FFFFFFFFFFFFFFFFFFFFFFFFFFFFFFFF95
:109BE000FFFFFFFFFFFFFFFFFFFFFFFFFFFFFFFF85
:109BF000FFFFFFFFFFFFFFFFFFFFFFFFFFFFFFFF75
:109C0000FFFFFFFFFFFFFFFFFFFFFFFFFFFFFFFF64
:109F2000FFFFFFFFFFFFB9CE8833020302030203E6
:109F300002030203020302030203020302030203F9
:109F400002030203020302030203020302030203E9
:109F5000020302030203020302030203E30A4D6445
:109F600099C6B9CED18C9EF77DEFAB5BFAD658C6B9
:109F7000B5ADFFFFBEF76D6402030203E202662384
:109F80006D6437BEBEF7DFFFFFFFFFFFFFFFFFFF80
:109F9000FFFFFFFFFFFFFFFFFFFFFFFFFFFFFFFFD1
:109FA000FFFFFFFFFFFFFFFFFFFFFFFFFFFFFFFFC1
:109FB000FFFFFFFFFFFFFFFFFFFFFFFFFFFFFFFFB1
:109FC000FFFFFFFFFFFFFFFFFFFFFFFFFFFFFFFFA1
:10A2E000FFFFFFFFFBDEC83B020302030203020382
:10A2F0000203020302030203020302030203020336
:10A300000203020302030203020302030203C20266
:10A31000A202820282028202A202E2020203E2029C
:10A320004523118518C618C6DFFF539DD6B559CEF3
:10A33000DBDEFFFFF6AD030B020304131185DAD653
:10A34000DFFFFFFFFFFFFFFFFFFFFFFFFFFFFFFF3D
:10A35000FFFFFFFFFFFFFFFFFFFFFFFFFFFFFFFF0D
:10A36000FFFFFFFFFFFFFFFFFFFFFFFFFFFFFFFFFD
:10A37000FFFFFFFFFFFFFFFFFFFFFFFFFFFFFFFFED
:10A38000FFFFFFFFFFFFFFFFFFFFFFFFFFFFFFFFDD
:10A39000FFFFFFFFFFFFFFFFFFFFFFFFFFFFFFFFCD
:10A3A000FFFFFFFFFFFFFFFFFFFFFFFFFFFFFFFFBD
:10A3B000FFFFFFFFFFFFFFFFFFFFFFFFFFFFFFFFAD
:10A3C000FFFFFFFFFFFFFFFFFFFFFFFFFFFFFFFF9D
:10A3D000FFFFFFFFFFFFFFFFFFFFFFFFFFFFFFFF8D
:10A3E000FFFFFFFFFFFFFFFFFFFFFFFFFFFFFFFF7D
:10A3F000FFFFFFFFFFFFFFFFFFFFFFFFFFFFFFFF6D
:10A40000FFFFFFFFFFFFFFFFFFFFFFFFFFFFFFFF5C
:10A41000FFFFFFFFFFFFFFFFFFFFFFFFFFFFFFFF4C
:10A42000FFFFFFFFFFFF9EF73CE79EF7FFFFFFFFE9
:10A43000FFFFFFFFFFFFFFFFFFFFFFFFFFFFFFFF2C
:10A44000FFFFFFFFFFFFFFFFFFFFFFFFBEF73CE740
:10A450005DEFFFFFFFFFFFFFFFFFFFFFFFFFFFFFBE
:10A46000FFFFFFFFFFFFFFFFFFFFFFFFFFFFFFFFFC
:10A47000FFFFFFFFFFFFFFFFFFFFFFFFFFFFFFFFEC
:10A48000FFFFFFFFFFFFFFFFFFFFFFFFFFFFFFFFDC
:10A49000FFFFFFFFFFFFFFFFFFFFFFFFFFFFFFFFCC
:10A6A000FFFF3CE7A93B020302030203020302038C
:10A6B0000203020302030203020302030203020372
:10A6C0000203030B8623EA4BAE7494A538C61BDF46
:10A6D0007DEFDFFFDFFF9EF71CE779CED5ADF0847D
:10A6E0002B54A8336843B5ADBEF79EF792949EF7FE
:10A6F000DFFF3CE7462B2413CF745DE7FFFFFFFF2E
:10A70000FFFFFFFFFFFFFFFFFFFFFFFFFFFFFFFF59
:10A71000FFFFFFFFFFFFFFFFFFFFFFFFFFFFFFFF49
:10A72000FFFFFFFFFFFFFFFFFFFFDFFFFBDE39BE85
:10A730001595127450538E320C1AAB098A098A0986
:10A74000AB110C22CE3AB163B484F9B5BAD69EF7F8
:10A75000FFFFFFFFFFFFFFFFFFFFFFFFFFFFFFFF09
:10A76000FFFFFFFFFFFFFFFFFFFFFFFFFFFFFFFFF9
:10A77000FFFFFFFFFFFFFFFFFFFFFFFFFFFFFFFFE9
:10A78000FFFFFFFFFFFFFFFFFFFFFFFFFFFFFFFFD9
:10A79000FFFFFFFFFFFFFFFFFFFFFFFFFFFFFFFFC9
:10A7A000FFFFFFFFFFFFFFFFFFFFFFFFFFFFFFFFB9
:10A7B000FFFFFFFFFFFFFFFFFFFFFFFFFFFFFFFFA9
:10A7C000FFFFFFFFFFFFFFFFFFFFFFFFFFFFFFFF99
:10A7D000FFFFFFFFFFFFFFFFFFFFFFFFFFFFFFFF89
:10A7E000FFFFFFFFFFFF718CA631518CFFFFFFFFC2
:10A7F000FFFFFFFFFFFFFFFFFFFFFFFFFFFFFFFF69
:10A80000FFFFFFFFFFFFFFFFFFFFFFFFD7BDA631E9
:10A810000C63DFFFFFFFFFFFFFFFFFFFFFFFFFFFF7
:10A82000FFFFFFFFFFFFFFFFFFFFFFFFFFFFFFFF38
:10A83000FFFFFFFFFFFFFFFFFFFFFFFFFFFFFFFF28
:10A84000FFFFFFFFFFFFFFFFFFFFFFFFFFFFFFFF18
:10A85000FFFFFFFFFFFFFFFFFFFFFFFFFFFFFFFF08
:10AA6000DFFF8E6CE2020203020302030203020311
:10AA70000203020302030203020302030203E312BE
:10AA80002C5CF5ADDAD69EF7FFFFFFFFFFFFFFFF5F
:10AA9000FFFFFFFFFFFFFFFFFFFFFFFFFFFFFFFFC6
:10AAA000DFFF1CE778C6549DB6B5BEF759CE1CE74C
:10AAB000DFFF1185262BF5ADDFFFFFFFFFFFFFFF57
:10AAC000FFFFFFFFFFFFFFFFFFFFFFFFFFFFFFFF96
:10AAD000FFFFFFFFFFFFFFFFFFFFFFFFFFFFFFFF86
:10AAE000FFFFFFFFFFFF9EEF76A5915BAE2ACC1123
:10AAF0006B018C018C018C018C018C018C018C010F
:10AB00008C018C018C018C016B01AB094D22504BE7
:10AB1000B48C1CE7FFFFFFFFFFFFFFFFFFFFFFFFFE
:10AB2000FFFFFFFFFFFFFFFFFFFFFFFFFFFFFFFF35
:10AB3000FFFFFFFFFFFFFFFFFFFFFFFFFFFFFFFF25
:10AB4000FFFFFFFFFFFFFFFFFFFFFFFFFFFFFFFF15
:10AB5000FFFFFFFFFFFFFFFFFFFFFFFFFFFFFFFF05
:10AB6000FFFFFFFFFFFFFFFFFFFFFFFFFFFFFFFFF5
:10AB7000FFFFFFFFFFFFFFFFFFFFFFFFFFFFFFFFE5
:10AB8000FFFFFFFFFFFFFFFFFFFFFFFFFFFFFFFFD5
:10AB9000FFFFFFFFFFFFFFFFFFFFFFFFFFFFFFFFC5
:10ABA000FFFFFFFFFFFF718CC739718CFFFFFFFFB5
:10ABB000FFFFFFFFFFFFFFFFFFFFFFFFFFFFFFFFA5
:10ABC000FFFFFFFFFFFFFFFFFFFFFFFFD7BDA63126
:10ABD0000C63DFFFFFFFFFFFFFFFFFFFFFFFFFFF34
:10ABE000FFFFFFFFFFFFFFFFFFFFFFFFFFFFFFFF75
:10ABF000FFFFFFFFFFFFFFFFFFFFFFFFFFFFFFFF65
:10AC0000FFFFFFFFFFFFFFFFFFFFFFFFFFFFFFFF54
:10AC1000FFFFFFFFFFFFFFFFFFFFFFFFFFFFFFFF44
:10AE2000939D230B020302030203020302030203A6
:10AE30000203020302030203E20AC94333957DEFD2
:10AE4000FFFFFFFFFFFFFFFFFFFFFFFFFFFFFFFF12
:10AE5000FFFFFFFFFFFFFFFFFFFFFFFFFFFFFFFF02
:10AE6000FFFFFFFFFFFFFFFFFFFFFFFFFFFFFFFFF2
:10AE7000FBDECC5B1BDFDFFFDACEF49DED64AB4C79
:10AE8000AB4C0E65F49DDACEDFFFFFFFFFFFFFFF47
:10AE9000FFFFFFFFFFFFFFFFFFFFFFFFFFFFFFFFC2
:10AEA000BEF739BEB163AB118C018C018C018C01F2
:10AEB0008C018C018C018C018C018C018C018C012A
:10AEC0008C018C018C018C018C018C018C018C011A
:10AED0008C018B01CE4297AD5DE7FFFFFFFFFFFFC7
:10AEE000FFFFFFFFFFFFFFFFFFFFFFFFFFFFFFFF72
:10AEF000FFFFFFFFFFFFFFFFFFFFFFFFFFFFFFFF62
:10AF0000FFFFFFFFFFFFFFFFFFFFFFFFFFFFFFFF51
:10AF1000FFFFFFFFFFFFFFFFFFFFFFFFFFFFFFFF41
:10AF2000FFFFFFFFFFFFFFFFFFFFFFFFFFFFFFFF31
:10AF3000FFFFFFFFFFFFFFFFFFFFFFFFFFFFFFFF21
:10AF4000FFFFFFFFFFFFFFFFFFFFFFFFFFFFFFFF11
:10AF5000FFFFFFFFFFFFFFFFFFFFFFFFFFFFFFFF01
:10AF6000FFFFFFFFFFFF718CC739718CFFFFFFFFF1
:10AF7000FFFFFFFFFFFFFFFFFFFFFFFFFFFFFFFFE1
:10AF8000FFFFFFFFFFFFFFFFFFFFFFFFD7BDA63162
:10AF90000C63DFFFFFFFFFFFFFFFFFFFFFFFFFFF70
:10AFA000FFFFFFFFFFFFFFFFFFFFFFFFFFFFFFFFB1
:10AFB000FFFFFFFFFFFFFFFFFFFFFFFFFFFFFFFFA1
:10AFC000FFFFFFFFFFFFFFFFFFFFFFFFFFFFFFFF91
:10AFD000FFFFFFFFFFFFFFFFFFFFFFFFFFFFFFFF81
:10B1D000FFFFFFFFFFFFFFFFFFFFFFFFFFFF5CE73A
:10B1E000662B0203020302030203020302030203AB
:10B1F0000203020302036733B49D5CE7FFFFFFFF16
:10B20000FFFFFFFFFFFFFFFFFFFFFFFFFFFFFFFF4E
:10B21000FFFFFFFFFFFFFFFFFFFFDFFFDEF73CE762
:10B2200099CE37BE37BE37BE78C61BDF9EF7DFFF2D
:10B23000F7BDDAD63CE72F75872C440C840CA40CA0
:10B24000A40CA40C440C872C507D3CE7FFFFFFFFAF
:10B25000FFFFFFFFFFFFFFFFFFFFFFFFFFFF7ACEB4
:10B260007053EC196B018C018C018C018C018C01E9
:10B270008C018C018C018C018C018C018C018C0166
:10B280008C018C018C018C018C018C018C018C0156
:10B290008C018C018C01AC09CF3AB7ADBEF7FFFF32
:10B2A000FFFFFFFFFFFFFFFFFFFFFFFFFFFFFFFFAE
:10B2B000FFFFFFFFFFFFFFFFFFFFFFFFFFFFFFFF9E
:10B2C000FFFFFFFFFFFFFFFFFFFFFFFFFFFFFFFF8E
:10B2D000FFFFFFFFFFFFFFFFFFFFFFFFFFFFFFFF7E
:10B2E000FFFFFFFFFFFFFFFFFFFFFFFFFFFFFFFF6E
:10B2F000FFFFFFFFFFFFFFFFFFFFFFFFFFFFFFFF5E
:10B30000FFFFFFFFFFFFFFFFFFFFFFFFFFFFFFFF4D
:10B31000FFFFFFFFFFFFFFFFFFFFFFFFFFFFFFFF3D
:10B32000FFFFFFFFFFFF718CC739718CFFFFFFFF2D
:10B33000FFFFFFFFFFFFFFFFFFFFFFFFFFFFFFFF1D
:10B34000FFFFFFFFFFFFFFFFFFFFFFFFD7BDA6319E
:10B350000C63DFFFFFFFFFFFFFFFFFFFFFFFFFFFAC
:10B36000FFFFFFFFFFFFFFFFFFFFFFFFFFFFFFFFED
:10B37000FFFFFFFFFFFFFFFFFFFFFFFFFFFFFFFFDD
:10B38000FFFFFFFFFFFFFFFFFFFFFFFFFFFFFFFFCD
:10B39000FFFFFFFFFFFFFFFFFFFFFFFFFFFFFFFFBD
:10B59000FFFFFFFFFFFFFFFFFFFFFFFFFFFFAF7496
:10B5A0000203020302030203020302030203020373
:10B5B00002036623328DBEF7FFFFFFFFFFFFFFFF91
:10B5C000FFFFFFFFFFFFFFFFFFFFFFFFFFFFFFFF8B
:10B5D000FFFFFFFF1BDF35AE2F75693C0514230C01
:10B5E000640C840CA40C640C47248B4CB07C18C6EF
:10B5F0005DEFBAD6AF7C2F750E6DEC5CC93C451C77
:10B60000640CA40CA40CA40C840C261C15AEBEF770
:10B61000FFFFFFFFFFFFFFFFFFFFDBD6B163AC09BA
:10B620008C018C018C018C018C018C018C018C01B2
:10B630008C018C018C018C018C018C018C018C01A2
:10B640008C018C018C018C018C018C018C018C0192
:10B650008C018C018C018C018C018B01CE3A39BE9E
:10B66000DFFFFFFFFFFFFFFFFFFFFFFFFFFFFFFF0A
:10B67000FFFFFFFFFFFFFFFFFFFFFFFFFFFFFFFFDA
:10B68000FFFFFFFFFFFFFFFFFFFFFFFFFFFFFFFFCA
:10B69000FFFFFFFFFFFFFFFFFFFFFFFFFFFFFFFFBA
:10B6A000FFFFFFFFFFFFFFFFFFFFFFFFFFFFFFFFAA
:10B6B000FFFFFFFFFFFFFFFFFFFFFFFFFFFFFFFF9A
:10B6C000FFFFFFFFFFFFFFFFFFFFFFFFFFFFFFFF8A
:10B6D000FFFFFFFFFFFFFFFFFFFFFFFFFFFFFFFF7A
:10B6E000FFFFFFFFFFFF718CC739718CFFFFFFFF6A
:10B6F000FFFFFFFFFFFFFFFFFFFFFFFFFFFFFFFF5A
:10B70000FFFFFFFFFFFFFFFFFFFFFFFFD7BDA631DA
:10B710000C63DFFFFFFFFFFFFFFFFFFFFFFFFFFFE8
:10B72000FFFFFFFFFFFFFFFFFFFFFFFFFFFFFFFF29
:10B73000FFFFFFFFFFFFFFFFFFFFFFFFFFFFFFFF19
:10B74000FFFFFFFFFFFFFFFFFFFFFFFFFFFFFFFF09
:10B75000FFFFFFFFFFFFFFFFFFFFFFFFFFFFFFFFF9
:10B95000FFFFFFFFFFFFFFFFFFFFFFFFDAD66623BA
:10B960000203020302030203020302030203020BA7
:10B97000EA4BB9CEDFFFFFFFFFFFFFFFFFFFFFFF37
:10B98000FFFFFFFFFFFFFFFFFFFFFFFFFFFFDFFFE7
:10B990001BDF0F75A8346414840CA40CA40CA40C35
:10B9A000840C840C4834B295FACE7DEF9EEF9AD683
:10B9B0009EF77DEF9EF7FFFFFFFFBEF73CE7D9CE76
:10B9C0009185483C6514840CA40CA40C651C7185FD
:10B9D000DFFFFFFFFFFFDFFF76A58E328B018C01BB
:10B9E0008C018C018C018C018C018C018C018C01EF
:10B9F0008C018C018C018C018C018C018C018C01DF
:10BA00008C018C018C018C018C018C018C018C01CE
:10BA10008C018C018C018C018C018C018C010C1A25
:10BA2000537C9EF7FFFFFFFFFFFFFFFFFFFFFFFFBE
:10BA3000FFFFFFFFFFFFFFFFFFFFFFFFFFFFFFFF16
:10BA4000FFFFFFFFFFFFFFFFFFFFFFFFFFFFFFFF06
:10BA5000FFFFFFFFFFFFFFFFFFFFFFFFFFFFFFFFF6
:10BA6000FFFFFFFFFFFFFFFFFFFFFFFFFFFFFFFFE6
:10BA7000FFFFFFFFFFFFFFFFFFFFFFFFFFFFFFFFD6
:10BA8000FFFFFFFFFFFFFFFFFFFFFFFFFFFFFFFFC6
:10BA9000FFFFFFFFFFFFFFFFFFFFFFFFFFFFFFFFB6
:10BAA000FFFFFFFFFFFF718CC739718CFFFFFFFFA6
:10BAB000FFFFFFFFFFFFFFFFFFFFFFFFFFFFFFFF96
:10BAC000FFFFFFFFFFFFFFFFFFFFFFFFD7BDA63117
:10BAD0000C63DFFFFFFFFFFFFFFFFFFFFFFFFFFF25
:10BAE000FFFFFFFFFFFFFFFFFFFFFFFFFFFFFFFF66
:10BAF000FFFFFFFFFFFFFFFFFFFFFFFFFFFFFFFF56
:10BB0000FFFFFFFFFFFFFFFFFFFFFFFFFFFFFFFF45
:10BB1000FFFFFFFFFFFFFFFFFFFFFFFFFFFFFFFF35
:10BD1000FFFFFFFFFFFFFFFFFFFFDFFFCF74020307
:10BD2000020302030203020302030203241B3295EF
:10BD3000BEF7FFFFFFFFFFFFFFFFFFFFFFFFFFFF5C
:10BD4000FFFFFFFFFFFFFFFFFFFFFFFF5CE74F75F8
:10BD5000451CA40CA40CA40CA40CA40CA40C640CF2
:10BD6000893CD49D9EF7FFFF7DEF7295AA4B17BECD
:10BD70009EF7D8ADD48CDFFFFFFFFFFFFFFFFFFF73
:10BD8000FFFFDFFF37B60E65451C840CA40C440C86
:10BD90007185BEF73DE732746B018C018C018C011B
:10BDA0008C018C018C018C018C018C018C018B012C
:10BDB000AB096E2A0F43915B12747384B48494842C
:10BDC000537CD2637053AE32EC116B018C018C0149
:10BDD0008C018C018C018C018C018C018C018C01FB
:10BDE0008C01EF427ACEFFFFFFFFFFFFFFFFFFFF57
:10BDF000FFFFFFFFFFFFFFFFFFFFFFFFFFFFFFFF53
:10BE0000FFFFFFFFFFFFFFFFFFFFFFFFFFFFFFFF42
:10BE1000FFFFFFFFFFFFFFFFFFFFFFFFFFFFFFFF32
:10BE2000FFFFFFFFFFFFFFFFFFFFFFFFFFFFFFFF22
:10BE3000FFFFFFFFFFFFFFFFFFFFFFFFFFFFFFFF12
:10BE4000FFFFFFFFFFFFFFFFFFFFFFFFFFFFFFFF02
:10BE5000FFFFFFFFFFFFFFFFFFFFFFFFFFFFFFFFF2
:10BE6000FFFFFFFFFFFF718CC739718CFFFFFFFFE2
:10BE7000FFFFFFFFFFFFFFFFFFFFFFFFFFFFFFFFD2
:10BE8000FFFFFFFFFFFFFFFFFFFFFFFFD7BDA63153
:10BE90000C63DFFFFFFFFFFFFFFFFFFFFFFFFFFF61
:10BEA000FFFFFFFFFFFFFFFFFFFFFFFFFFFFFFFFA2
:10BEB000FFFFFFFFFFFFFFFFFFFFFFFFFFFFFFFF92
:10BEC000FFFFFFFFFFFFFFFFFFFFFFFFFFFFFFFF82
:10BED000FFFFFFFFFFFFFFFFFFFFFFFFFFFFFFFF72
:10C0D000FFFFFFFFFFFFFFFFFFFF7DE7251B0203C1
:10C0E00002030203020302030203662B17B6DFFFFB
:10C0F000FFFFFFFFFFFFFFFFFFFFFFFFFFFFFFFF50
:10C10000FFFFFFFFFFFFFFFFFFFFB9C6AB4C640C53
:10C11000A40CA40CA40CA40CA40C840C85142F75E2
:10C120001BDFFFFFFFFFFBD60B54E312939DFFFFC6
:10C13000BBCECB110D1A5AC6FFFFFFFFFFFFFFFF5B
:10C14000FFFFFFFFFFFFBEF798C6ED646514840C88
:10C15000651451850F4BAC018C018C018C018C0155
:10C160008C018C018C018C018C01EC11CE3AD48CA9
:10C170005AC6DBD6FCDE3DE77DEF5DE71CDF3DE721
:10C180005DEF5DEF3CE7FBDE9BCE569D5053EC111F
:10C19000AC018C018C018C018C018C018C018C0117
:10C1A0008C018C016D2A19BEFFFFFFFFFFFFFFFF0F
:10C1B000FFFFFFFFFFFFFFFFFFFFFFFFFFFFFFFF8F
:10C1C000FFFFFFFFFFFFFFFFFFFFFFFFFFFFFFFF7F
:10C1D000FFFFFFFFFFFFFFFFFFFFFFFFFFFFFFFF6F
:10C1E000FFFFFFFFFFFFFFFFFFFFFFFFFFFFFFFF5F
:10C1F000FFFFFFFFFFFFFFFFFFFFFFFFFFFFFFFF4F
:10C20000FFFFFFFFFFFFFFFFFFFFFFFFFFFFFFFF3E
:10C21000FFFFFFFFFFFFFFFFFFFFFFFFFFFFFFFF2E
:10C22000FFFFFFFFFFFF718CC739718CFFFFFFFF1E
:10C23000FFFFFFFFFFFFFFFFFFFFFFFFFFFFFFFF0E
:10C24000FFFFFFFFFFFFFFFFFFFFFFFFD7BDA6318F
:10C250000C63DFFFFFFFFFFFFFFFFFFFFFFFFFFF9D
:10C26000FFFFFFFFFFFFFFFFFFFFFFFFFFFFFFFFDE
:10C27000FFFFFFFFFFFFFFFFFFFFFFFFFFFFFFFFCE
:10C28000FFFFFFFFFFFFFFFFFFFFFFFFFFFFFFFFBE
:10C29000FFFFFFFFFFFFFFFFFFFFFFFFFFFFFFFFAE
:10C49000FFFFFFFFFFFFFFFFFFFF539DE2020203CD
:10C4A0000203020302030203C943FAD6FFFFFFFFA0
:10C4B000FFFFFFFFFFFFFFFFFFFFFFFFFFFFFFFF8C
:10C4C000FFFFFFFFFFFFFFFF78BE261C840CA40CBC
:10C4D000A40CA40CA40CA40C840C683415AEFFFFAF
:10C4E000FFFFFFFFFAD68733E202EA4B7DEFFFFF43
:10C4F000FCDEEC118C013374DFFFFFFFFFFFFFFF59
:10C50000FFFFFFFFFFFFFFFFFFFFFFFF57BEEC5CDA
:10C51000440C030CA9018C018C018C018C018C0151
:10C520008C018C018B014D2233747ACEBEF79AD6E2
:10C53000569D537C50536D2ACB116A016A016A01E2
:10C540006A090C1AAE3AD263F59459C69EF7FCDE1E
:10C55000F594AE3A8B018C018C018C018C018C011D
:10C560008C018C018C010C1A76A5FFFFFFFFFFFFE9
:10C57000FFFFFFFFFFFFFFFFFFFFFFFFFFFFFFFFCB
:10C58000FFFFFFFFFFFFFFFFFFFFFFFFFFFFFFFFBB
:10C59000FFFFFFFFFFFFFFFFFFFFFFFFFFFFFFFFAB
:10C5A000FFFFFFFFFFFFFFFFFFFFFFFFFFFFFFFF9B
:10C5B000FFFFFFFFFFFFFFFFFFFFFFFFFFFFFFFF8B
:10C5C000FFFFFFFFFFFFFFFFFFFFFFFFFFFFFFFF7B
:10C5D000FFFFFFFFFFFFFFFFFFFFFFFFFFFFFFFF6B
:10C5E000FFFFFFFFFFFF718CC739718CFFFFFFFF5B
:10C5F000FFFFFFFFFFFFFFFFFFFFFFFFFFFFFFFF4B
:10C60000FFFFFFFFFFFFFFFFFFFFFFFFD7BDA631CB
:10C610000C63DFFFFFFFFFFFFFFFFFFFFFFFFFFFD9
:10C62000FFFFFFFFFFFFFFFFFFFFFFFFFFFFFFFF1A
:10C63000FFFFFFFFFFFFFFFFFFFFFFFFFFFFFFFF0A
:10C64000FFFFFFFFFFFFFFFFFFFFFFFFFFFFFFFFFA
:10C65000FFFFFFFFFFFFFFFFFFFFFFFFFFFFFFFFEA
:10C85000FFFFFFFFFFFFFFFFBEF7C94B020302030D
:10C86000020302030203EA533CDFFFFFFFFFFFFF67
:10C87000FFFFFFFFFFFFFFFFFFFFFFFFFFFFFFFFC8
:10C88000FFFFFFFFFFFF98C66834A40CA40CA40CA4
:10C89000A40CA40CA40C840C893CDACEFFFFFFFF8F
:10C8A000FFFF9DEF0B540203230B949DFFFFFFFF3F
:10C8B0003DE78E2A8C012D223DE7FFFFFFFFFFFFA2
:10C8C000FFFFFFFFFFFFFFFFFFFFFFFFFFFF9ACE0E
:10C8D0004812450305038A018C018C018C018C01EF
:10C8E0008C01EC11527CBBD63CE797AD304B2D222E
:10C8F000AC096B018C018C018C018C018C018C01C9
:10C900008C018C018C018C018C010D1AAE32F594D6
:10C91000FCDEFCDE569D2D228C018C018C018C01ED
:10C920008C018C018C018C010C1A97ADDFFFFFFF8D
:10C93000FFFFFFFFFFFFFFFFFFFFFFFFFFFFFFFF07
:10C94000FFFFFFFFFFFFFFFFFFFFFFFFFFFFFFFFF7
:10C95000FFFFFFFFFFFFFFFFFFFFFFFFFFFFFFFFE7
:10C96000FFFFFFFFFFFFFFFFFFFFFFFFFFFFFFFFD7
:10C97000FFFFFFFFFFFFFFFFFFFFFFFFFFFFFFFFC7
:10C98000FFFFFFFFFFFFFFFFFFFFFFFFFFFFFFFFB7
:10C99000FFFFFFFFFFFFFFFFFFFFFFFFFFFFFFFFA7
:10C9A000FFFFFFFFFFFF718CC739718CFFFFFFFF97
:10C9B000FFFFFFFFFFFFFFFFFFFFFFFFFFFFFFFF87
:10C9C000FFFFFFFFFFFFFFFFFFFFFFFFD7BDA63108
:10C9D0000C63DFFFFFFFFFFFFFFFFFFFFFFFFFFF16
:10C9E000FFFFFFFFFFFFFFFFFFFFFFFFFFFFFFFF57
:10C9F000FFFFFFFFFFFFFFFFFFFFFFFFFFFFFFFF47
:10CA0000FFFFFFFFFFFFFFFFFFFFFFFFFFFFFFFF36
:10CA1000FFFFFFFFFFFFFFFFFFFFFFFFFFFFFFFF26
:10CC1000FFFFFFFFFFFFFFFF78C6451B0203020374
:10CC2000020302030C545DEFFFFFFFFFFFFFFFFF56
:10CC3000FFFFFFFFFFFFFFFFFFFFFFFFFFFFFFFF04
:10CC4000FFFFFFFF7DEF6834840CA40CA40CA40C40
:10CC5000A40CA40C840CAC5C3BDFFFFFFFFFFFFFC8
:10CC6000FFFF939D030B020345235CE7FFFFFFFFDC
:10CC70007DEF104B8C016B01159DFFFFFFFFFFFF48
:10CC8000FFFFFFFFFFFFFFFFFFFFFFFFDBD6CE3AF7
:10CC90008C016B014602C5018C018C018C018C0159
:10CCA000305359C67DEF359D8D328B018C018C013F
:10CCB0008C018C018C018C018C018C018C018C010C
:10CCC0008C018C018C018C018C018C018C018B01FD
:10CCD000EC19737CDBD61CE73374AC098C018C0136
:10CCE0008C018C018C018C018C010C1AD8B5FFFFD2
:10CCF000FFFFFFFFFFFFFFFFFFFFFFFFFFFFFFFF44
:10CD0000FFFFFFFFFFFFFFFFFFFFFFFFFFFFFFFF33
:10CD1000FFFFFFFFFFFFFFFFFFFFFFFFFFFFFFFF23
:10CD2000FFFFFFFFFFFFFFFFFFFFFFFFFFFFFFFF13
:10CD3000FFFFFFFFFFFFFFFFFFFFFFFFFFFFFFFF03
:10CD4000FFFFFFFFFFFFFFFFFFFFFFFFFFFFFFFFF3
:10CD5000FFFFFFFFFFFFFFFFFFFFFFFFFFFFFFFFE3
:10CD6000FFFFFFFFFFFF718CC739718CFFFFFFFFD3
:10CD7000FFFFFFFFFFFFFFFFFFFFFFFFFFFFFFFFC3
:10CD8000FFFFFFFFFFFFFFFFFFFFFFFFD7BDA63144
:10CD90000C63DFFFFFFFFFFFFFFFFFFFFFFFFFFF52
:10CDA000FFFFFFFFFFFFFFFFFFFFFFFFFFFFFFFF93
:10CDB000FFFFFFFFFFFFFFFFFFFFFFFFFFFFFFFF83
:10CDC000FFFFFFFFFFFFFFFFFFFFFFFFFFFFFFFF73
:10CDD000FFFFFFFFFFFFFFFFFFFFFFFFFFFFFFFF63
:10CFD000FFFFFFFFFFFFFFFF528DE202020302038C
:10CFE00002030B545DEFFFFFFFFFFFFFFFFFFFFF9B
:10CFF000FFFFFFFFFFFFFFFFFFFFFFFFFFFFFFFF41
:10D00000FFFFBEF75075840CA40CA40CA40CA40C58
:10D01000A40C840CAC547DEFFFFFFFFFFFFFFFFF6C
:10D02000BEF7C943020302030B54FFFFFFFFFFFFDC
:10D03000BEF7B2638C018C01EF429EF7FFFFFFFF4A
:10D04000FFFFFFFFFFFFFFFFFFFFBEF72F4B8C012E
:10D050008C018C018B0169014A018C01EC11537C1C
:10D060003DE739BECE3AAC098C018C018C018C01B4
:10D070008C018C018C018C018C016B018B018B016B
:10D080006B018C018C018C018C018C018C018C0159
:10D090008C018C012D22569D5DE777A54D2A8C01D0
:10D0A0008C018C018C018C018C018C014D229ACE5B
:10D0B000FFFFFFFFFFFFFFFFFFFFFFFFFFFFFFFF80
:10D0C000FFFFFFFFFFFFFFFFFFFFFFFFFFFFFFFF70
:10D0D000FFFFFFFFFFFFFFFFFFFFFFFFFFFFFFFF60
:10D0E000FFFFFFFFFFFFFFFFFFFFFFFFFFFFFFFF50
:10D0F000FFFFFFFFFFFFFFFFFFFFFFFFFFFFFFFF40
:10D10000FFFFFFFFFFFFFFFFFFFFFFFFFFFFFFFF2F
:10D11000FFFFFFFFFFFFFFFFFFFFFFFFFFFFFFFF1F
:10D12000FFFFFFFFFFFF718CC739718CFFFFFFFF0F
:10D13000FFFFFFFFFFFFFFFFFFFFFFFFFFFFFFFFFF
:10D14000FFFFFFFFFFFFFFFFFFFFFFFFD7BDA63180
:10D150000C63DFFFFFFFFFFFFFFFFFFFFFFFFFFF8E
:10D16000FFFFFFFFFFFFFFFFFFFFFFFFFFFFFFFFCF
:10D17000FFFFFFFFFFFFFFFFFFFFFFFFFFFFFFFFBF
:10D18000FFFFFFFFFFFFFFFFFFFFFFFFFFFFFFFFAF
:10D19000FFFFFFFFFFFFFFFFFFFFFFFFFFFFFFFF9F
:10D1A000FFFFFFFFFFFFFFFFFFFFFFFFFFFFFFFF8F
:10D1B000FFFFFFFFFFFFFFFFFFFFFFFFFFFFFFFF7F
:10D1C000FFFFFFFFFFFFFFFFFFFFFFFFFFFFFFFF6F
:10D1D000FFFFFFFFFFFFFFFFFFFFFFFFFFFFFFFF5F
:10D1E000FFFFFFFFFFFFFFFFFFFFFFFFFFFFFFFF4F
:10D1F000FFFFFFFFFFFFFFFFFFFFFFFFFFFFFFFF3F
:10D20000FFFFFFFFFFFFFFFFFFFFFFFFFFFFFFFF2E
:10D21000FFFFFFFFFFFFFFFFFFFFFFFFFFFFFFFF1E
:10D22000FFFFFFFFFFFFFFFFFFFFFFFFFFFFFFFF0E
:10D23000FFFFFFFFFFFFFFFFFFFFFFFFFFFFFFFFFE
:10D24000FFFFFFFFFFFFFFFFFFFFFFFFFFFFFFFFEE
:10D25000FFFFFFFFFFFFFFFFFFFFFFFFFFFFFFFFDE
:10D26000FFFFFFFFFFFFFFFFFFFFFFFFFFFFFFFFCE
:10D27000FFFFFFFFFFFFFFFFFFFFFFFFFFFFFFFFBE
:10D28000FFFFFFFFFFFFFFFFFFFFFFFFFFFFFFFFAE
:10D29000FFFFFFFFFFFFFFFFFFFFFFFFFFFFFFFF9E
:10D2A000FFFFFFFFFFFFFFFFFFFFFFFFFFFFFFFF8E
:10D2B000FFFFFFFFFFFFFFFFFFFFFFFFFFFFFFFF7E
:10D2C000FFFFFFFFFFFFFFFFFFFFFFFFFFFFFFFF6E
:10D2D000FFFFFFFFFFFFFFFFFFFFFFFFFFFFFFFF5E
:10D2E000FFFFFFFFFFFFFFFFFFFFFFFFFFFFFFFF4E
:10D2F000FFFFFFFFFFFFFFFFFFFFFFFFFFFFFFFF3E
:10D3000096B596B596B596B596B596B5B6B57DEF84
:10D31000FFFFFFFFFFFFFFFFFFFFFFFFFFFFFFFF1D
:10D32000FFFFFFFFFFFFFFFFFFFFFFFFFFFFFFFF0D
:10D33000FFFFFFFFFFFFFFFFFFFFFFFFFFFFFFFFFD
:10D34000FFFFFFFFFFFFFFFFFFFFFFFFFFFFFFFFED
:10D35000FFFFFFFFFFFFFFFFFFFFFFFFFFFFFFFFDD
:10D36000FFFFFFFFFFFFFFFFFFFFFFFFFFFFFFFFCD
:10D37000FFFFFFFFFFFFFFFFFFFFFFFFFFFFFFFFBD
:10D38000FFFFFFFFFFFFFFFFFFFFFFFFFFFFFFFFAD
:10D39000FFFFFFFFFFFFBEF7EA4B0203020302039A
:10D3A000EA4B3CE7FFFFFFFFFFFFFFFFFFFFFFFF31
:10D3B000FFFFFFFFFFFFFFFFFFFFFFFFFFFFFFFF7D
:10D3C000FFFF98C6461CA40CA40CA40CA40CA40C2F
:10D3D000840CCC5C5CE7FFFFFFFFFFFFFFFFFFFF5C
:10D3E0001BDFE20A02030203739DFFFFFFFFFFFF43
:10D3F000FFFF537C8B018C01ED1118BEFFFFFFFF77
:10D40000FFFFFFFFFFFFFFFFBEF7737C8C018C0166
:10D410008C018C018C018C018C01EC1197AD7DEF9E
:10D420009384CC118C018C018C018C018C018C01BA
:10D430008C018B012D22304BF26B537CB48494848D
:10D440005374B15BCF3ACC118C018C018C018C01EF
:10D450008C018C018C01AC0170531CE79ACE8E328A
:10D460008C018C018C018C018C018C018C01EF42B0
:10D470003DE7FFFFFFFFFFFFFFFFFFFFFFFFFFFF96
:10D48000FFFFFFFFFFFFFFFFFFFFFFFFFFFFFFFFAC
:10D49000FFFFFFFFFFFFFFFFFFFFFFFFFFFFFFFF9C
:10D4A000FFFFFFFFFFFFFFFFFFFFFFFFFFFFFFFF8C
:10D4B000FFFFFFFFFFFFFFFFFFFFFFFFFFFFFFFF7C
:10D4C000FFFFFFFFFFFFFFFFFFFFFFFFFFFFFFFF6C
:10D4D000FFFFFFFFFFFFFFFFFFFFFFFFFFFFFFFF5C
:10D4E000FFFFFFFFFFFF718CC739718CFFFFFFFF4C
:10D4F000FFFFFFFFFFFFFFFFFFFFFFFFFFFFFFFF3C
:10D50000FFFFFFFFFFFFFFFFFFFFFFFFD7BDA631BC
:10D510000C63DFFFFFFFFFFFFFFFFFFFFFFFFFFFCA
:10D52000FFFFFFFFFFFFFFFFFFFFFFFFFFFFFFFF0B
:10D53000FFFFFFFFFFFFFFFFFFFFFFFFFFFFFFFFFB
:10D54000FFFFFFFFFFFFFFFFFFFFFFFFFFFFFFFFEB
:10D55000FFFFFFFFFFFFFFFFFFFFFFFFFFFFFFFFDB
:10D56000FFFFFFFFFFFFFFFFFFFFFFFFFFFFFFFFCB
:10D57000FFFFFFFFFFFFFFFFFFFFFFFFFFFFFFFFBB
:10D58000FFFFFFFFFFFFFFFFFFFFFFFFFFFFFFFFAB
:10D59000FFFFFFFFFFFFFFFFFFFFFFFFFFFFFFFF9B
:10D5A000FFFFFFFFFFFFFFFFFFFFFFFFFFFFFFFF8B
:10D5B000FFFFFFFFFFFFFFFFFFFFFFFFFFFFFFFF7B
:10D5C000FFFFFFFFFFFFFFFFFFFFFFFFFFFFFFFF6B
:10D5D000FFFFFFFFFFFFFFFFFFFFFFFFFFFFFFFF5B
:10D5E000FFFFFFFFFFFFFFFFFFFFFFFFFFFFFFFF4B
:10D5F000FFFFFFFFFFFFFFFFFFFFFFFFFFFFFFFF3B
:10D60000FFFFFFFFFFFFFFFFFFFFFFFFFFFFFFFF2A
:10D61000FFFFFFFFFFFFFFFFFFFFFFFFFFFFFFFF1A
:10D62000FFFFFFFFFFFFFFFFFFFFFFFFFFFFFFFF0A
:10D63000FFFFFFFFFFFFFFFFFFFFFFFFFFFFFFFFFA
:10D64000FFFFFFFFFFFFFFFFFFFFFFFFFFFFFFFFEA
:10D65000FFFFFFFFFFFFFFFFFFFFFFFFFFFFFFFFDA
:10D66000FFFFFFFFFFFFFFFFFFFFFFFFFFFFFFFFCA
:10D67000FFFFFFFFFFFFFFFFFFFFFFFFFFFFFFFFBA
:10D68000FFFFFFFFFFFFFFFFFFFFFFFFFFFFFFFFAA
:10D69000FFFFFFFFFFFFFFFFFFFFFFFFFFFFFFFF9A
:10D6A000FFFFFFFFFFFFFFFFFFFFFFFFFFFFFFFF8A
:10D6B000FFFFFFFFFFFFFFFFFFFFFFFFFFFF3CE755
:10D6C000929434A534A534A534A534A59294BAD641
:10D6D000FFFFFFFFFFFFFFFFFFFFFFFFFFFFFFFF5A
:10D6E000FFFFFFFFFFFFFFFFFFFFFFFFFFFFFFFF4A
:10D6F000FFFFFFFFFFFFFFFFFFFFFFFFFFFFFFFF3A
:10D70000FFFFFFFFFFFFFFFFFFFFFFFFFFFFFFFF29
:10D71000FFFFFFFFFFFFFFFFFFFFFFFFFFFFFFFF19
:10D72000FFFFFFFFFFFFFFFFFFFFFFFFFFFFFFFF09
:10D73000FFFFFFFFFFFFFFFFFFFFFFFFFFFFFFFFF9
:10D74000FFFFFFFFFFFFFFFFFFFFFFFFFFFFFFFFE9
:10D75000FFFFFFFFFFFF5DE7E312020302038733D2
:10D760001BDFFFFFFFFFFFFFFFFFFFFFFFFFFFFFCD
:10D77000FFFFFFFFFFFFFFFFFFFFFFFFFFFFFFFFB9
:10D78000FFFFCD64840CA40CA40CA40CA40C840C8A
:10D790008A447DEFFFFFFFFFFFFFFFFFFFFFFFFF5B
:10D7A000F6B5E2020203C20299C6FFFFFFFFFFFFC8
:10D7B000FFFF1595AC018C018C013274DFFFFFFF78
:10D7C000FFFFFFFFFFFFFFFF97ADCC118C018C0126
:10D7D0008C018C018C018C012D22B8AD1CDFB15B5A
:10D7E000AC098C018C018C018C018C018C018C01A9
:10D7F0008C01ED4A3DE77EEFDFFFFFFFFFFFFFFFFC
:10D80000FFFFBEF75DEFB8ADAB098C018C018C0159
:10D810008C018C018C018C018C01AE3A39C6BBD6CF
:10D820000F4B8C018C018C018C018C018C018C01C3
:10D830003274DFFFFFFFFFFFFFFFFFFFFFFFFFFF70
:10D84000FFFFFFFFFFFFFFFFFFFFFFFFFFFFFFFFE8
:10D85000FFFFFFFFFFFFFFFFFFFFFFFFFFFFFFFFD8
:10D86000FFFFFFFFFFFFFFFFFFFFFFFFFFFFFFFFC8
:10D87000FFFFFFFFFFFFFFFFFFFFFFFFFFFFFFFFB8
:10D88000FFFFFFFFFFFFFFFFFFFFFFFFFFFFFFFFA8
:10D89000FFFFFFFFFFFFFFFFFFFFFFFFFFFFFFFF98
:10D8A000FFFFFFFFFFFF718CC739718CFFFFFFFF88
:10D8B000FFFFFFFFFFFFFFFFFFFFFFFFFFFFFFFF78
:10D8C000FFFFFFFFFFFFFFFFFFFFFFFFD7BDA631F9
:10D8D0000C63DFFFFFFFFFFFFFFFFFFFFFFFFFFF07
:10D8E000FFFFFFFFFFFFFFFFFFFFFFFFFFFFFFFF48
:10D8F000FFFFFFFFFFFFFFFFFFFFFFFFFFFFFFFF38
:10D90000FFFFFFFFFFFFFFFFFFFFFFFFFFFFFFFF27
:10D91000FFFFFFFFFFFFFFFFFFFFFFFFFFFFFFFF17
:10D92000FFFFFFFFFFFFFFFFFFFFFFFFFFFFFFFF07
:10D93000FFFFFFFFFFFFFFFFFFFFFFFFFFFFFFFFF7
:10D94000FFFFFFFFFFFFFFFFFFFFFFFFFFFFFFFFE7
:10D95000FFFFFFFFFFFFFFFFFFFFFFFFFFFFFFFFD7
:10D96000FFFFFFFFFFFFFFFFFFFFFFFFFFFFFFFFC7
:10D97000FFFFFFFFFFFFFFFFFFFFFFFFFFFFFFFFB7
:10D98000FFFFFFFFFFFFFFFFFFFFFFFFFFFFFFFFA7
:10D99000FFFFFFFFFFFFFFFFFFFFFFFFFFFFFFFF97
:10D9A000FFFFFFFFFFFFFFFFFFFFFFFFFFFFFFFF87
:10D9B000FFFFFFFFFFFFFFFFFFFFFFFFFFFFFFFF77
:10D9C000FFFFFFFFFFFFFFFFFFFFFFFFFFFFFFFF67
:10D9D000FFFFFFFFFFFFFFFFFFFFFFFFFFFFFFFF57
:10D9E000FFFFFFFFFFFFFFFFFFFFFFFFFFFFFFFF47
:10D9F000FFFFFFFFFFFFFFFFFFFFFFFFFFFFFFFF37
:10DA0000FFFFFFFFFFFFFFFFFFFFFFFFFFFFFFFF26
:10DA1000FFFFFFFFFFFFFFFFFFFFFFFFFFFFFFFF16
:10DA2000FFFFFFFFFFFFFFFFFFFFFFFFFFFFFFFF06
:10DA3000FFFFFFFFFFFFFFFFFFFFFFFFFFFFFFFFF6
:10DA4000FFFFFFFFFFFFFFFFFFFFFFFFFFFFFFFFE6
:10DA5000FFFFFFFFFFFFFFFFFFFFFFFFFFFFFFFFD6
:10DA6000FFFFFFFFFFFFFFFFFFFFFFFFFFFFFFFFC6
:10DA7000FFFFFFFFFFFFFFFFFFFFFFFFFFFF1CE7B1
:10DA8000B29434A534A534A534A534A592949AD67D
:10DA9000FFFFFFFFFFFFFFFFFFFFFFFFFFFFFFFF96
:10DAA000FFFFFFFFFFFFFFFFFFFFFFFFFFFFFFFF86
:10DAB000FFFFFFFFFFFFFFFFFFFFFFFFFFFFFFFF76
:10DAC000FFFFFFFFFFFFFFFFFFFFFFFFFFFFFFFF66
:10DAD000FFFFFFFFFFFFFFFFFFFFFFFFFFFFFFFF56
:10DAE000FFFFFFFFFFFFFFFFFFFFFFFFFFFFFFFF46
:10DAF000FFFFFFFFFFFFFFFFFFFFFFFFFFFFFFFF36
:10DB0000FFFFFFFFFFFFFFFFFFFFFFFFFFFFFFFF25
:10DB1000FFFFFFFF1CE794A5E2020203452378C63E
:10DB2000FFFFFFFFFFFFFFFFFFFFFFFFFFFFFFFF05
:10DB3000FFFFFFFFFFFFFFFFFFFFFFFFFFFFFFFFF5
:10DB40001CE72514A40CA40CA40CA40CA40C893C64
:10DB50001AD7FFFFFFFFFFFFFFFFFFFFFFFFFFFFE2
:10DB6000539D0203020345231BDFFFFFFFFFFFFF5F
:10DB7000FFFFB7ADCC098C018C012C225DEFFFFFBC
:10DB8000FFFFFFFFFFFF5DEF4D2A8C018C018C0131
:10DB90008C018C018C01CC11F8B53CE70F438C0152
:10DBA0008C018C018C018C018B01AB098C018C01E7
:10DBB0008C016F63FFFFFFFFFFFFFFFFFFFFFFFF12
:10DBC000FFFFFFFFFFFF7AC6AB118C018C018B09B1
:10DBD0008B098C018C018C018C018C012D2239C6A2
:10DBE000FCDEAE328C018C018C018C018C018C012D
:10DBF000CC11D8B5FFFFFFFFFFFFFFFFFFFFFFFFC7
:10DC0000FFFFFFFFFFFFFFFFFFFFFFFFFFFFFFFF24
:10DC1000FFFFFFFFFFFFFFFFFFFFFFFFFFFFFFFF14
:10DC2000FFFFFFFFFFFFFFFFFFFFFFFFFFFFFFFF04
:10DC3000FFFFFFFFFFFFFFFFFFFFFFFFFFFFFFFFF4
:10DC4000FFFFFFFFFFFFFFFFFFFFFFFFFFFFFFFFE4
:10DC5000FFFFFFFFFFFFFFFFFFFFFFFFFFFFFFFFD4
:10DC6000FFFFFFFFFFFF718CC739718CFFFFFFFFC4
:10DC7000FFFFFFFFFFFFFFFFFFFFFFFFFFFFFFFFB4
:10DC8000FFFFFFFFFFFFFFFFFFFFFFFFD7BDA63135
:10DC90000C63DFFFFFFFFFFFFFFFFFFFFFFFFFFF43
:10DCA000FFFFFFFFFFFFFFFFFFFFFFFFFFFFFFFF84
:10DCB000FFFFFFFFFFFFFFFFFFFFFFFFFFFFFFFF74
:10DCC000FFFFFFFFFFFFFFFFFFFFFFFFFFFFFFFF64
:10DCD000FFFFFFFFFFFFFFFFFFFFFFFFFFFFFFFF54
:10DCE000FFFFFFFFFFFFFFFFFFFFFFFFFFFFFFFF44
:10DCF000FFFFFFFFFFFFFFFFFFFFFFFFFFFFFFFF34
:10DD0000FFFFFFFFFFFFFFFFFFFFFFFFFFFFFFFF23
:10DD1000FFFFFFFFFFFFFFFFFFFFFFFFFFFFFFFF13
:10DD2000FFFFFFFFFFFFFFFFFFFFFFFFFFFFFFFF03
:10DD3000FFFFFFFFFFFFFFFFFFFFFFFFFFFFFFFFF3
:10DD4000FFFFFFFFFFFFFFFFFFFFFFFFFFFFFFFFE3
:10DD5000FFFFFFFFFFFFFFFFFFFFFFFFFFFFFFFFD3
:10DD6000FFFFFFFFFFFFFFFFFFFFFFFFFFFFFFFFC3
:10DD7000FFFFFFFFFFFFFFFFFFFFFFFFFFFFFFFFB3
:10DD8000FFFFFFFFFFFFFFFFFFFFFFFFFFFFFFFFA3
:10DD9000FFFFFFFFFFFFFFFFFFFFFFFFFFFFFFFF93
:10DDA000FFFFFFFFFFFFFFFFFFFFFFFFFFFFFFFF83
:10DDB000FFFFFFFFFFFFFFFFFFFFFFFFFFFFFFFF73
:10DDC000FFFFFFFFFFFFFFFFFFFFFFFFFFFFFFFF63
:10DDD000FFFFFFFFFFFFFFFFFFFFFFFFFFFFFFFF53
:10DDE000FFFFFFFFFFFFFFFFFFFFFFFFFFFFFFFF43
:10DDF000FFFFFFFFFFFFFFFFFFFFFFFFFFFFFFFF33
:10DE0000FFFFFFFFFFFFFFFFFFFFFFFFFFFFFFFF22
:10DE1000FFFFFFFFFFFFFFFFFFFFFFFFFFFFFFFF12
:10DE2000FFFFFFFFFFFFFFFFFFFFFFFFFFFFFFFF02
:10DE3000FFFFFFFFFFFFFFFFFFFFFFFFFFFF1CE7ED
:10DE4000B29434A534A534A534A534A592949AD6B9
:10DE5000FFFFFFFFFFFFFFFFFFFFFFFFFFFFFFFFD2
:10DE6000FFFFFFFFFFFFFFFFFFFFFFFFFFFFFFFFC2
:10DE7000FFFFFFFFFFFFFFFFFFFFFFFFFFFFFFFFB2
:10DE8000FFFFFFFFFFFFFFFFFFFFFFFFFFFFFFFFA2
:10DE9000FFFFFFFFFFFFFFFFFFFFFFFFFFFFFFFF92
:10DEA000FFFFFFFFFFFFFFFFFFFFFFFFFFFFFFFF82
:10DEB000FFFFFFFFFFFFFFFFFFFFFFFFFFFFFFFF72
:10DEC000FFFFFFFFFFFFFFFFFFFFFFFFFFFFFFFF62
:10DED000FFFFFFFF57BEAA4B02032313B5A5FFFFA9
:10DEE000FFFFFFFFFFFFFFFFFFFFFFFFFFFFFFFF42
:10DEF000FFFFFFFFFFFFFFFFFFFFFFFFFFFFFFFF32
:10DF00009395840CA40CA40CA40C840C4624FAD67F
:10DF1000FFFFFFFFFFFFFFFFFFFFFFFFFFFFFFFF11
:10DF2000529502030203C83B5CE7FFFFFFFFFFFFC0
:10DF3000FFFF59C6ED118C018C018B0177ADFFFFFE
:10DF4000FFFFFFFFDFF733748C018C018C018C0124
:10DF50008C018C01CC11369D1CDF2F538C018C0160
:10DF60008C018C018C014D2276A5F8BD4D228C01CF
:10DF70008C01AF6BFFFFFFFFFFFFFFFFFFFFFFFF06
:10DF8000FFFFFFFFFFFF7ACECC118C01CC1156A50D
:10DF90007ACECE3AAC098C018C018C018C016D2AB1
:10DFA00039BE7ACE6E328C018C018C018C018C01D1
:10DFB0008C01EF423DE7FFFFFFFFFFFFFFFFFFFF89
:10DFC000FFFFFFFFFFFFFFFFFFFFFFFFFFFFFFFF61
:10DFD000FFFFFFFFFFFFFFFFFFFFFFFFFFFFFFFF51
:10DFE000FFFFFFFFFFFFFFFFFFFFFFFFFFFFFFFF41
:10DFF000FFFFFFFFFFFFFFFFFFFFFFFFFFFFFFFF31
:10E00000FFFFFFFFFFFFFFFFFFFFFFFFFFFFFFFF20
:10E01000FFFFFFFFFFFFFFFFFFFFFFFFFFFFFFFF10
:10E02000FFFFFFFFFFFF718CC739718CFFFFFFFF00
:10E03000FFFFFFFFFFFFFFFFFFFFFFFFFFFFFFFFF0
:10E04000FFFFFFFFFFFFFFFFFFFFFFFFD7BDA63171
:10E050000C63DFFFFFFFFFFFFFFFFFFFFFFFFFFF7F
:10E06000FFFFFFFFFFFFFFFFFFFFFFFFFFFFFFFFC0
:10E07000FFFFFFFFFFFFFFFFFFFFFFFFFFFFFFFFB0
:10E08000FFFFFFFFFFFFFFFFFFFFFFFFFFFFFFFFA0
:10E09000FFFFFFFFFFFFFFFFFFFFFFFFFFFFFFFF90
:10E0A000FFFFFFFFFFFFFFFFFFFFFFFFFFFFFFFF80
:10E0B000FFFFFFFFFFFFFFFFFFFFFFFFFFFFFFFF70
:10E0C000FFFFFFFFFFFFFFFFFFFFFFFFFFFFFFFF60
:10E0D000FFFFFFFFFFFFFFFFFFFFFFFFFFFFFFFF50
:10E0E000FFFFFFFFFFFFFFFFFFFFFFFFFFFFFFFF40
:10E0F000FFFFFFFFFFFFFFFFFFFFFFFFFFFFFFFF30
:10E10000FFFFFFFFFFFFFFFFFFFFFFFFFFFFFFFF1F
:10E11000FFFFFFFFFFFFFFFFFFFFFFFFFFFFFFFF0F
:10E12000FFFFFFFFFFFFFFFFFFFFFFFFFFFFFFFFFF
:10E13000FFFFFFFFFFFFFFFFFFFFFFFFFFFFFFFFEF
:10E14000FFFFFFFFFFFFFFFFFFFFFFFFFFFFFFFFDF
:10E15000FFFFFFFFFFFFFFFFFFFFFFFFFFFFFFFFCF
:10E16000FFFFFFFFFFFFFFFFFFFFFFFFFFFFFFFFBF
:10E17000FFFFFFFFFFFFFFFFFFFFFFFFFFFFFFFFAF
:10E18000FFFFFFFFFFFFFFFFFFFFFFFFFFFFFFFF9F
:10E19000FFFFFFFFFFFFFFFFFFFFFFFFFFFFFFFF8F
:10E1A000FFFFFFFFFFFFFFFFFFFFFFFFFFFFFFFF7F
:10E1B000FFFFFFFFFFFFFFFFFFFFFFFFFFFFFFFF6F
:10E1C000FFFFFFFFFFFFFFFFFFFFFFFFFFFFFFFF5F
:10E1D000FFFFFFFFFFFFFFFFFFFFFFFFFFFFFFFF4F
:10E1E000FFFFFFFFFFFFFFFFFFFFBEF779CE5DEFF1
:10E1F000FFFFFFFFFFFFFFFFFFFFFFFFFFFF1CE72A
:10E20000B29434A534A534A534A534A592949AD6F5
:10E21000FFFFFFFFFFFFFFFFFFFFFFFFFFFF7DEFA0
:10E2200079CE7DEFFFFFFFFFFFFFFFFFFFFFFFFF47
:10E23000FFFFFFFFFFFFFFFFFFFFFFFFFFFFFFFFEE
:10E24000FFFFFFFFFFFFFFFFFFFFFFFFFFFFFFFFDE
:10E25000FFFFFFFFFFFFFFFFFFFFFFFFFFFFFFFFCE
:10E26000FFFFFFFFFFFFFFFFFFFFFFFFFFFFFFFFBE
:10E27000FFFFFFFFFFFFFFFFFFFFFFFFFFFFFFFFAE
:10E28000FFFFFFFFFFFFFFFFFFFFFFFFFFFFFFFF9E
:10E29000FFFFFFFFD49D830AE2028E74DFFFFFFFC2
:10E2A000FFFFFFFFFFFFFFFFFFFFFFFFFFFFFFFF7E
:10E2B000FFFFFFFFFFFFFFFFFFFFFFFFFFFFBEF7B7
:10E2C0000C5D840CA40CA40CA40C451CF4A5FFFF4D
:10E2D000FFFFFFFFFFFFFFFFFFFFFFFFFFFFFFFF4E
:10E2E000949D020302034B549EF7FFFFFFFFFFFFC5
:10E2F000FFFFDBDE0D1A8C018C018C015053DFFF18
:10E30000FFFFFFFF9ACE2D1A8C018C018C018C012E
:10E310008C018C0132747DEF915B8C018C018C013E
:10E320008C018C010F4B7ACEFFFFFFFF39C62D22E7
:10E330008C01AF6BFFFFFFFFFFFFFFFFFFFFFFFF42
:10E34000FFFFFFFFFFFF7ACECC11CC11159DFFFF21
:10E35000FFFF5DE7537C6B018C018C018C018C010C
:10E360008E321CE7D8B5AB098C018C018C018C0175
:10E370008C018B01369DFFFFFFFFFFFFFFFFFFFFBB
:10E38000FFFFFFFFFFFFFFFFFFFFFFFFFFFFFFFF9D
:10E39000FFFFFFFFFFFFFFFFFFFFFFFFFFFFFFFF8D
:10E3A000FFFFFFFFFFFFFFFFFFFFFFFFFFFFFFFF7D
:10E3B000FFFFFFFFFFFFFFFFFFFFFFFFFFFFFFFF6D
:10E3C000FFFFFFFFFFFFFFFFFFFFFFFFFFFFFFFF5D
:10E3D000FFFFFFFFFFFFFFFFFFFFFFFFFFFFFFFF4D
:10E3E000FFFFFFFFFFFF718CC739718CFFFFFFFF3D
:10E3F000FFFFFFFFFFFFFFFFFFFFFFFFFFFFFFFF2D
:10E40000FFFFFFFFFFFFFFFFFFFFFFFFD7BDA631AD
:10E410000C63DFFFFFFFFFFFFFFFFFFFFFFFFFFFBB
:10E42000FFFFFFFFFFFFFFFFFFFFFFFFFFFFFFFFFC
:10E43000FFFFFFFFFFFFFFFFFFFFFFFFFFFFFFFFEC
:10E44000FFFFFFFFFFFFFFFFFFFFFFFFFFFFFFFFDC
:10E45000FFFFFFFFFFFFFFFFFFFFFFFFFFFFFFFFCC
:10E46000FFFFFFFFFFFFFFFFFFFFFFFFFFFFFFFFBC
:10E47000FFFFFFFFFFFFFFFFFFFFFFFFFFFFFFFFAC
:10E48000FFFFFFFFFFFFFFFFFFFFFFFFFFFFFFFF9C
:10E49000FFFFFFFFFFFFFFFFFFFFFFFFFFFFFFFF8C
:10E4A000FFFFFFFFFFFFFFFFFFFFFFFFFFFFFFFF7C
:10E4B000FFFFFFFFFFFFFFFFFFFFFFFFFFFFFFFF6C
:10E4C000FFFFFFFFFFFFFFFFFFFFFFFFFFFFFFFF5C
:10E4D000FFFFFFFFFFFFFFFFFFFFFFFFFFFFFFFF4C
:10E4E000FFFFFFFFFFFFFFFFFFFFFFFFFFFFFFFF3C
:10E4F000FFFFFFFFFFFFFFFFFFFFFFFFFFFFFFFF2C
:10E50000FFFFFFFFFFFFFFFFFFFFFFFFFFFFFFFF1B
:10E51000FFFFFFFFFFFFFFFFFFFFFFFFFFFFFFFF0B
:10E52000FFFFFFFFFFFFFFFFFFFFFFFFFFFFFFFFFB
:10E53000FFFFFFFFFFFFFFFFFFFFFFFFFFFFFFFFEB
:10E54000FFFFFFFFFFFFFFFFFFFFFFFFFFFFFFFFDB
:10E55000FFFFFFFFFFFFFFFFFFFFFFFFFFFFFFFFCB
:10E56000FFFFFFFFFFFFFFFFFFFFFFFFFFFFFFFFBB
:10E57000FFFFFFFFFFFFFFFFFFFFFFFFFFFFFFFFAB
:10E58000FFFFFFFFFFFFFFFFFFFFFFFFFFFFFFFF9B
:10E59000FFFFFFFFFFFFFFFFFFFFFFFFFFFFFFFF8B
:10E5A000FFFFFFFFFFFFFFFF9EF775ADB294F39CE7
:10E5B0005DEFFFFFFFFFFFFFFFFFDFFF79CE75ADD0
:10E5C000D39C34A534A534A534A534A5D39C34A557
:10E5D00038C67DEFFFFFFFFFFFFFFFFF7DEF55AD6B
:10E5E000929414A55DEFFFFFFFFFFFFFFFFFFFFF0A
:10E5F000FFFFFFFFFFFFFFFFFFFFFFFFFFFFFFFF2B
:10E60000FFFFFFFFFFFFFFFFFFFFFFFFFFFFFFFF1A
:10E61000FFFFFFFFFFFFFFFFFFFFFFFFFFFFFFFF0A
:10E62000FFFFFFFFFFFFFFFFFFFFFFFFFFFFFFFFFA
:10E63000FFFFFFFFFFFFFFFFFFFFFFFFFFFFFFFFEA
:10E64000FFFFFFFFFFFFFFFFFFFFFFFFFFFFFFFFDA
:10E65000FFFFFFFF149EE202CA4B3CE7FFFFFFFFF4
:10E66000FFFFFFFFFFFFFFFFFFFFFFFFFFFFFFFFBA
:10E67000FFFFFFFFFFFFFFFFFFFFFFFFFFFF1BDFAE
:10E68000A834A40CA40CA40C640C7185DFFFFFFF5C
:10E69000FFFFFFFFFFFFFFFFFFFFFFFFFFFFFFFF8A
:10E6A00037BEE2020203AE6CDFFFFFFFFFFFFFFF9A
:10E6B000FFFF9EF72D228C018C018C012D229ACE1A
:10E6C000FFFFFFFFD1638C018C018C018C018C0159
:10E6D0008C018E3A7DEFF4948B018C018C018C01BE
:10E6E000AC01905B7DEFFFFFFFFFFFFFFFFF7ACEE6
:10E6F0006D2AAF6BFFFFFFFFFFFFFFFFFFFFFFFF75
:10E70000FFFFFFFFFFFF7ACE2C2AB7ADDFFFFFFF31
:10E71000FFFFFFFFDFFFD48CEC118C018C018C011B
:10E720008C01705B3CE7537CAC018C018C018C014B
:10E730008C018C016D2A3DE7FFFFFFFFFFFFFFFF0C
:10E74000FFFFFFFFFFFFFFFFFFFFFFFFFFFFFFFFD9
:10E75000FFFFFFFFFFFFFFFFFFFFFFFFFFFFFFFFC9
:10E76000FFFFFFFFFFFFFFFFFFFFFFFFFFFFFFFFB9
:10E77000FFFFFFFFFFFFFFFFFFFFFFFFFFFFFFFFA9
:10E78000FFFFFFFFFFFFFFFFFFFFFFFFFFFFFFFF99
:10E79000FFFFFFFFFFFFFFFFFFFFFFFFFFFFFFFF89
:10E7A000FFFFFFFFFFFF718CC739718CFFFFFFFF79
:10E7B000FFFFFFFFFFFFFFFFFFFFFFFFFFFFFFFF69
:10E7C000FFFFFFFFFFFFFFFFFFFFFFFFD7BDA631EA
:10E7D0000C63DFFFFFFFFFFFFFFFFFFFFFFFFFFFF8
:10E7E000FFFFFFFFFFFFFFFFFFFFFFFFFFFFFFFF39
:10E7F000FFFFFFFFFFFFFFFFFFFFFFFFFFFFFFFF29
:10E80000FFFFFFFFFFFFFFFFFFFFFFFFFFFFFFFF18
:10E81000FFFFFFFFFFFFFFFFFFFFFFFFFFFFFFFF08
:10E82000FFFFFFFFFFFFFFFFFFFFFFFFFFFFFFFFF8
:10E83000FFFFFFFFFFFFFFFFFFFFFFFFFFFFFFFFE8
:10E84000FFFFFFFFFFFFFFFFFFFFFFFFFFFFFFFFD8
:10E85000FFFFFFFFFFFFFFFFFFFFFFFFFFFFFFFFC8
:10E86000FFFFFFFFFFFFFFFFFFFFFFFFFFFFFFFFB8
:10E87000FFFFFFFFFFFFFFFFFFFFFFFFFFFFFFFFA8
:10E88000FFFFFFFFFFFFFFFFFFFFFFFFFFFFFFFF98
:10E89000FFFFFFFFFFFFFFFFFFFFFFFFFFFFFFFF88
:10E8A000FFFFFFFFFFFFFFFFFFFFFFFFFFFFFFFF78
:10E8B000FFFFFFFFFFFFFFFFFFFFFFFFFFFFFFFF68
:10E8C000FFFFFFFFFFFFFFFFFFFFFFFFFFFFFFFF58
:10E8D000FFFFFFFFFFFFFFFFFFFFFFFFFFFFFFFF48
:10E8E000FFFFFFFFFFFFFFFFFFFFFFFFFFFFFFFF38
:10E8F000FFFFFFFFFFFFFFFFFFFFFFFFFFFFFFFF28
:10E90000FFFFFFFFFFFFFFFFFFFFFFFFFFFFFFFF17
:10E91000FFFFFFFFFFFFFFFFFFFFFFFFFFFFFFFF07
:10E92000FFFFFFFFFFFFFFFFFFFFFFFFFFFFFFFFF7
:10E93000FFFFFFFFFFFFFFFFFFFFFFFFFFFFFFFFE7
:10E94000FFFFFFFFFFFFFFFFFFFFFFFFFFFFFFFFD7
:10E95000FFFFFFFFFFFFFFFFFFFFFFFFFFFFFFFFC7
:10E96000FFFFFFFFFFFF9EF755ADD39C34A514A515
:10E97000F39C1CE7DFFF5DEFB6B5B29414A514A5B8
:10E9800014A534A534A534A534A534A534A514A5FF
:10E9900014A5B29475ADFBDEDFFF7DEF34A5F39CCB
:10E9A00034A5F39C14A55DEFFFFFFFFFFFFFFFFF02
:10E9B000FFFFFFFFFFFFFFFFFFFFFFFFFFFFFFFF67
:10E9C000FFFFFFFFFFFFFFFFFFFFFFFFFFFFFFFF57
:10E9D000FFFFFFFFFFFFFFFFFFFFFFFFFFFFFFFF47
:10E9E000FFFFFFFFFFFFFFFFFFFFFFFFFFFFFFFF37
:10E9F000FFFFFFFFFFFFFFFFFFFFFFFFFFFFFFFF27
:10EA0000FFFFFFFFFFFFFFFFFFFFFFFFFFFFFFFF16
:10EA1000FFFFFFFFF49DE31258C6FFFFFFFFFFFF5C
:10EA2000FFFFFFFFFFFFFFFFFFFFFFFFFFFFFFFFF6
:10EA3000FFFFFFFFFFFFFFFFFFFFFFFFFFFFD9CE3D
:10EA4000451CA40CA40C840C8A449EF7FFFFFFFF16
:10EA5000FFFFFFFFFFFFFFFFFFFFFFFFFFFFFFFFC6
:10EA60003BDFC20A0203F07CFFFFFFFFFFFFFFFF57
:10EA7000FFFFFFFF6D2A8C018C018C018C01159525
:10EA8000FFFFFBDEEC118C018C018C018C018C01F1
:10EA9000EC11B8AD7AC62D228C018C018C018C0151
:10EAA000705B5DE7FFFFFFFFFFFFFFFFFFFFFFFF63
:10EAB0007AC635A5FFFFFFFFFFFF9EF73CE75DEF3E
:10EAC000DFFFFFFFFFFF1CE7D7B5FFFFFFFFFFFFE3
:10EAD000FFFFFFFFFFFFBEF715956B018C018C0157
:10EAE0008C01AC09F5941CDF8E328C018C018C01F9
:10EAF0008C018C01AC09369DFFFFFFFFFFFFFFFF7C
:10EB0000FFFFFFFFFFFFFFFFFFFFFFFFFFFFFFFF15
:10EB1000FFFFFFFFFFFFFFFFFFFFFFFFFFFFFFFF05
:10EB2000FFFFFFFFFFFFFFFFFFFFFFFFFFFFFFFFF5
:10EB3000FFFFFFFFFFFFFFFFFFFFFFFFFFFFFFFFE5
:10EB4000FFFFFFFFFFFFFFFFFFFFFFFFFFFFFFFFD5
:10EB5000FFFFFFFFFFFFFFFFFFFFFFFFFFFFFFFFC5
:10EB6000FFFFFFFFFFFF718CC739718CFFFFFFFFB5
:10EB7000FFFFFFFFFFFFFFFFFFFFFFFFFFFFFFFFA5
:10EB8000FFFFFFFFFFFFFFFFFFFFFFFFD7BDA63126
:10EB90000C63DFFFFFFFFFFFFFFFFFFFFFFFFFFF34
:10EBA000FFFFFFFFFFFFFFFFFFFFFFFFFFFFFFFF75
:10EBB000FFFFFFFFFFFFFFFFFFFFFFFFFFFFFFFF65
:10EBC000FFFFFFFFFFFFFFFFFFFFFFFFFFFFFFFF55
:10EBD000FFFFFFFFFFFFFFFFFFFFFFFFFFFFFFFF45
:10EBE000FFFFFFFFFFFFFFFFFFFFFFFFFFFFFFFF35
:10EBF000FFFFFFFFFFFFFFFFFFFFFFFFFFFFFFFF25
:10EC0000FFFFFFFFFFFFFFFFFFFFFFFFFFFFFFFF14
:10EC1000FFFFFFFFFFFFFFFFFFFFFFFFFFFFFFFF04
:10EC2000FFFFFFFFFFFFFFFFFFFFFFFFFFFFFFFFF4
:10EC3000FFFFFFFFFFFFFFFFFFFFFFFFFFFFFFFFE4
:10EC4000FFFFFFFFFFFFFFFFFFFFFFFFFFFFFFFFD4
:10EC5000FFFFFFFFFFFFFFFFFFFFFFFFFFFFFFFFC4
:10EC6000FFFFFFFFFFFFFFFFFFFFFFFFFFFFFFFFB4
:10EC7000FFFFFFFFFFFFFFFFFFFFFFFFFFFFFFFFA4
:10EC8000FFFFFFFFFFFFFFFFFFFFFFFFFFFFFFFF94
:10EC9000FFFFFFFFFFFFFFFFFFFFFFFFFFFFFFFF84
:10ECA000FFFFFFFFFFFFFFFFFFFFFFFFFFFFFFFF74
:10ECB000FFFFFFFFFFFFFFFFFFFFFFFFFFFFFFFF64
:10ECC000FFFFFFFFFFFFFFFFFFFFFFFFFFFFFFFF54
:10ECD000FFFFFFFFFFFFFFFFFFFFFFFFFFFFFFFF44
:10ECE000FFFFFFFFFFFFFFFFFFFFFFFFFFFFFFFF34
:10ECF000FFFFFFFFFFFFFFFFFFFFFFFFFFFFFFFF24
:10ED0000FFFFFFFFFFFFFFFFFFFFFFFFFFFFFFFF13
:10ED1000FFFFFFFFFFFFFFFFFFFFFFFFFFFFFFFF03
:10ED2000FFFFFFFFBEF775ADD39C34A534A534A516
:10ED3000F39CD39C96B5F39CF39C34A534A534A5E1
:10ED400034A534A534A534A534A534A534A534A5FB
:10ED500034A534A5F39CD39C75AD14A5F39C34A5C0
:10ED600034A534A5F39C34A55DEFFFFFFFFFFFFF43
:10ED7000FFFFFFFFFFFFFFFFFFFFFFFFFFFFFFFFA3
:10ED8000FFFFFFFFFFFFFFFFFFFFFFFFFFFFFFFF93
:10ED9000FFFFFFFFFFFFFFFFFFFFFFFFFFFFFFFF83
:10EDA000FFFFFFFFFFFFFFFFFFFFFFFFFFFFFFFF73
:10EDB000FFFFFFFFFFFFFFFFFFFFFFFFFFFFFFFF63
:10EDC000FFFFFFFFFFFFFFFFFFFFFFFFFFFFFFFF53
:10EDD000FFFFFFFFFBD694A5FFFFFFFFFFFFFFFF35
:10EDE000FFFFFFFFFFFFFFFFFFFFFFFFFFFFFFFF33
:10EDF000FFFFFFFFFFFFFFFFFFFFFFFFFFFF35AE3E
:10EE0000430CA40CA40C8834D9CEFFFFFFFFFFFFF6
:10EE1000FFFFFFFFFFFFFFFFFFFFFFFFFFFFFFFF02
:10EE20009DEF87330203318DFFFFFFFFFFFFFFFFE1
:10EE3000FFFFFFFF0F4B8C018C018C018C010F43F6
:10EE40009EF7737C8C018C018C018C018C018C01F0
:10EE5000D16B9EEF0F438C018C018C018C01CE3A5B
:10EE60007DEFFFFFFFFFFFFFFFFFFFFFFFFFFFFF44
:10EE7000DFFFFBDED8B5F16B0E4BCE42EF4ACE4240
:10EE8000AD424F5B93847ACE9EF7FFFFFFFFFFFFFB
:10EE9000FFFFFFFFFFFFFFFFDFFF3374AC098C01B3
:10EEA0008C018C010C1ADBDE97A58C018C018C0186
:10EEB0008C018C018C010F437DEFFFFFFFFFFFFFF3
:10EEC000FFFFFFFFFFFFFFFFFFFFFFFFFFFFFFFF52
:10EED000FFFFFFFFFFFFFFFFFFFFFFFFFFFFFFFF42
:10EEE000FFFFFFFFFFFFFFFFFFFFFFFFFFFFFFFF32
:10EEF000FFFFFFFFFFFFFFFFFFFFFFFFFFFFFFFF22
:10EF0000FFFFFFFFFFFFFFFFFFFFFFFFFFFFFFFF11
:10EF1000FFFFFFFFFFFFFFFFFFFFFFFFFFFFFFFF01
:10EF2000FFFFFFFFFFFF718CC739718CFFFFFFFFF1
:10EF3000FFFFFFFFFFFFFFFFFFFFFFFFFFFFFFFFE1
:10EF4000FFFFFFFFFFFFFFFFFFFFFFFFD7BDA63162
:10EF50000C63DFFFFFFFFFFFFFFFFFFFFFFFFFFF70
:10EF6000FFFFFFFFFFFFFFFFFFFFFFFFFFFFFFFFB1
:10EF7000FFFFFFFFFFFFFFFFFFFFFFFFFFFFFFFFA1
:10EF8000FFFFFFFFFFFFFFFFFFFFFFFFFFFFFFFF91
:10EF9000FFFFFFFFFFFFFFFFFFFFFFFFFFFFFFFF81
:10EFA000FFFFFFFFFFFFFFFFFFFFFFFFFFFFFFFF71
:10EFB000FFFFFFFFFFFFFFFFFFFFFFFFFFFFFFFF61
:10EFC000FFFFFFFFFFFFFFFFFFFFFFFFFFFFFFFF51
:10EFD000FFFFFFFFFFFFFFFFFFFFFFFFFFFFFFFF41
:10EFE000FFFFFFFFFFFFFFFFFFFFFFFFFFFFFFFF31
:10EFF000FFFFFFFFFFFFFFFFFFFFFFFFFFFFFFFF21
:10F00000FFFFFFFFFFFFFFFFFFFFFFFFFFFFFFFF10
:10F01000FFFFFFFFFFFFFFFFFFFFFFFFFFFFFFFF00
:10F02000FFFFFFFFFFFFFFFFFFFFFFFFFFFFFFFFF0
:10F03000FFFFFFFFFFFFFFFFFFFFFFFFFFFFFFFFE0
:10F04000FFFFFFFFFFFFFFFFFFFFFFFFFFFFFFFFD0
:10F05000FFFFFFFFFFFFFFFFFFFFFFFFFFFFFFFFC0
:10F06000FFFFFFFFFFFFFFFFFFFFFFFFFFFFFFFFB0
:10F07000FFFFFFFFFFFFFFFFFFFFFFFFFFFFFFFFA0
:10F08000FFFFFFFFFFFFFFFFFFFFFFFFFFFFFFFF90
:10F09000FFFFFFFFFFFFFFFFFFFFFFFFFFFFFFFF80
:10F0A000FFFFFFFFFFFFFFFFFFFFFFFFFFFFFFFF70
:10F0B000FFFFFFFFFFFFFFFFFFFFFFFFFFFFFFFF60
:10F0C000FFFFFFFFFFFFFFFFFFFFFFFFFFFFFFFF50
:10F0D000FFFFFFFFFFFFFFFFFFFFFFFFFFFFFFFF40
:10F0E000FFFF5DEF55ADF39C34A534A534A534A5E1
:10F0F00034A514A514A514A534A534A534A534A5A8
:10F1000034A534A534A534A534A534A534A534A537
:10F1100034A534A534A534A514A514A534A534A567
:10F1200034A534A534A514A514A55DEFFFFFFFFF9A
:10F13000FFFFFFFFFFFFFFFFFFFFFFFFFFFFFFFFDF
:10F14000FFFFFFFFFFFFFFFFFFFFFFFFFFFFFFFFCF
:10F15000FFFFFFFFFFFFFFFFFFFFFFFFFFFFFFFFBF
:10F16000FFFFFFFFFFFFFFFFFFFFFFFFFFFFFFFFAF
:10F17000FFFFFFFFFFFFFFFFFFFFFFFFFFFFFFFF9F
:10F18000FFFFFFFFFFFFFFFFFFFFFFFFFFFFFFFF8F
:10F19000FFFFFFFFFFFFFFFFFFFFFFFFFFFFFFFF7F
:10F1A000FFFFFFFFFFFFFFFFFFFFFFFFFFFFFFFF6F
:10F1B000FFFFFFFFFFFFFFFFFFFFFFFFFFFFB28D1E
:10F1C000640CA40C640CB49DFFFFFFFFFFFFFFFF66
:10F1D000FFFFFFFFFFFFFFFFFFFFFFFFFFFFFFFF3F
:10F1E000DFFFAE6C02037395FFFFFFFFFFFFFFFF22
:10F1F000FFFFFFFFD1638C018C018C018C018B0917
:10F2000039C6CF3A8C018C018C018C018C018B01A9
:10F21000BBD618BE8B018C018C018C010D1A39C62E
:10F22000FFFFFFFFFFFFFFFFFFFFFFFFFFFF7DEF80
:10F230009384AD426F5B569D7ACE1CE77DEF5DEF08
:10F24000FBDE19BED48CEE4A905BDBDEFFFFFFFFD6
:10F25000FFFFFFFFFFFFFFFFFFFF3DE7EF428C01D6
:10F260008C018C018C0133745DE7AE328C018C0112
:10F270008C018C018C01AB097AC6FFFFFFFFFFFFF9
:10F28000FFFFFFFFFFFFFFFFFFFFFFFFFFFFFFFF8E
:10F29000FFFFFFFFFFFFFFFFFFFFFFFFFFFFFFFF7E
:10F2A000FFFFFFFFFFFFFFFFFFFFFFFFFFFFFFFF6E
:10F2B000FFFFFFFFFFFFFFFFFFFFFFFFFFFFFFFF5E
:10F2C000FFFFFFFFFFFFFFFFFFFFFFFFFFFFFFFF4E
:10F2D000FFFFFFFFFFFFFFFFFFFFFFFFFFFFFFFF3E
:10F2E000FFFFFFFFFFFF718CC739718CFFFFFFFF2E
:10F2F000FFFFFFFFFFFFFFFFFFFFFFFFFFFFFFFF1E
:10F30000FFFFFFFFFFFFFFFFFFFFFFFFD7BDA6319E
:10F310000C63DFFFFFFFFFFFFFFFFFFFFFFFFFFFAC
:10F32000FFFFFFFFFFFFFFFFFFFFFFFFFFFFFFFFED
:10F33000FFFFFFFFFFFFFFFFFFFFFFFFFFFFFFFFDD
:10F34000FFFFFFFFFFFFFFFFFFFFFFFFFFFFFFFFCD
:10F35000FFFFFFFFFFFFFFFFFFFFFFFFFFFFFFFFBD
:10F36000FFFFFFFFFFFFFFFFFFFFFFFFFFFFFFFFAD
:10F37000FFFFFFFFFFFFFFFFFFFFFFFFFFFFFFFF9D
:10F38000FFFFFFFFFFFFFFFFFFFFFFFFFFFFFFFF8D
:10F39000FFFFFFFFFFFFFFFFFFFFFFFFFFFFFFFF7D
:10F3A000FFFFFFFFFFFFFFFFFFFFFFFFFFFFFFFF6D
:10F3B000FFFFFFFFFFFFFFFFFFFFFFFFFFFFFFFF5D
:10F3C000FFFFFFFFFFFFFFFFFFFFFFFFFFFFFFFF4D
:10F3D000FFFFFFFFFFFFFFFFFFFFFFFFFFFFFFFF3D
:10F3E000FFFFFFFFFFFFFFFFFFFFFFFFFFFFFFFF2D
:10F3F000FFFFFFFFFFFFFFFFFFFFFFFFFFFFFFFF1D
:10F40000FFFFFFFFFFFFFFFFFFFFFFFFFFFFFFFF0C
:10F41000FFFFFFFFFFFFFFFFFFFFFFFFFFFFFFFFFC
:10F42000FFFFFFFFFFFFFFFFFFFFFFFFFFFFFFFFEC
:10F43000FFFFFFFFFFFFFFFFFFFFFFFFFFFFFFFFDC
:10F44000FFFFFFFFFFFFFFFFFFFFFFFFFFFFFFFFCC
:10F45000FFFFFFFFFFFFFFFFFFFFFFFFFFFFFFFFBC
:10F46000FFFFFFFFFFFFFFFFFFFFFFFFFFFFFFFFAC
:10F47000FFFFFFFFFFFFFFFFFFFFFFFFFFFFFFFF9C
:10F48000FFFFFFFFFFFFFFFFFFFFFFFFFFFFFFFF8C
:10F49000FFFFFFFFFFFFFFFFFFFFFFFFFFFFFFFF7C
:10F4A000FFFF34A5B29434A534A534A534A534A502
:10F4B00034A534A534A534A534A534A534A534A584
:10F4C00034A534A534A534A534A534A534A534A574
:10F4D00034A534A534A534A534A534A534A534A564
:10F4E00034A534A534A534A5F39CF7BDFFFFFFFF79
:10F4F000FFFFFFFFFFFFFFFFFFFFFFFFFFFFFFFF1C
:10F50000FFFFFFFFFFFFFFFFFFFFFFFFFFFFFFFF0B
:10F51000FFFFFFFFFFFFFFFFFFFFFFFFFFFFFFFFFB
:10F52000FFFFFFFFFFFFFFFFFFFFFFFFFFFFFFFFEB
:10F53000FFFFFFFFFFFFFFFFFFFFFFFFFFFFFFFFDB
:10F54000FFFFFFFFFFFFFFFFFFFFFFFFFFFFFFFFCB
:10F55000FFFFFFFFFFFFFFFFFFFFFFFFFFFFFFFFBB
:10F56000FFFFFFFFFFFFFFFFFFFFFFFFFFFFFFFFAB
:10F57000FFFFFFFFFFFFFFFFFFFFFFFFFFFF2F75F5
:10F58000A40C840CCC54DFFFFFFFFFFFFFFFFFFF45
:10F59000FFFFFFFFFFFFFFFFFFFFFFFFFFFFFFFF7B
:10F5A000FFFFF6AD241BB49DFFFFFFFFFFFFFFFF32
:10F5B000FFFFFFFF737C8C018C018C018C018C019F
:10F5C000EE4A8B098C018C018C018C018C017053EB
:10F5D0007DEF2F4B8C018C018C018C019384FFFFFC
:10F5E000FFFFFFFFFFFFFFFFFFFFFFFF39C6EE4AF0
:10F5F000527C1CE7DFFFFFFFFFFFFFFF1CE79EF7CA
:10F60000FFFFFFFFFFFF9EF756A5EE421595DFFFB8
:10F61000FFFFFFFFFFFFFFFFFFFFFFFF9ACE6A0123
:10F620008C018C018C010D1A9ACE369DAC098C018F
:10F630008C018C018C018C013274FFFFFFFFFFFFF6
:10F64000FFFFFFFFFFFFFFFFFFFFFFFFFFFFFFFFCA
:10F65000FFFFFFFFFFFFFFFFFFFFFFFFFFFFFFFFBA
:10F66000FFFFFFFFFFFFFFFFFFFFFFFFFFFFFFFFAA
:10F67000FFFFFFFFFFFFFFFFFFFFFFFFFFFFFFFF9A
:10F68000FFFFFFFFFFFFFFFFFFFFFFFFFFFFFFFF8A
:10F69000FFFFFFFFFFFFFFFFFFFFFFFFFFFFFFFF7A
:10F6A000FFFFFFFFFFFF718CC739718CFFFFFFFF6A
:10F6B000FFFFFFFFFFFFFFFFFFFFFFFFFFFFFFFF5A
:10F6C000FFFFFFFFFFFFFFFFFFFFFFFFD7BDA631DB
:10F6D0000C63DFFFFFFFFFFFFFFFFFFFFFFFFFFFE9
:10F6E000FFFFFFFFFFFFFFFFFFFFFFFFFFFFFFFF2A
:10F6F000FFFFFFFFFFFFFFFFFFFFFFFFFFFFFFFF1A
:10F70000FFFFFFFFFFFFFFFFFFFFFFFFFFFFFFFF09
:10F71000FFFFFFFFFFFFFFFFFFFFFFFFFFFFFFFFF9
:10F72000FFFFFFFFFFFFFFFFFFFFFFFFFFFFFFFFE9
:10F73000FFFFFFFFFFFFFFFFFFFFFFFFFFFFFFFFD9
:10F74000FFFFFFFFFFFFFFFFFFFFFFFFFFFFFFFFC9
:10F75000FFFFFFFFFFFFFFFFFFFFFFFFFFFFFFFFB9
:10F76000FFFFFFFFFFFFFFFFFFFFFFFFFFFFFFFFA9
:10F77000FFFFFFFFFFFFFFFFFFFFFFFFFFFFFFFF99
:10F78000FFFFFFFFFFFFFFFFFFFFFFFFFFFFFFFF89
:10F79000FFFFFFFFFFFFFFFFFFFFFFFFFFFFFFFF79
:10F7A000FFFFFFFFFFFFFFFFFFFFFFFFFFFFFFFF69
:10F7B000FFFFFFFFFFFFFFFFFFFFFFFFFFFFFFFF59
:10F7C000FFFFFFFFFFFFFFFFFFFFFFFFFFFFFFFF49
:10F7D000FFFFFFFFFFFFFFFFFFFFFFFFFFFFFFFF39
:10F7E000FFFFFFFFFFFFFFFFFFFFFFFFFFFFFFFF29
:10F7F000FFFFFFFFFFFFFFFFFFFFFFFFFFFFFFFF19
:10F80000FFFFFFFFFFFFFFFFFFFFFFFFFFFFFFFF08
:10F81000FFFFFFFFFFFFFFFFFFFFFFFFFFFFFFFFF8
:10F82000FFFFFFFFFFFFFFFFFFFFFFFFFFFFFFFFE8
:10F83000FFFFFFFFFFFFFFFFFFFFFFFFFFFFFFFFD8
:10F84000FFFFFFFFFFFFFFFFFFFFFFFFFFFFFFFFC8
:10F85000FFFFFFFFFFFFFFFFFFFFFFFFFFFFFFFFB8
:10F86000FFFFBEF755ADF39C34A534A534A534A5F0
:10F8700034A534A534A534A534A534A534A534A5C0
:10F8800034A534A534A534A534A534A534A534A5B0
:10F8900034A534A534A534A534A534A534A534A5A0
:10F8A00034A534A534A514A534A59EF7FFFFFFFFAA
:10F8B000FFFFFFFFFFFFFFFFFFFFFFFFFFFFFFFF58
:10F8C000FFFFFFFFFFFFFFFFFFFFFFFFFFFFFFFF48
:10F8D000FFFFFFFFFFFFFFFFFFFFFFFFFFFFFFFF38
:10F8E000FFFFFFFFFFFFFFFFFFFFFFFFFFFFFFFF28
:10F8F000FFFFFFFFFFFFFFFFFFFFFFFFFFFFFFFF18
:10F90000FFFFFFFFFFFFFFFFFFFFFFFFFFFFFFFF07
:10F91000FFFFFFFFFFFFFFFFFFFFFFFFFFFFFFFFF7
:10F92000FFFFFFFFFFFFFFFFFFFFFFFFFFFFFFFFE7
:10F93000FFFFFFFFFFFFFFFFFFFFFFFFFFFF0E6562
:10F94000A40C872498C6FFFFFFFFFFFFFFFFFFFF08
:10F95000FFFFFFFFFFFFFFFFFFFFFFFFFFFFFFFFB7
:10F96000FFFF3CE7883BD4A5FFFFFFFFFFFFFFFF42
:10F97000FFFFFFFF15958B018C018C018C018C0121
:10F980004A018C018C018C018C018C01AC0997AD72
:10F9900039BEEC118C018C018C018C01F16B9EF74E
:10F9A000FFFFFFFFFFFFFFFFFFFF39C6AD3A76A560
:10F9B000DFFFFFFFFFFFFFFFFFFFBEF7F26B36A584
