:020000040800F2
:1000000030D20020356B0008F1670008F367000864
:10001000F5670008F7670008F967000800000000AE
:10002000000000000000000000000000FB67000866
:10003000FD67000800000000FF6700080168000875
:10004000656B0008696B00086D6B0008716B000838
:10005000756B0008796B00087D6B0008816B0008E8
:10006000856B0008896B00088D6B0008916B000898
:10007000956B0008996B00089D6B0008A16B000848
:10008000A56B0008A96B0008AD6B0008B16B0008F8
:1000900071680008756800088D680008B56B000875
:1000A000B96B0008BD6B0008C16B0008C56B000888
:1000B000C96B0008CD6B0008D16B0008D56B000838
:1000C000D96B0008DD6B0008E16B0008E56B0008E8
:1000D000E96B0008ED6B0008F16B0008F56B000898
:1000E000F96B0008FD6B0008016C0008056C000846
:1000F000096C00080D6C0008116C0008156C0008F4
:10010000196C00081D6C0008216C0008256C0008A3
:10011000296C00082D6C0008316C0008356C000853
:10012000396C00083D6C0008416C0008456C000803
:10013000496C00084D6C0008516C0008556C0008B3
:10014000596C00085D6C0008616C0008656C000863
:10015000696C00086D6C0008716C0008756C000813
:10016000796C00087D6C0008816C0008856C0008C3
:10017000896C00088D6C0008916C0008000000007C
:10018000956C0008996C0008000000000000000059
:1001900000000000000000000000183C3C3C181863
:1001A00018001818000000000066666624000000B1
:1001B00000000000000000000000006C6CFE6C6C91
:1001C0006CFE6C6C0000000018187CC6C2C07C0677
:1001D0000686C67C1818000000000000C2C60C1875
:1001E0003060C686000000000000386C6C3876DC99
:1001F000CCCCCC7600000000003030306000000035
:10020000000000000000000000000C18303030300A
:100210003030180C00000000000030180C0C0C0CE2
:100220000C0C1830000000000000000000663CFFCD
:100230003C66000000000000000000000018187E6E
:10024000181800000000000000000000000000007E
:10025000001818183000000000000000000000FE28
:10026000000000000000000000000000000000008E
:1002700000001818000000000000000002060C1822
:100280003060C080000000000000386CC6C6C6C6E2
:10029000C6C66C380000000000001838781818181E
:1002A0001818187E0000000000007CC6060C1830EC
:1002B00060C0C6FE0000000000007CC606063C06CA
:1002C0000606C67C0000000000000C1C3C6CCCFE46
:1002D0000C0C0C1E000000000000FEC0C0C0FC069C
:1002E0000606C67C0000000000003860C0C0FCC6E6
:1002F000C6C6C67C000000000000FEC606060C183C
:10030000303030300000000000007CC6C6C67CC61D
:10031000C6C6C67C0000000000007CC6C6C67E06BD
:1003200006060C780000000000000000181800000D
:10033000001818000000000000000000181800005D
:100340000018183000000000000000060C18306093
:1003500030180C060000000000000000007E0000C5
:100360007E000000000000000000006030180C0655
:100370000C1830600000000000007CC6C60C181885
:1003800018001818000000000000007CC6C6DEDE61
:10039000DEDCC07C00000000000010386CC6C6FE29
:1003A000C6C6C6C6000000000000FC6666667C6625
:1003B000666666FC0000000000003C66C2C0C0C06B
:1003C000C0C2663C000000000000F86C666666660D
:1003D00066666CF8000000000000FE6662687868DF
:1003E000606266FE000000000000FE6662687868D9
:1003F000606060F00000000000003C66C2C0C0DE2B
:10040000C6C6663A000000000000C6C6C6C6FEC6E4
:10041000C6C6C6C60000000000003C181818181810
:100420001818183C0000000000001E0C0C0C0C0CEE
:10043000CCCCCC78000000000000E666666C7878D2
:100440006C6666E6000000000000F06060606060BE
:10045000606266FE000000000000C6EEFEFED6C62A
:10046000C6C6C6C6000000000000C6E6F6FEDECE28
:10047000C6C6C6C60000000000007CC6C6C6C6C60A
:10048000C6C6C67C000000000000FC6666667C6094
:10049000606060F00000000000007CC6C6C6C6C6F2
:1004A000C6D6DE7C0C0E00000000FC6666667C6C26
:1004B000666666E60000000000007CC6C660380C78
:1004C00006C6C67C0000000000007E7E5A18181880
:1004D0001818183C000000000000C6C6C6C6C6C6F4
:1004E000C6C6C67C000000000000C6C6C6C6C6C69A
:1004F000C66C3810000000000000C6C6C6C6D6D6BE
:10050000D6FEEE6C000000000000C6C66C7C3838D9
:100510007C6CC6C6000000000000666666663C187B
:100520001818183C000000000000FEC6860C1830A9
:1005300060C2C6FE0000000000003C3030303030A9
:100540003030303C0000000000000080C0E0703817
:100550001C0E06020000000000003C0C0C0C0C0CF1
:100560000C0C0C3C0000000010386CC600000000B1
:10057000000000000000000000000000000000007B
:100580000000000000FF00000030180C0000000018
:1005900000000000000000000000000000780C7C5B
:1005A000CCCCCC76000000000000E06060786C6687
:1005B0006666667C0000000000000000007CC6C08B
:1005C000C0C0C67C0000000000001C0C0C3C6CCCC1
:1005D000CCCCCC760000000000000000007CC6FE01
:1005E000C0C0C67C0000000000001C3632307830ED
:1005F0003030307800000000000000000076CCCCE5
:10060000CCCCCC7C0CCC78000000E060606C7666D2
:10061000666666E60000000000001818003818182A
:100620001818183C0000000000000606000E060620
:100630000606060666663C000000E06060666C78B0
:10064000786C66E6000000000000381818181818CA
:100650001818183C000000000000000000ECFED656
:10066000D6D6D6C6000000000000000000DC66669A
:10067000666666660000000000000000007CC6C6DA
:10068000C6C6C67C000000000000000000DC6666F4
:100690006666667C6060F000000000000076CCCCEE
:1006A000CCCCCC7C0C0C1E000000000000DC76667C
:1006B000606060F00000000000000000007CC66088
:1006C000380CC67C000000000000103030FC3030D8
:1006D0003030361C000000000000000000CCCCCC04
:1006E000CCCCCC76000000000000000000C6C6C6DE
:1006F000C6C66C38000000000000000000C6C6D668
:10070000D6D6FE6C000000000000000000C66C3869
:1007100038386CC6000000000000000000C6C6C6E5
:10072000C6C6C67E060CF8000000000000FECC180D
:100730003060C6FE0000000000000E181818701887
:100740001818180E000000000000181818181818C3
:1007500018181818000000000000701818180E185B
:1007600018181870000000000076DC00000000007F
:10077000000000000000000000001C30000000002D
:1007800000000000000000000000701800000000E1
:1007900000000000000000000010386C00000000A5
:1007A000000000000000000000C6C60000000000BD
:1007B00000000000000000000076DC0000000000E7
:1007C00000000000000000000000000000381818C1
:1007D0001818183C000000000000386C6C6C786C35
:1007E0006666666C60C00000102810007CC6C6FEFD
:1007F000C6C6C6C6000000000030483000780C7C39
:10080000CCCCCC760000000000001E7AD8D8D8FEF0
:10081000D8D8DADE000000000000FC666666F6F656
:10082000666666FC000000000000F0607C6666669C
:10083000667C60F0000000000000000000CC323E4A
:1008400070B0B26C000000000000D060B0187CC630
:10085000C6C6C67C000000000000E06060786C6CDA
:10086000786060F00000000000007CC6CECED6D6D6
:10087000E6E6C67C0000000000000000003A44CE1E
:10088000D6E644B800000000000000386CC6C6FE82
:10089000C6C6C6C600000000000000FE666268789A
:1008A000686266FE000000000000003C181818187E
:1008B0001818183C000000000000007CC6C6C6C620
:1008C000C6C6C67C00000000000000C6C6C6C6C67C
:1008D000C6C6C67C00000000000000C6E6F6FEDECC
:1008E000CEC6C6C600000000000018180018181870
:1008F0003C3C3C180000000000003030003030303C
:1009000060C6C67C000000001C3000000000000033
:10091000000000000000000070180000000000004F
:100920000000000000000000386C00000000000023
:100930000000000000000000C6C60000000000002B
:10094000000000000000000076DC00000000000055
:100950000000000000000000000000000000000097
:10096000000000001830000000000000000000003F
:10097000000000000000000000000010107CD0D03B
:10098000D0D0D67C1010000000001C303030783001
:100990003030325C0000000000000000423C2424A3
:1009A0003C420000000000000000663C187E181861
:1009B0007E18181800000000000018181818000011
:1009C000181818180000000000003C646038444407
:1009D000380C4C780000000000C6C6000000000083
:1009E0000000000000000000000000007E425A5E8F
:1009F0005A427E0000000000000070087888887469
:100A000000000000000000000000000000366CD86C
:100A10006C3600000000000000000000000000FC38
:100A20000404000000000000000000000000007C42
:100A30000000000000000000000000007C4454445E
:100A40004C547C0000000000FE000000000000008C
:100A500000000000000000000070D888D87000007E
:100A600000000000000000000000000010107C10DA
:100A700010007C0000000000788C0C183060FC0036
:100A80000000000000000000788C0C780C8C7800CE
:100A90000000000000000000000E18200000000010
:100AA0000000000000000000000000000066666614
:100AB0006666667C6060C00000007ED4D4D4741486
:100AC0001414143E0000000000000000000038383C
:100AD000380000000000000060E060606060F0002E
:100AE000000000000000000000003C6666663C005C
:100AF00000000000000000000000000000D86C367C
:100B00006CD8000000000000000040C044481024E1
:100B10004C941E0400000000000040C04448102C0B
:100B20005284081E000000000000C0204428D02489
:100B30004C941E04000000000000000000663C18F9
:100B40003C66000000000000000000001818007E55
:100B5000001818000000000000000000000818380D
:100B60007FFF7F3818080000000000000010181CEC
:100B7000FEFFFE1C181000000000000000001038EE
:100B80007CFE38383838000000000000000038389B
:100B90003838FE7C381000000000000606060616F5
:100BA000367EFE7C301000000000000000000303D1
:100BB00006060CCC783800009D00FFFF9E00FFFF6A
:100BC0009F00FFFFA000FFFFA100FFFFA200FFFFAB
:100BD000FFFFFFFFFFFFFFFFFFFFFFFFFFFFFFFF25
:100BE000FFFFFFFFFFFFFFFFFFFFFFFFFFFFFFFF15
:100BF000FFFFFFFFFFFFFFFF7E00FFFF7600FFFF0D
:100C00007F00FFFF8000FFFF8100FFFF8200FFFFEA
:100C10008300FFFF8400FFFF8500FFFF8600FFFFCA
:100C20008700FFFF8800FFFF8900FFFF8A00FFFFAA
:100C30008B00FFFF8C00FFFF8D00FFFF8E00FFFF8A
:100C40008F00FFFF9000FFFF9100FFFF9200FFFF6A
:100C50009300FFFF9400FFFF7D00FFFF9500FFFF63
:100C60009600FFFF9700FFFF9800FFFF9900FFFF2E
:100C70009A00FFFF7700FFFF700079007000780096
:100C800070007A0070007C0070007B006600FFFF3F
:100C90006800FFFF23007D0071007900710078007B
:100CA00071007A0071007B00720079007200780098
:100CB00072007A0072007B006900FFFF75007C0003
:100CC000730079007300780073007A0073007C0071
:100CD00073007B009B00FFFF6E00FFFF7400790034
:100CE0007400780074007A0074007B00390078008A
:100CF0006A00FFFF6500FFFF4100600041005F00E8
:100D00004100610041006300410062006700FFFF95
:100D10006B00FFFF43007D004500600045005F0061
:100D200045006100450062006400600064005F00EF
:100D300064006100640062006C00FFFF4E0063000D
:100D40004F0060004F005F004F0061004F006300E4
:100D50004F0062009C00FFFF6F00FFFF55005F0027
:100D600055006000550061005500620059005F00A9
:100D70006D00FFFF590062009000FF00B80B0008F3
:100D80008801000888010008780D000820007F0015
:100D900008180100FD6000081D62000835620008A7
:100DA0003B62000800000000000000001030030358
:100DB000800D00080C070A00DFF86C290021136A77
:100DC000984201D108467047526A01219042F9D0F9
:100DD0004FF0FF30704710B50446DFF8500984B07B
:100DE0000168486C18B9204600F070FD1FBDD0E9BD
:100DF0000023DFF83409CDE90123C06D00B9886C08
:100E000001F046F8009001A900F0D8F800F032FB9C
:100E1000214601A801F08AF801A800F057FD1FBD86
:100E2000FEB506460C46154601F02AF80090876A82
:100E3000B80735D5204600F056F900281EBF40F609
:100E40000100384001282BD000F01EFA0090024625
:100E5000214600F0A3F901A800F045F9F0B100988F
:100E600044F22001806A084207D0009800F108018E
:100E700001AA083001F07AF810E00098DDE90123BA
:100E8000C0E9022300980099806A28438862DFF84D
:100E90009808818B491C818301F094F800F0EAFAEC
:100EA000F7BD2022BCE738B504460D4602E00546F2
:100EB00000F0E0FA284600F0EBFF00F0D2F803D48F
:100EC00000F0D8FA002032BD0099204601F02EF83B
:100ED000009880690028EAD100F0CCFA2846FFF794
:100EE0006BFFC043C00F32BD10B5DFF84008DFF81C
:100EF0003848006884B090F8541021B104F108001B
:100F0000FFF769FF1FBD00F01AFC009000F04AF9DE
:100F100000F0B0FAE16D11B101A8FFF7C4FF01A81C
:100F2000FFF759FF1FBD70B584B004460D0044D0D3
:100F300000F0AEFF00900021016200988561284614
:100F400000F0A6FF0290009890F8280000F0080535
:100F50000298C66926B9C46100F08CFA02A82AE09A
:100F600000F092F901906DB990F82800000709D5BA
:100F7000009806620298C46100F07CFA00F04AFB17
:100F800001A818E000F046FB00F0D2FB00F079F970
:100F900001900198066A0EB904620BE000F071F945
:100FA000002DF5D190F828100907F1D501980462B9
:100FB0000098066200A800F076FF7FBD0B46B0F9EE
:100FC0000220B0F90010184601F004B810B582B044
:100FD00004001BD000F05CFF00F043F814D500982B
:100FE000406A20B101F004F80098002141622046D7
:100FF00001F020F8044605E02046FFF7E7FF00F087
:101000006FF8046A002CF7D100F034FA13BD70B504
:1010100084B004000D46164622D000F039FF00F0DF
:1010200020F804D5009A294600F0B8F810B900F06D
:1010300021FA7FBD00F01EFA324601A92046FFF7D3
:10104000EFFE204600F0F6FF044607E0324601A915
:101050002046FFF7DCFF00F043F8046A002CF5D1CE
:101060007FBD009090F82800800770472DE9F0417F
:1010700084B006460F00144698462DD000F05BFB66
:101080000090856AA80725D5009A314600F086F8B9
:1010900000B340F601002840012807D10098026AF9
:1010A0008169434601A8FFF7E1FF04E0424601A938
:1010B0003846FFF7B5FE0098C66907E0424601A929
:1010C0003046FFF7A4FF00F0DCF8066A002E18BFD8
:1010D000A642F3D100F0CEF9BDE8FF812023C5E799
:1010E000204600F0CDBEB0F90410B0F900209142C6
:1010F000A2BFB0F90610B0F90200814201DA002067
:1011000070470120704770B584B006460C461546FE
:101110000BE001AA21463046FFF7F5FF00F0B1F8D9
:10112000066A002EF5D100F0A3F9002E33D000F0AE
:10113000ABF80090866AB007F5D515B100F02CF831
:1011400001E000F02EF800F06AF80028EBD0F0077C
:101150001ED40098002DB0F9020004D0B5F9021099
:101160008142A8BF0846B4F90210814209DABDF9EC
:101170000600B4F90620411E9142D4DA401EE080F8
:10118000D1E7BDF90A00B4F906108842CBDAF6E7D8
:101190000098C669C5E77FBD00992A4601A800F0FE
:1011A00050BF0098D0E90023CDE901237047FEB578
:1011B00007460C461546002610E001AA214638468F
:1011C000FFF7F5FF00B10126384600F059FE076A27
:1011D000002FF2D10098076A00F04CF9EFB100F04F
:1011E000AAFA0090876AB807F4D515B1FFF7D4FFC3
:1011F00004E0009AD2E90001CDE9010100F00FF806
:101200000028E7D0F80705D4BDF80800401C20806E
:101210000126DFE70098C769DAE73046FEBD01A97D
:10122000204600F03FBF70B584B006460C46154618
:101230000BE001AA21463046FFF7F5FF00F021F848
:10124000066A002EF5D100F013F9CEB100F01CF8BB
:101250000090866AB007F6D515B1FFF79DFF01E053
:10126000FFF79FFFFFF7DBFF0028ECD0F00704D467
:10127000BDF80400401EA080E5E70098C669E0E7DD
:101280007FBD304600F0FCBD304600F001BE00B529
:1012900085B00091019000A900F020FF05B000BDCD
:1012A00000224A800A8082880388D21A8A80C288F3
:1012B0004088101AC880704770B586B004000D468B
:1012C00033D000F0E5FD0090866AB0072BD500987A
:1012D000D0E90023CDE90123F00344BF2046FFF706
:1012E00075FE5DB1D5E90001CDE90301009803A9C0
:1012F000FFF764FE03A901A800F018FE214601A82B
:10130000FFF7D1FD78B140F601003040012806D149
:101310000098026A816901A8FFF7E0FE03E001A9D5
:101320002046FFF7BEFD00F0A5F806B070BD002115
:10133000C2E72DE9F04F83B0DFF8704507468846D5
:101340000D98E16CDDF83CB00C9E91469A4641EA5E
:10135000000546B9608B48B3DFF8D0030068407CD5
:1013600004EB8000066A16F1010F08BF00261DD0AD
:10137000E6B1FFF789FF0190B0F90010B0F9020063
:10138000CF198044B9F1000F05D1019AB2F90420B8
:10139000511A01F10109BAF1000F05D10199B1F912
:1013A0000610081A00F1010A00F0C2F90BF12C0036
:1013B00000F0B4FE5FEA000B57D0608B401C6083E6
:1013C000584600F065FD009007800098A0F8028064
:1013D00009EB07000099401E88800AEB080000997D
:1013E000401EC88000980E9901610098DFF8C01473
:1013F000806A294008430099886200F03BF8E06B5E
:1014000050B100F03DFD0746584600F039FD7969BE
:101410004161C7F814B001E0C4F83CB03146584609
:10142000FFF781FDA80644BF584600F03CF8E807E6
:1014300002D5A06D401CA065680644BF584600F068
:101440007FFEA8070DD5584600F022FD0090806A67
:10145000009940F00200886200F00CF85846FFF74F
:1014600066FF01215846FFF712FF5846BDE8FE8F80
:101470000098066A00A800F016BD10B5044600F0FA
:10148000FFFC80690028F9D12046BDE81040FFF735
:1014900093BC80B5FFF7F1FF00285CBFBDE80240B8
:1014A00000F0ACBE01BD70B5DFF8805204002868C2
:1014B000866C04BFDFF8F413CC6B84642046FFF71E
:1014C000E8FF01F087F8FFF70BFE2968B0F900206C
:1014D000CA64B0F902000865304670BD70B5DFF827
:1014E000CC4384B0D4E90201CDE90001206920B9E0
:1014F0002088ADF80000608811E0A089401CADF89C
:1015000000006089BDF90010ADF80200B4F90400D4
:10151000884206DA2088ADF80000E089401CADF86A
:101520000200B4F90600BDF90210884264DBDFF85E
:10153000845300F003F9B4F900100290BDF90000E3
:10154000884217D1E088ADF80600A088ADF8040005
:101550002868806C08E000F093FC06460022306AA0
:1015600000A9FFF7D0FDB0690028F4D100F04DF8D4
:10157000FFF7C9FDBDF80000ADF804002868806CD5
:101580000AE000F07DFC06460022306A00A9FFF761
:101590000EFE0028EED1B0690028F2D100F035F837
:1015A000FFF705FE0028E5D1B4F90400BDF90010ED
:1015B000ADF80400884206DADDE90001C4E9020161
:1015C00000F028F8A6E72868806C08E000F058FCD6
:1015D00005460022286A00A9FFF725FEA869002811
:1015E000F4D100F012F8FFF71EFE00F013F82069A6
:1015F00044F62161884201DB002004E0DDE90001BE
:10160000C4E90201012004B070BD02980022C06943
:1016100000A9704702A800F046BC4448006890F852
:10162000540000B9704710B5DFF8804260690228A5
:1016300005DA2069401C2061FFF750FF20B960697E
:10164000401E6061002010BDFFF74EFC012010BD60
:1016500070B5364C0646206886B090F8541011B923
:10166000FFF742FC06E0DFF844526969491C6961F2
:10167000022901DB012055E000F061F800904FF0F5
:10168000FF302861287E0028009823D0D0E902236B
:10169000CDE902231EB1314602A800F047FC2068C4
:1016A000406C28B300990191D0E90023CDE90423CF
:1016B000E86D28B100F03CF8E86D00F0E9FB01901E
:1016C000019804A9FFF77AFC04A902A800F02EFCF7
:1016D00001A80EE090F82800800703D50098D0E913
:1016E0000023D5E76869401E6861FFF7C3FE11E07B
:1016F00000A800F0D8FBE96D19B102A8FFF7D3FBF1
:1017000028B12068816C02A8FFF7CDFB20B9686979
:10171000401E6861002005E0DDE90201C5E9000125
:10172000FFF77BFF06B070BD94C900203000002099
:1017300001A800F0B8BB384600F0AABB2868806C4E
:1017400000F0A6BB10B5044620680E2802D00F2872
:1017500009D017E0E0684168012917D1BDE81040C1
:10176000006800F0BBBF6068FFF726FB4F4901EB44
:1017700080006FF07041406C884203D000F0B6FFEB
:1017800000F0F9FF2046BDE8104006E010BD4948D2
:101790000121006880F85410704710B50446216894
:1017A00060680E290FD0142906D0172909D02229E4
:1017B0000ED028290FD002E0E16801F06DF800207A
:1017C000E060E06010BD2146BDE8104001F075B852
:1017D0006FF07040F5E7BDE81040FFF7A8BD334853
:1017E0000021417641660164016381624163C16207
:1017F0008165C165C164416570472DE9F0432B4C9B
:1018000085B0607E00284ED12A4DE063206600211D
:101810002868294F4164A1836183002640F6FF7840
:10182000304601F06EF8A8B1002003900297022024
:1018300001904FF0FF3000904346424600210020C7
:10184000FFF777FD04EB86016FF0704208624A648F
:10185000FFF76DFD761C022EE2DB0026DFF85C80D0
:10186000174FDFF8609009EBC60001F0CBF807EBEB
:10187000C60001F0C7F808EBC60001F0C3F8761CFB
:10188000022EF0DB206AFFF70EFE2868012180F8A7
:101890005410617605B00C48A06604F16800BDE8FC
:1018A000F04300F0D9BF05B0BDE8F08394C9002033
:1018B0009F3F0700300000204517000864CB002040
:1018C00054CB0020D4CB0020DF17000830B5094DE1
:1018D00009490446286883B0407C51F8200000A9DB
:1018E000C268126B9047286800AA2146083000F0B1
:1018F000A8FB37BD300000208CC900200F21DFF885
:10190000202602EBC103DB6B984201D2491EF8D5B9
:10191000084670470160426083600061101840F81B
:10192000042C704710B504466068FFF7E7FFDFF846
:10193000F01563680A68D21A0A6001EBC00004F16E
:10194000080140300A68496802B1516009B10A6073
:1019500010BD026010BDF8B5DFF8C44505460E465F
:10196000606BA1680818AA19401E904206D310683F
:1019700020B9506845191046FFF7D4FF606BB0429C
:101980000AD256F8040C371A386828B9786845190D
:101990003846FFF7C7FF3E462846FFF7AFFF04EB88
:1019A000C0072A463B6C00213046FFF7B3FF07F122
:1019B000400006F10801026802B151600A6000228D
:1019C0004A6001602068281820602846F2BD2DE991
:1019D000FD49DFF84C45656BA06882B04019401E98
:1019E00001902846D0F804B0016891BB019A0BEB36
:1019F000050191422DD20E460091D6F8048031683F
:101A000039B3226B12F83120012A22D1A26A914205
:101A10000CBF01270027FFF785FF3068216B01EB22
:101A2000C000424645603146284600F0F3FF27B12A
:101A3000206B0099401A2818206308EB05015846CE
:101A4000FFF789FF029919B1884201D3002005E010
:101A5000C34601985D448542C3D3012005B0BDE86B
:101A6000F089F0B50024FF230546002609E0A719F8
:101A7000B7FBF3FCCCEB0C2CA7EB0C0745F8047B75
:101A8000761CB6EB910FF2D30646002500E06D1CE4
:101A9000B5EB910F0DD204EB050CBCFBF3FE56F831
:101AA000047BCEEB0E2EACEB0E0C6745EFD0032083
:101AB000F0BD641C022CD7D300240546002609E0A3
:101AC000A719B7FBF3FCCCEB0C2CA7EB0C0725F804
:101AD000027B761CB6EB510FF2D30646002500E0E0
:101AE0006D1CB5EB510F0FD204EB050CBCFBF3FEE4
:101AF000CEEB0E2E36F8027BACEB0E0C1FFA8CFCF4
:101B00006745EDD00220F0BD641C022CD5D3002423
:101B10000246002508E06619B6FBF3F7C7EB072776
:101B2000F61B02F8016B6D1C8D42F4D302460025B2
:101B300000E06D1C8D420AD26719B7FBF3FC12F866
:101B4000016B6744FFB2BE42F3D00120F0BD641CBC
:101B5000022CDDD309B100F0A9FF0020F0BD10B5C3
:101B6000DFF8BC43002084F824008022002104F127
:101B70003C0000F09EFFBC220021204600F099FFAF
:101B8000BDE810400C220021DFF8980300F091BF5F
:101B90002DE9F041DFF88843A06A40B9DFF88403FB
:101BA000416880680830B1FBF0F0851C03E0E06814
:101BB00000EBD000051DE80000F08FF85FEA000898
:101BC00027D0216BA76A01EBC800406800F1080626
:101BD000E068C200304600F0A7FFE0682663C4F862
:101BE00028806A1E01E0401C486006EBC00190425C
:101BF000F9D300204860E068E1682062E560606831
:101C00002818401A606017B1384600F073F90020B8
:101C100000E00120BDE8F08170B5DFF8044394F8DE
:101C20002400002848D1DFF8FC620120716884F8A4
:101C30002400B1F5205F88BF4FF420513068FFF7D2
:101C400010FFB06810B970688008B060DFF8D80283
:101C5000F06006F10C0000F0FFFD201D5A218161AB
:101C60000021102304EBC1028B40491CD3631029CF
:101C7000F7D331687268521804F12405143AEA6007
:101C800002237268836029614260002105E0EB68ED
:101C90004A1C03EBC1014A6011468268521E914200
:101CA000F5D30121C161296940686260FFF753FEE5
:101CB000FFF76EFF0120A86070BD10B5DFF860125D
:101CC0004A680C6A521C4A600A6B02EBC0035C60F3
:101CD000002302F83030086210BD2DE9F0410546BE
:101CE000FFF79AFF8E4CE06B854202D3E81C800818
:101CF000800000F10C052068A8421BD3E06A6168EF
:101D0000884207D3401EE062FFF742FFE16A491CA8
:101D1000E16278B96068D4F82080401E6060206B72
:101D200000EBC80149682162012100F83810B8F1C0
:101D3000000F01D1002040E000262846FFF7DEFD1D
:101D400001E00026401C102812D204EBC001096CEF
:101D50000029F6D08E687168A94209D2B1680029BD
:101D6000EFD08E687168A94202D2002EF6D1E9E761
:101D700046B92846FFF72BFE0028DDD04046FFF786
:101D80009CFFD7E77768E16B781B0C31884238BF3E
:101D90003D463046FFF7C6FD206B00EBC800002330
:101DA00046602A4641463046FFF7B4FDBD4203DA9D
:101DB000A919781BFFF7CFFD4046BDE8F08128B197
:101DC00057498A6B026002B15060886370472DE901
:101DD000F8430446FFF720FFE01C80088000504CC9
:101DE000061DE06B864238BF0646A56B00E02D68F5
:101DF00095B155F8040CB042F9D16DB1286808B11D
:101E000069684160686808B129680160A06BA842F0
:101E10002ED12868A0632BE0606BA16801EB00085D
:101E2000A8F10409D9F80000A8EB0007386830B120
:101E30000020FFF7CCFDD9F80000A8EB00073868B8
:101E4000B0B97868B04213DB7142C0190818051D9B
:101E50003846FFF767FDA068801BA06039462069FF
:101E6000301820617868801BFFF775FD45F8046C19
:101E70002846BDE8F283002818BFFFF72EBF704741
:101E800028B12749096B01EBC00040680830704752
:101E900023498A69521C8A61096B01EBC0010A78E7
:101EA000521C0A70ECE702681D4952F8082C0B6BB3
:101EB00003EBC2021378022B03D38B690BB15B1EB9
:101EC0008B611178491E117000210160002070475C
:101ED000144A10608808800050607047114911282A
:101EE00005D34A685208904202D3104600E0102001
:101EF0008860704710B504001FBF0948006B10F8D8
:101F0000341000290BD0022909D200EBC40041682B
:101F10004868FFF720FD2046BDE81040CDE610BD23
:101F200058C80020C0CB00205F1B0008B1F900207A
:101F3000B0F900309342B8BF0280B0F90220B1F985
:101F400002309A42B8BF1A464280B1F90420B0F973
:101F500004309A42C8BF1A468280B1F90620B0F90F
:101F600006309A42C8BF1A46C280704700B970470F
:101F700010B509B30AB3B2F90030B1F900409C4280
:101F8000B8BF23460380B1F90230B2F90240A34240
:101F9000C8BF23464380B2F90430B1F90440A342DC
:101FA000B8BF23468380B2F90630B1F90640A34298
:101FB000B8BF2346C38010BD1146D1E90023C0E954
:101FC000002310BD02480068010018BF0047704799
:101FD00020CC002058B10388CB1803808388C9180F
:101FE0008180418851184180C1885118C180704753
:101FF00010B582B0040017D00D480068006EA042F2
:1020000008BF00F0D4FD2046FFF742FF0090406972
:1020100008B100F0D5FD0098006800F082FC00F0E7
:1020200004F82046FFF766FF13BD00A8FFF73BBF8B
:102030003000002000B9704780B5FFF721FFC0696C
:1020400002BD10B5B1F90030B2F900409C42A8BF02
:1020500023460380B2F90230B1F90240A342B8BF6F
:1020600023464380B1F90430B2F90440A342C8BF0B
:1020700023468380B1F90630B2F90640A342C8BFB7
:102080002346C380B0F90410B0F900209142A2BFEA
:10209000B0F90610B0F90200814201DA002010BD4B
:1020A000012010BDB1F90620B0F902309A42A2BF5A
:1020B000B0F90620B1F902309A420DDBB1F90420E3
:1020C000B0F900309A42A2BFB0F90400B1F9001093
:1020D000884201DB012070470020704770B50E4C2C
:1020E000054620680E46142814DA2846FFF7C8FE75
:1020F00001697560080008D02068401C20603046E7
:1021000088472068401E206070BD3046BDE87040A2
:10211000FFF743BB70BD00BF24CC002038B5044698
:10212000FFF7A9FE050009D0FFF7B2FE0090224696
:10213000002100F0BEFC00A8FFF7B5FE284632BD26
:102140002DE9F04186B0040038D0FFF7A1FE0090E1
:10215000D0E90023CDE903230098056A866A00A828
:10216000FFF7A1FE204600F03CFD070026D02046E8
:1021700000F048FD8046B00704D52A46414603A832
:10218000FEF7ACFF2046FFF783FE00904046FFF7C6
:102190007FFE01903846FFF77BFE029005620199B1
:1021A0000098C96901620198C46100A8FFF77BFE2D
:1021B00001A8FFF778FE02A8FFF775FE06B0BDE89C
:1021C000F08130B4002513E050F8042BD30744BF4E
:1021D000A9F101039A18091F042942F8045BFAD2F5
:1021E00013468C0744BF15809B1CC90748BF1D7050
:1021F00050F8041B0029E7D130BC704738B50446BD
:102200000548022C0068457C3CBF447400F0CFFCBC
:1022100002480460284632BD30000020CCC90020AE
:1022200080B5DFF8A81409684A6B824205D048637C
:1022300000F020FABDE8024037E201BD80B5DFF8CA
:102240008C1409680A6B824205D0086300F012FA08
:10225000BDE8024020E201BD70B5DFF870140A68E5
:10226000117C80EA01035B0705D5936BD56B1C6875
:102270002E681E602C601074084670BDDFF8501484
:1022800009688968084738B5DFF840241268B2F950
:102290000A309942A4BFB2F90E308B421FDBB2F96B
:1022A00008309842A4BFB2F90C30834217DB537C4C
:1022B000DFF8204454F82340137CE568DB0707D59A
:1022C0000A460146EB69204601B0BDE83040184798
:1022D000D26B13680A4601462046AC69A04731BD5F
:1022E00010B5DFF8E8331B68B3F90A40A142A4BF78
:1022F000B3F90E408C420FDBB3F90840A042B8BFDF
:102300002046B3F90C409442B8BF2246824203DB18
:1023100000F020F8A468A04710BD10B5DFF8AC337A
:102320001B68B3F90840A042A4BFB3F90C40844233
:102330000FDBB3F90A40A142B8BF2146B3F90E4002
:102340009442B8BF22468A4203DB00F003F8E468F7
:10235000A04710BD5B7CDFF87C4354F82340134654
:102360000A4601462046E468704738B5DFF85C430A
:102370002468B4F90850A842B8BF2846B4F90C50F4
:102380009542B8BF2A46824218DBB4F90A50A942E6
:10239000B8BF2946B4F90E509D42B8BF2B468B42B8
:1023A0000CDB647CDFF82C5355F824400093134673
:1023B0000A4601462046E4682469A04731BD2DE95C
:1023C000F04F8246C44887B0D0F800E01098149FC0
:1023D00010909346119811901E4612981290002466
:1023E00013981390BEF1000F159815900ED005901C
:1023F00004971398039012980290119801901098E6
:1024000000905046DEF800A0D047E0E0109B119D00
:1024100070180BEB0A02401E521E2B43012B66D193
:10242000AA4B1B68B3F90AE0AEEB0105012D07DBEF
:10243000761B012EE9DB7146DDF84CE00EFB0577DB
:10244000B3F90E50401B012802DB361A012EDCDBEB
:10245000B3F90C00101A0128A8BFABEB000BB3F9BD
:102460000800A446824534DA129AA0EB0A0CABEBC2
:102470000C0B012A0CD0022A12D0042A18D0082AE8
:102480001ED0102A1ED0182A18BF202A1DD020E0E6
:1024900007EBEC072CF0070082440CF0070C18E067
:1024A00007EBAC072CF0030082440CF0030C10E0A7
:1024B00007EB6C072CF0010082440CF0010C08E0E3
:1024C000674404E007EB4C0701E007EB8C0782460A
:1024D000A446BBF1010F98DB587C7E4A5B4600F0B6
:1024E00068F8C4685146D4F804A0D0478DE7129824
:1024F0000091C0F1080005900020019408E00198C7
:102500001199401C01900098081800901398C71961
:102510000198B042EADA119800990818401E02901A
:102520006A4802990068B0F90A209142A2BFB0F946
:102530000E0000998842E2DB00250497D146A846A8
:102540000AE000F02EF8614803990068C06B016052
:1025500008F1010810988144D845D0DA2DB90498C3
:10256000401C0490082510F8014D12990598E2B21C
:1025700002FA01F46D1A554942FA00F00968C0B236
:1025800010B90A7C9207E3D400F005F8D9D0159A67
:1025900052F82000D5E7C96B0A680392159A002A01
:1025A000704708601098029B00994844421E4846B4
:1025B000DBE652F82000159A0592CDF810C003977B
:1025C0000096139A0292129A01920A46704707B037
:1025D000BDE8F08F3D483F4A0168487C52F8200032
:1025E0000831C268126B104770B582B0FFF7F2FF76
:1025F00000F018FB040013D10025284600F081F9F3
:10260000009050B1009A0C21D26800A8526A9047FD
:1026100001002DD00098884704436D1C022DECDB8F
:1026200024BB00F013FB012540F6FF76284600F09E
:1026300068F90090C0B12846FFF7E0FD0420FFF7DD
:102640001DFE3346324600210020FFF78EFE00209B
:10265000FFF714FE009A0E21D26800A8526A904734
:1026600001001CBF009888476D1EDFD5204676BD4F
:10267000012076BD1549174A0968497C52F8211096
:102680000969096808471149124A0968497C52F8E2
:1026900021100969496808470C4909680A7C5207F2
:1026A0004CBF896BC96B08607047084909680A7C90
:1026B00052074CBFC96B896B0860704704490968B1
:1026C000496808470249096809680847300000203E
:1026D000340000208CC9002018CC002002498A68F0
:1026E00002B98860FFF76EBC48000020FFF7E6BF24
:1026F000FFF7E8BF10B55B485B4C00210160782212
:10270000204600F0D6F904F17800BDE81040082218
:10271000002100F0CEB95549886070472DE9FC4191
:1027200005460E46174698460420FFF7A7FD0446C7
:102730004E48C068C16C006D4D198619CF19804490
:10274000ADF80050ADF80470ADF80260ADF8068049
:1027500000A8FEF77DFF48B143463A463146284679
:10276000FFF703FEFEF759FF0028F5D12046FFF7DB
:1027700085FDBDE8F38180B50021002000F0A4FABA
:10278000BDE800503A4940F6FF7213460846C5E7D7
:1027900010B5344C206858B90120206000F09CFA34
:1027A00000F0ACFA33486060201DBDE8104053E0F3
:1027B00010BD70B530480168490849000160012129
:1027C0002E4881602E49016000682E49884200D061
:1027D000FEE7FFF7DDFF254C2E20207000F0B4FA55
:1027E000E068214D8063011DC163006400F10801B0
:1027F000696105F10801407C05EB8000806FC268CB
:10280000126B90470FF2880005F11406B065A068BE
:10281000B060E068083068610120307100F096FA1D
:102820007063032085F870006FF07040F0613062D3
:102830000020FFF743FF6FF07F40FFF743FF124890
:102840006060FFF7D1FE04460021002000F08AFA04
:10285000FEF7D3FF204670BD0C490A68426008604D
:1028600070470000E4CB002014C9002024000020A1
:1028700001F0FFFFF5260008002000E000300240D4
:10288000C2A507F4CDB5E8B5486A00081CCC002005
:10289000E12200088722000810B582B00C4600280B
:1028A00018BF002C08D0FFF7F3FA00902146FEF77E
:1028B000F7FC00A8FFF7F7FA13BD38B504460D0082
:1028C00008D000F09FF928B1AC602946BDE834403B
:1028D000FFF704BC31BD00008169484A52F821303D
:1028E000834204BF036842F82130416809B102689D
:1028F0000A60016809B142684A60002101604160D4
:102900007047022801DB002070473C4951F8200045
:1029100000E0006800281EBFC16809680029F8D1DE
:102920007047FFF74CBAF8B51F4604460D461646E9
:10293000022F03DA1C20FFF74AFA08B90020F2BD83
:102940000DB105610AE02D4951F8271031B100E0C1
:1029500011460A68002AFBD10969016187618682F4
:10296000C4600021016041608160F2BDB4E770B5D0
:1029700060B381690C46022C28DA204A52F82430D0
:102980001BB942F8240025E023465C68002CFBD1EB
:10299000E3B1DC68C56824682E68A642B8BF1B682E
:1029A000F6DBB44204BF848A012C06D11C6824B132
:1029B0002346DC682468B442F8DA5C68002C1DBF4A
:1029C00020605968416042F8210001E0012070BD9B
:1029D00058600360002070BD38B51C46FFF7A3FFA8
:1029E000050018BFFFF7C3FFE868006820B9044876
:1029F000006800EB84008565284632BD8CC9002044
:102A00003000002002490A68026008607047000038
:102A1000D4C9002081423ABF5318984200F074B8DC
:102A20008018990707D0521E24BF13F8011D00F823
:102A3000011DF6D8704781071BD1103A07D330B477
:102A400033E93210103A20E93210F9D230BC10329A
:102A5000121F24BF53F8041D40F8041DF8D838BFD6
:102A6000121D521E24BF13F8011D00F8011DF8D8D5
:102A70007047121FF3D3C10709D153F8041D121F69
:102A800020F8041D4FEA31414180F6D2E7E753F8C0
:102A9000041D121F00F8041D4FEA3121A0F8011097
:102AA0004FEA3141C170F2D2D9E70000002200F0B4
:102AB00071B910B502E000F8011B521E002A18BFC0
:102AC00010F00303F7D193081AD04FF0013402F04D
:102AD00003024C4308E040F8044B40F8044B40F834
:102AE000044B40F8044B1B1F042BF4DA002B1CBFD3
:102AF00040F8044B5B1EF9D102E000F8011B521EA6
:102B0000002AFAD110BD000062B38B0708D0521E14
:102B100011F8013B00F8013B00F024808B07F6D14F
:102B2000830740F0208000BF103A07D330B4B1E8EB
:102B30003810103AA0E83810F9D230BC530724BF3F
:102B4000B1E80810A0E8081044BF51F8043B40F871
:102B5000043BD20724BF31F8022B20F8022B44BFDC
:102B60000B7803707047121F17D35B0009D151F81F
:102B7000043B20F8023B1B0C121F20F8023BF6D24C
:102B80000BE051F8043B00F8013B1B0A20F8023B24
:102B90001B0C121F00F8013BF3D238BF121D521E4E
:102BA00024BF11F8013B00F8013BF8D8704780B50D
:102BB00000F020F900F040F9BDE80140FEF7E7BD64
:102BC00038B50446FFF764F9009081894D1E858170
:102BD00000A8FFF768F92DB215B92046FFF78AF96A
:102BE00031BD38B5044600F039F9050008D0A542DA
:102BF00001D1002504E0FFF743F9006AA042F4D1B7
:102C0000284632BD00B9704780B5FFF739F98069B1
:102C100002BD000010B5284C6068FFF7D0F8002016
:102C2000606010BD10B5244C606868B920688000F1
:102C3000FFF7CDF8606008B9012010BD1F48A06003
:102C400004F10800FFF708FE002010BD2DE9F04751
:102C500000F00CF904460027194DDFF868900EE0EB
:102C6000F0B2FFF710FD0246F1B2384600F03DF930
:102C7000761C5645F4DB4046FFF7C0FA7F1CA7429E
:102C800018DA3846FFF73DFE0028F7D03846FFF740
:102C9000B5FA8046384600F04AF90928EBDA59F8C7
:102CA00027000069A842E6D0384600F042F9824683
:102CB0000026DEE7BDE8F08738000020152C00086C
:102CC0001C6B00088CC90020024A12685084918451
:102CD000002070473000002080B54FF4484105487F
:102CE000FFF7F6F88020FFF7F9F80348BDE8024047
:102CF000FFF711BD58000020940D000880B5002397
:102D0000002207490748FFF767FE00F00DF800F0C2
:102D1000CDF800F009F8BDE8084000F0B5B80000B3
:102D2000046B0008AC6900084FF4A0724FF4F07116
:102D30000020704780B5012903D100F0CDF90020B3
:102D400002BD4FF0FF3002BD704700000348044948
:102D50000068407C51F82000704700BF3000002020
:102D6000B4C90020074A084B1080084A1180084A5D
:102D70001268527C53F822300A4601461846DB6836
:102D80001B6A184728CC00208CC900202ACC0020C0
:102D900030000020401810F0030308D0C91A1FD3D8
:102DA000DB0748BF00F8012D28BF20F8022D1300D3
:102DB00030B414461546103928BF20E93C00FAD833
:102DC000490728BF20E90C0048BF40F8042D8900BE
:102DD00028BF20F8022D48BF00F8012D30BC7047F5
:102DE000C91818BF00F8012DCB0728BF00F8012D26
:102DF0007047000010B50E4C0E492068407C51F819
:102E0000200050B1C1680968042903D00068002877
:102E1000F8D102E008B1FFF7A9FD206800210166A2
:102E200000F108014161BDE81040FFF7D3BB00BFCE
:102E3000300000208CC9002010B5074C2068006BC2
:102E4000FFF718FCFFF728FC2068406BFFF712FC27
:102E5000BDE81040FFF729BC3000002080B5FFF727
:102E6000D1FE10B1FFF70CF8C06902BD38B50024DF
:102E700000252846FFF745FD00B1641C6D1C022D9E
:102E8000F7DB204632BD000070B582B000F028F8B4
:102E9000009048B1009A0A2100F01AF8030003D00C
:102EA00000F01AF898470026304676BD70B582B01B
:102EB00000F016F8009048B1009A0B2100F008F8D5
:102EC000030003D000F008F898470026304676BD8E
:102ED000D26800A8526A104700982A4621467047D7
:102EE0000C4615460126FFF70CBD70B582B0FFF702
:102EF000F7FF009048B1009A1021FFF7E9FF0300A7
:102F000003D0FFF7E9FF98470026304676BD000062
:102F100038B500250C46022807DAFFF7F2FC20B18D
:102F2000C2682146926A90470546284632BD08216C
:102F3000EEE70921ECE709480068407CF9E780B535
:102F4000FFF7DFFC28B1C268BDE80840D26A022161
:102F5000104702BD01480068407CF0E730000020C7
:102F6000B0B34108490001D10120704781088900B0
:102F700001D102207047C108C90001D10320704768
:102F80000109090101D1042070474109490101D11A
:102F900005207047010A090201D108207047410A43
:102FA000490208D0010B090305D0C10BC90302D0A7
:102FB000010C090401D110207047810C890401D152
:102FC0001220704710F07F4F01D118207047202049
:102FD00070470000F0B5DFF85453AA8801F0FF03F2
:102FE000090A00F0FF06070ADFF83C4349F2413CBA
:102FF00062451CBF45F2103C624507D168892080BC
:1030000067806680A889208061803EE041F6631C6D
:10301000624529D1B5F80AC0AA7952B92A88521E48
:10302000101AA4F800C0002262800204120E62800E
:1030300009E0A4F800C0678066802888401E00125E
:1030400060802888401E00F0FF006080A8892080F2
:10305000618063806888401E001260806888401E1E
:1030600000F0FF006080F0BD45F2105082420DD1AB
:103070006889208067806889401C20806680A889D4
:1030800020806180A889401C20806380F0BD30B51D
:10309000DFF89432DFF8944265891D80050A5D806F
:1030A00000F0FF055D80451C2D125D80401C58809E
:1030B000A0891880080A588001F0FF005880481C39
:1030C00000125880491C5980208918805A8030BDD0
:1030D000608000206080704710B594B000200090A0
:1030E000DFF84C02016841F002010160006800F065
:1030F0000200009000980120089009900A90032097
:103100000B9008A9DFF82C0200F01CF9DFF8280268
:103110004FF020410160DFF82412416006218160F8
:103120000021C16001611021416100218161C16103
:1031300041624FF4805181620021C1624FF48041AD
:1031400001630021416381634FF48011C1630F214A
:103150000D9100210E913C210F91002113910491BA
:103160000921019100210291082103910021079179
:1031700001AA0DA900F0D2F9322000F0F9F9DFF828
:10318000A841F92020800020608008206080C020B5
:103190002080192060801A206080C1202080452076
:1031A000FFF796FFC220208033206080C52020805A
:1031B0000020608028206080B1202080A0206080D6
:1031C00011206080B420208002206080B620208002
:1031D00000206080422060803B206080B7202080FB
:1031E00007206080E02020801F20608025206080F4
:1031F000222060800B206080062060800A20608092
:103200004E206080C62060803920FFF761FFE120FA
:1032100020801F2060803F20608060800F206080C1
:103220001F2060800F2060804620608049206080E1
:10323000312060800520608009206080032060804C
:103240001C2060801A20FFF743FFF12020803620E9
:1032500060800420FFF73CFF3C2060800F206080EE
:103260006080A420608002206080F22020801820EE
:103270006080A32060801220608002206080322065
:10328000608012206080FF2060803220FFF720FFE6
:10329000F42020804020FFF71BFF08206080912051
:1032A000608004206080F82020802120608004203D
:1032B000608036202080482060803A202080552081
:1032C000608011202080782000F052F92920208091
:1032D000DFF858002A2141812B2181812C21018195
:1032E000012181714FF4F07101804FF4A071418090
:1032F00036202080A82060800120DFF8441008607C
:1033000014B010BD10B5094A1488A0423CBF5288C1
:10331000914201D3002010BDFFF75CFE02482E2130
:103320000180408810BD00007E00006C000000207D
:103330003038024000040240ACCA0020040100A062
:10334000808240422DE9F84703460C464FF00008C2
:1033500067480F21012202FA08FC25680CEA0509DA
:10336000E14540F0B9804FEA880A6568022D18BF30
:10337000122D10D14FEAD80503EB850EDEF8205050
:103380000AF01C0601FA06F7BD43276907FA06F69C
:103390003543CEF820501E684FEA480E032505FA43
:1033A0000EF5ED432E40277907F0030707FA0EF7D5
:1033B0003E431E606668012E18BF022E03D0112EF8
:1033C00018BF122E10D19E682E40E76807FA0EF73C
:1033D0003E439E605E6826EA0C076668C6F30016E8
:1033E00006FA08F63E435E60DE683540A66806FAD7
:1033F0000EF63543DD606568ED006DD5002500955E
:10340000056845F480450560056805F4804500952C
:10341000009D4FEA980C374F57F82C600AF00C0AC1
:1034200001FA0AF526EA0505334EB34208BF002625
:1034300022D0324EB34208BF01261DD0304EB342D7
:1034400008BF022618D02F4EB34208BF032613D060
:103450002D4EB34208BF04260ED02C4EB34208BFF7
:10346000052609D02A4EB34208BF062604D0294EAD
:10347000B3420CBF0726082606FA0AF6354347F87A
:103480002C50254E35686FEA090707EA050E656876
:10349000ED0348BF49EA0E0EC6F800E0756807EA7A
:1034A000050E6568AD0348BF49EA0E0EC6F804E094
:1034B000B56807EA050E6568ED0248BF49EA0E0ED9
:1034C000C6F808E0F56807EA050E6568AD0248BF72
:1034D00049EA0E0EC6F80CE008F10108B8F10F0F2A
:1034E0007FF639AFBDE8F18702B909048161704701
:1034F0004438024008380140000002400004024005
:1035000000080240000C024000100240001402407B
:1035100000180240001C0240003C014070B504004D
:103520000D46164601D1012070BD04F148014878CE
:1035300018B90870204600F07CF804F108012068F2
:1035400000F0C8F8A2682946206800F0EBF8236B69
:10355000A2683146606800F005F9A068216851F85A
:10356000202042F0010241F82020002070BD000020
:1035700038B5044600F018F9054614F1010F02D0E1
:1035800004480078241800F00FF9401BA042FAD339
:1035900031BD00BF1400002080B58EB007A81C21EB
:1035A00000F008F968461C2100F004F941484FF08A
:1035B0002041016040494160062181600021C160D5
:1035C00001611021416100218161C161016241629B
:1035D0004FF4805181620021C1624FF48041016348
:1035E0000021416381634164092107910F21089102
:1035F0001F21099100210A9110210B9111210C9199
:1036000000210D91082100910F21019109210291C2
:1036100000210391102104911121059100210691AF
:103620006A4607A9FFF77AFF08B100F035F90FB035
:1036300000BD10B586B06846142100F0BBF81F49E4
:103640000868002829D101200860002005901C4846
:10365000016841F001010160006800F0010005907F
:1036600005984FF4805400F01AF81648FFF76AFEE8
:103670004FF68070009000F013F81348FFF762FED9
:103680004CF23370009000F00BF81048FFF75AFE30
:1036900000F005F80E48FFF755FE06B010BD009487
:1036A0000220019000200290032003900C2004903F
:1036B000694670475CCA0020040100A008CC0020C5
:1036C000383802400014024000100240000C024052
:1036D0000018024030B58B680C6850F82450304A0E
:1036E00015404A6815431D43CA6815430A691543C6
:1036F0004A6915438A691543CA6915430A6A15431D
:103700004A6A15438A6A1543CA6A1543CA6B154348
:10371000096B0D43082B08BF45F0400540F82450C5
:10372000002030BD30B5031D53F8224004F0404462
:103730008D690B681D434B6845EA03158B6845EAA4
:103740000325CB6845EA03450B695B1E45EA035533
:103750004969891E45EA01652C43001D40F8224055
:10376000002030BD10B5B3F5804F13D150F8224082
:103770000C4B1C400B681C434B6844EA03148B68D9
:1037800044EA0324CB6844EA034489690C4340F8C3
:10379000224003E06FF0704140F82210002010BD7D
:1037A0008000F0FF0000F0CF01484068704700BF84
:1037B00014000020002200F071B8000080B500F075
:1037C00087F800F01AF800F09DF800F0FBF800F020
:1037D00067F9FFF7E1FE00F089F9FEF7EAFF2B48F1
:1037E000FEF784FFFEF7C7FF4FF4A0734FF4F072AB
:1037F0000021002000F0CEF9FEE780B592B006A8C7
:103800003021FFF7D7FF01A81421FFF7D3FF0020D5
:1038100000901F48016841F080510160006800F08D
:10382000805000900098002000901A48016841F4F0
:1038300080410160006800F4804000900098022000
:1038400006900120099010200A9002200C90002080
:103850000D9008200E90A8200F90022010900420B8
:10386000119006A800F0D6F90F20019002200290D6
:10387000002003904FF4A05004904FF48050059026
:10388000052101A800F036FB13B000BD8080800048
:1038900040380240007000407047000000B500BF93
:1038A000130096469446103928BFA0E80C50FAD869
:1038B0005FEA417C28BF0CC048BF40F8042BC90711
:1038C00028BF20F8022B48BF00F8012B00BD0000E4
:1038D00080B50B48016841F400710160016841F452
:1038E00080610160016841F480710160032000F093
:1038F000DCFB002000F02EFC00F04CFC002002BDA0
:10390000003C024010B586B001A81421FFF752FF19
:10391000002000902648016841F0800101600168A4
:1039200001F0800100F048F841F0200101600168D9
:1039300001F0200100F040F841F010010160016841
:1039400001F0100100F038F841F008010160016851
:1039500001F0080100F030F841F001010160016858
:1039600001F0010100F028F841F040010160016818
:1039700001F0400100F020F841F002010160006810
:1039800000F00200009000980A4C002220212046FE
:10399000FFF7AAFD20200190012002900390022051
:1039A000049001A92046FFF7CDFC06B010BD000031
:1039B000303802400004024000910099002100913B
:1039C0000168704780B53248324901600321416087
:1039D00000218160C1604FF4002101614FF440116A
:1039E000416100218161818300F0F0FB18B1BDE8E5
:1039F0000140FFF751BF01BD10B586B0044601A8D4
:103A00001421FFF7D7FE2068224988423DD10020CB
:103A100000902148016941F000710161016901F0E4
:103A200000710091009900210091016841F00101AD
:103A30000160006800F00100009000984FF4C05051
:103A4000019002200290002003900320049009209E
:103A5000059001A91148FFF775FC002200211420F0
:103A600000F030FB142000F04AFB0022002115205A
:103A700000F028FB152000F042FB00220021162058
:103A800000F020FB162000F03AFB06B010BD00004D
:103A90007CCB00200064004030380240000002402F
:103AA00080B50F480F49016000F014FD18B1BDE862
:103AB0000140FFF7F1BE01BD81B0006809498842AD
:103AC0000BD1002000900848016841F4805101604A
:103AD000006800F480500090009801B0704700002A
:103AE000F0CB0020003002403038024080B525483D
:103AF000254901604FF4E131416000218160C160DE
:103B000001610C21416100218161C16100F0F4FC7F
:103B100018B1BDE80140FFF7BFBE01BD10B586B0CA
:103B2000044601A81421FFF745FE20681649884283
:103B300025D1002000901548416941F010014161F4
:103B4000416901F010010091009900210091016884
:103B500041F001010160006800F001000090009850
:103B60004FF4C060019002200290012003900320D6
:103B700004900720059001A90548FFF7E3FB06B074
:103B800010BD0000FCCA0020001001403038024087
:103B9000000002402DE9F04104460D4616469846C5
:103BA0000020FEF7A5FD012000F09EFD04F11407A2
:103BB00007E04FF4A0733A460021384600F0C9FFF1
:103BC0001437BE42F5DA05F1140707E03B464FF41F
:103BD000F0723946002000F0BCFF1437B845F5DA22
:103BE000032000F081FD341904EBD4744FF4A0736A
:103BF00062100021601000F0ACFF454405EBD57564
:103C00006B104FF4F07269100020BDE8F04100F035
:103C1000A0BF00002DE9F843040017D0B14E207872
:103C2000C00740D5B06800F00C00042807D0B06889
:103C300000F00C0008280BD17068400208D53068ED
:103C4000800330D56068002840F0B580012046E14F
:103C50006068B0F5803F06D0B0F5A02F306806D17F
:103C600040F480203060306840F4803005E020F47B
:103C700080303060306820F480203060606868B147
:103C8000FFF792FD05463068800300F19480FFF74E
:103C90008BFD401B6528F6D3032020E1FFF784FD50
:103CA00005463068800340F18680FFF77DFD401BAC
:103CB0006528F6D3F0E7FFF777FD401B022840F2B6
:103CC000A780E9E7E06870B101203860FFF76CFD7C
:103CD00005463068800700F18780FFF765FD401BCF
:103CE0000228F6D9D8E73860FFF75EFD0546306850
:103CF000800763D5FFF758FD401B0228F7D9CBE7B3
:103D00000860FFF751FD0546706F800775D5FFF716
:103D10004BFD401B0228F7D9BEE70528306F06D1BE
:103D200040F004003067306F40F0010005E04008CB
:103D300040003067306F20F00400306741F289386E
:103D4000A06868B1FFF730FD8146306F800700F151
:103D50009480FFF729FDA0EB09004045F5D39BE7D0
:103D6000FFF722FD8146306F800740F18680FFF724
:103D70001BFDA0EB09004045F5D38DE7FFF714FDCF
:103D8000401B022840F28E8086E7FFF70DFD001BE6
:103D9000022840F29F807FE700203866FFF704FD8D
:103DA00004463068800140F19980FFF7FDFC001B5C
:103DB0000228F6D970E74C4F207880071BD5B068F1
:103DC00010F00C0F09D0B06800F00C0008287FF448
:103DD00079AF706840023FF575AF3068800703D552
:103DE000E06801287FF432AF306820F0F8002169E4
:103DF00040EAC1003060207800070DD53B4960697A
:103E000000283FF47DAF01200860FFF7CDFC054698
:103E1000706F80077FF54FAF2078400732D50025BF
:103E2000306CC0000AD40095306C40F08050306493
:103E3000306C00F08050009000980125DFF8B080D1
:103E4000D8F80000C00513D4D8F8000040F4807002
:103E5000C8F80000FFF7A8FC8146D8F80000C005AC
:103E600006D4FFF7A1FCA0EB09000228F5D913E75F
:103E7000A06801287FF451AF55E71DB1306C20F0E8
:103E800080503064A06948B3B16801F00C01082982
:103E90003FF4DCAE02287FF47FAF00203866FFF7E6
:103EA00083FC0546306880013FF568AFE169206A10
:103EB0000143606A41EA8011A06A4008401E41EA5D
:103EC0000041E06A41EA0061716001203866FFF755
:103ED0006BFC0446306880017FF557AF0020BDE8D9
:103EE000F28300BF0038024000004742800E474284
:103EF000007000402DE9F04104000F4675D0484E97
:103F000000F076F802D200F072F86ED12068454DCC
:103F1000810712D5400703D5A86840F4E050A86097
:103F20002078000703D5A86840F46040A860A9681D
:103F300021F0F001A0680143A9602078C0074CD5AA
:103F40006068012802D12968890305E0022818BFAA
:103F5000032803D12968890103D446E02968890729
:103F600043D5A968890840EA8100A860FFF71CFCD6
:103F70008046A86800F00C006168B0EB810F2CD07F
:103F8000FFF712FCA0EB080041F289318842F0D320
:103F9000032020E02078400705D5A96821F4E051EE
:103FA000E0680143A9602078000706D5A86820F4DE
:103FB0006040216940EAC100A86000F03DF81A495C
:103FC000AA68C2F30312895CC8401849086000203F
:103FD00000F0C0F80020BDE8F081306800F00F006C
:103FE0008742D7D200F003F8D4D00120F3E737702E
:103FF000306800F00F00B84270470C4800680D4967
:104000000B4A1268C2F3822206E008480068094998
:10401000074A1268C2F34232895CC8407047000008
:10402000003C0240003802402469000820000020C3
:10403000083802405C6B000810B5124C606800F054
:104040000C00042802D0082802D019E00E4810BD48
:10405000226802F03F020023206840022068C0F37B
:1040600088104CBF08490949A1FB000100F0B0FDD0
:104070002168C1F30141491C4900B0FBF1F010BDBA
:10408000024810BD0438024040787D010024F4004D
:104090000901020002D4294881547047284802F0DF
:1040A0000F02104400F8041C7047264A13684FF6AC
:1040B000FF010B40000200F4E0601843224908436E
:1040C0001060704738B51F4B1B68C3F30223C3F160
:1040D0000704052C28BF04241D1D072D34BF002311
:1040E000DB1E012505FA04F4641E2140994005FAFF
:1040F00003F35B1E1A401143BDE83440C8E70100DA
:1041000007D4012200F01F018A401049400941F8FC
:104110002020704710B5401EB0F1807F01D30120F0
:1041200010BD0B4C60600F214FF0FF30FFF7B0FF68
:104130000020A06007202060002010BD00E400E007
:1041400018ED00E00CED00E00000FA0500E100E0F1
:1041500010E000E038B504460C4D4FF47A70297831
:10416000B0FBF1F00A490968B1FBF0F0FFF7D2FFAC
:1041700050B9102C08D2002221464FF0FF30FFF733
:10418000A1FFAC60002032BD012032BD1400002030
:104190002000002081B0002000900B48416841F4CD
:1041A00080414160416801F4804100910099002103
:1041B0000091016841F080510160006800F080507A
:1041C0000090009801B070474038024038B50400B4
:1041D0001ED094F8200010B92046FFF70DFC20688F
:1041E000016821F002010160FFF7DEFA0546206850
:1041F000416889074BD5FFF7D7FA401B0B28F6D348
:1042000004E0FFF7D1FA401B0B2843D300F053F82A
:10421000012032BD0160607E00F049F80CBF41F022
:10422000400121F040010160A07E00F040F80CBF89
:1042300041F0200121F020010160E07E00F037F81C
:104240000CBF21F0100141F010010160207F00F04F
:104250002EF80CBF41F0080121F008010160607FD9
:1042600000F025F80CBF41F0040121F004010160C9
:10427000A168E06801432069014360690143606807
:10428000401E01432068C161002060621BE000F015
:104290001FF8054620684168C907B2D5217E01296B
:1042A00001680CBF41F0800121F08001B2E70128D4
:1042B000206801687047606A40F400306062052041
:1042C00084F820007047012084F82000002032BDCF
:1042D000016841F001010160FFF766BA2DE9F84F6E
:1042E00005464FF0000828684669D0F804B0846895
:1042F000D0F80C90D0F810A08769F10745D5E107F8
:1043000013D501218160A00703D5284600F0E3FC06
:104310000BE0600748BF4FF4006806D420074EBF8B
:104320004FF48058284600F0D7FCE00515D54FF42F
:10433000807029688860A00503D5284600F0CDFC70
:104340000BE0600548BF48F4005806D420054EBF76
:1043500048F48048284600F0C1FCE00315D54FF42E
:10436000803029688860A00303D5284600F0B7FC98
:104370000BE0600348BF48F4004806D420034EBF5A
:1043800048F48038284600F0ABFC300748BF5FEAAD
:10439000C96004D548F4007810202968C860700707
:1043A00048BF5FEA097005D508202968C86028461B
:1043B00000F097FCB00707D52868C06810F0030F1D
:1043C0001CBF284600F08EFC700648BF5FEACA603A
:1043D00004D548F48068102029680861B00648BFF9
:1043E0005FEA0A7005D5082029680861284600F0B0
:1043F0007AFCF00607D52868006910F0030F1CBF8F
:10440000284600F071FCB00348BF5FEACB6005D5D9
:10441000102029684860284600F067FCF00348BF78
:104420005FEA0B7005D5082029684860284600F02F
:104430005DFC300440D55FEA4B703AD5F00503D5FA
:10444000F80748BF48F00108B00503D5B80748BFD2
:1044500048F00208700503D5780748BF48F0040803
:10446000300526D517F0700F23D007F07007102FF6
:104470000CD0202F0DD0302F0ED0402F0FD0502F2A
:1044800010D0602F08BF48F480780DE048F008088D
:104490000AE048F0100807E048F0200804E048F07F
:1044A000400801E048F080082868816921F0700127
:1044B0008161042029684860B8F1000F08D0686A5B
:1044C00048EA000068622846BDE8F24F00F00FBCE1
:1044D000BDE8F18F10B5040001D1012010BD607955
:1044E00018B920712046FFF7E7FA02206071012019
:1044F0006071002010BD000038B5040001D101201A
:1045000032BD00F022F808B900F023F800F013F8EB
:1045100000F023F8FFE7416100F001F832BD2068A8
:10452000C16841F40051C1600020686020206870BB
:10453000A87000207047242068702068C16821F4AA
:104540000051C160204600F012B804F138056878C7
:10455000704728702046FFF7E1BA2068016921F40E
:10456000904101612068416921F02A0170472DE9DD
:10457000F047044621680A6922F44052E068024389
:104580000A61CA6844480240A068024320690243A5
:1045900060690243E0690243CA604A6922F44072DA
:1045A000A06902434A61642519263C483C4AE369F4
:1045B000B3F5004F35D1914218BF81420ED1FFF7BC
:1045C00024FD0746FFF721FD8046FFF71EFD8146CB
:1045D000FFF71BFD8246FFF718FD0DE0FFF70DFD0D
:1045E0000746FFF70AFD8046FFF707FD8146FFF704
:1045F00004FD8246FFF701FD6168490000F061F8A3
:10460000DB003233B3FBF5F35B0003F4F87300F027
:1046100049F8ED0032356420B5FBF0F000F00700FA
:1046200033E0914218BF81420ED1FFF7EEFC0746FE
:10463000FFF7EBFC8046FFF7E8FC8146FFF7E5FC5F
:104640008246FFF7E2FC0DE0FFF7D7FC0746FFF7D5
:10465000D4FC8046FFF7D1FC8146FFF7CEFC8246B2
:10466000FFF7CBFC6168890000F02BF81B013233A7
:10467000B3FBF5F303F0F00300F014F82D0132352D
:104680006420B5FBF0F000F00F00C31820688360D1
:10469000BDE8F08700000000F369FFFF001401404F
:1046A0000010014003EB021306FB0AF7B7FBF1F21F
:1046B0004643B6FBF1F06421B0FBF1F005FB102599
:1046C00070477743B7FBF1F2B2FBF5F206FB08F750
:1046D000B7FBF1F306FB09F9B9FBF1F7B7FBF5F707
:1046E00005FB17337047000002490A68117E1076F7
:1046F000084670473000002002680B6803600A60BB
:10470000704710B500050021000DB0F5006FC4BF63
:10471000A0F500600121B0F5806FC8BFC0F5006052
:1047200082110FF2644300F03F00C0F1400033F803
:10473000124080B24443402806D003EB4202C0F14D
:104740004000528800FB024404F12000800901B1BE
:10475000404210BD00F58060D3E710B5024600234B
:10476000002A44BF01235242002944BF43F0020300
:1047700049428A4204DA08461146024643F00403DD
:1047800002EBD270401000EB812090FBF2F0801021
:104790000FF21842011100F00F0032F91140C0F180
:1047A00010004443102807D002EB4101C0F1100073
:1047B000B1F9021010FB014404F10800C11000EB34
:1047C00011700011590748BFC0F58060D90748BF74
:1047D000C0F50060990748BFC0F5805010BDDFF8F4
:1047E000A4130968897E012906D032D3032915D084
:1047F0000BD304291BD02CE0801DC11000EB1171DC
:104800000911A0EB01100C2806E0411000EB91719A
:104810008910A0EB810002281BDA13E0142190FB21
:10482000F1F201FB12000C280CDB10380DE018210E
:1048300090FBF1F201FB12000C2803DBA0F1100148
:10484000022901D201207047143802288041C00F8C
:104850007047002070472DE9F84B0FB483B0101A51
:10486000009006980499109C401A019000980199B4
:1048700025684FF00008084304D10499039800F01C
:1048800037FABFE00098002848BF4042002948BFDF
:10489000494288420DDA01A900A8FFF72DFF04A9BB
:1048A00003A8FFF729FF06A905A8FFF725FF4FF08A
:1048B00001080098002848BF40420099814210D06A
:1048C00008464042009005A901984042019003A883
:1048D000FFF712FF06A904A8FFF70EFF4FF0FF39FC
:1048E00001E04FF00109A74F01983B68002838D13B
:1048F000987EB8F1000F18D028B9059A039904984A
:10490000FDF70BFD7EE000260098B04227DB28462D
:10491000FFF765FF6D1C30B93A680398D26E311805
:10492000049852689047761CEEE730B9DB6E059A22
:10493000049903981B68984764E000260CE0284619
:10494000FFF74DFF6D1C30B93A680499D26E039899
:10495000526830189047761C0098B042EFDA681E13
:104960004FE00098014601EBD070451001980028F7
:1049700048BF6D42987EA8B9002606E003997118D9
:104980003A68D26E52689047761C0098B04239DB84
:1049900000F03BF84018B8F1000FEFD10146039842
:1049A0003018EDE7B9F1000F02D520680818206033
:1049B000002607E00398311858463A68D26E5268CC
:1049C0009047761C0098B04211DB00F01EF800EB17
:1049D000010B206848442060FFF701FF0028F0D158
:1049E000B8F1000FE6D1594603983018E5E7B9F160
:1049F000000F03D520680099081820602068A0EBFC
:104A00000900206008B0BDE8F08B0198009A049975
:104A100006FB005090FBF2F070472DE9F04F594C27
:104A20000D46216885B0914680460A7E0E981F4645
:104A3000012A06D100904A4629464046FFF70BFF5F
:104A40007CE0E91BA8EB090051EA000376D0561E72
:104A5000FFF783FE00F5806B5846FFF77BFE00FBF7
:104A600006FA5846FFF74DFE7043BAF1000F04D521
:104A7000CAF5007189124A4202E00AF500718A12F1
:104A8000002805D5C0F500708012C0F1000C03E0CD
:104A900000F500704FEAA02C02EBD2704310012AFF
:104AA00004DB501C00EBD070411004E0501E19468E
:104AB00000EBD07043100CEBDC704210BCF1010F26
:104AC00005DB0CF1010000EBD070401005E0104652
:104AD000ACF1010202EBD272521001EB0806ADF804
:104AE00000604619ADF802600DF1000EA8EB030658
:104AF000AEF80460AE1AA9EB0303BA1A4944C01910
:104B0000ADF80830AEF80A20ADF80C10ADF80E0084
:104B1000ADF8066000230022042100A800F03EF951
:104B20002068407E18B92946404600F0E1F8206828
:104B3000407E18B93946484600F0DAF805B0BDE8BD
:104B4000F08F1CB50024019401AC0094FFF765FFC1
:104B500013BDF8B50B4C2468E56C2E18206D441875
:104B6000C718AD180020FCF773FD48B13B462A4634
:104B700021463046FFF7E5FFFCF74FFD0028F5D151
:104B8000F1BD00003000002000006400C8002901D1
:104B90008801E30139028A02D40218035303870310
:104BA000B203D403EC03FB0300040000000029005F
:104BB00051007900A000C500EA000D012E014E0150
:104BC0006C018901A301BD01D501EB0100020000C8
:104BD000D3BBD9B1B2F5803F5BD2022A1ED98C4635
:104BE000B1FBF2F102FB11C31B0443EA1043B3FB18
:104BF000F2FC02FB1C3380B240EA0343B3FBF2F049
:104C000002FB103240EA0C4000237047022A05D90B
:104C10008446B0FBF2F002FB10C270474AB105D1E6
:104C200000F0010249085FEA3000704700220023CB
:104C3000704700F063B90B000200002100207047AC
:104C4000F7D3002200237047904271EB030CF2D39C
:104C500070B5B1FA81F4B3FA83F52C1BA340C4F10B
:104C6000200532FA05F63343A2405FF00046E640E5
:104C700002E05B085FEA3202841A71EB030524BF8D
:104C8000204629467641F4D302000B003000002173
:104C900070BD70B5B1FA81F4B2FA82F5C4F12004A6
:104CA0006419B4F12006DAD3B2405FF00044F44056
:104CB000002502E052085FEA3303C61A71EB020EC8
:104CC00024BF3046714664416D41F3D302000B00AE
:104CD0002000290070BD70477047704770477047CB
:104CE000704770477047704770477047704770470C
:104CF000064A1268137E012B02D1D26E5268104709
:104D00005A1E02EBD272521000F0FAB830000020A6
:104D100070B5B2F90250B3F90240AC420ADB2E463C
:104D2000B042A4BF2546854209DBB2F90040B3F981
:104D300000200AE02646B042A8BF854201DA0020E2
:104D400070BDB3F90040B2F90020121B801B504324
:104D5000AA1B012802DB10EB620002E0B0EB62004C
:104D6000401C90FBF2F000190860012070BD604902
:104D70008A690C2A00DB704710B5134602E021F85F
:104D800013405B1E2BB101EB430434F9024C844207
:104D9000F5DA21F81300501C886110BD2DE9FA4F97
:104DA000804683B0154640F6FF77DFF84891002033
:104DB0000AE008EB8001B1F90210B942D8BF0F46F2
:104DC0008945B8BF8946401C03998842F1DB4A48AF
:104DD0000068406958B1B0F90610C91A4945B8BF12
:104DE0008946B0F90200C01A8742B8BF0746039847
:104DF000441E17E03E4931F916B05FEA0A0108D0B7
:104E00003D4B01991B680BEB0502DB6E40191B68DB
:104E100098478AF0010A5846761C354989698E42BE
:104E2000E8DB7F1CB94560DB31480021816100204F
:104E30000499CE190AE0BC4507DB00A93846FFF704
:104E400067FF10B10098FFF792FF50460399884220
:104E500046DA00F1010AA042B4BFD6464FF0000E78
:104E600008EB800208EB8E03B2F902C0B3F902101E
:104E7000BC452ED1B94211D138F92E1038F9200095
:104E80006B18281831469842A6BF024618461A46A3
:104E9000194B1B68DB6E1B689847D6E70246002358
:104EA00000E05B1CA342D0DA002A14BF521E224647
:104EB00008EB820CBCF902C0BC45F2D038F92000E6
:104EC000ACEB0702C91B5140BDD42818024631463D
:104ED000DEE7B942B9D0B942ADDB6745ADDAB4E738
:104EE000019600208246002697E705B0BDE8F08FC6
:104EF000A4CB002001F0FFFF30000020704700002D
:104F00002DE9F84F05468846144640F2C320604319
:104F10004FF47A7190FBF1F000F1010904EBD470C9
:104F2000401004FB0400224E009062193368414691
:104F3000DB6E281B1B689847012734E0009804FBB0
:104F400004F107FB0711884218DAA14515DA336826
:104F5000E81BDB6E00F1010B7819A0F1010A1B6858
:104F6000524604EB08015846984733685246DB6EB8
:104F7000A8EB04011B6858469847641E3368A5EBEC
:104F8000040BDB6E04EB050A1B68524607EB0801B5
:104F90005846984733685246DB6EA8EB07011B68FA
:104FA000584698477F1CB945C8DABDE8F18F000024
:104FB00030000020084611469AB289B280B2FEF74E
:104FC00066B880B5084691B280B2FEF79BF9002022
:104FD00002BDF8B504460D461646FFF7F2FF074638
:104FE00020698068804780EA0703324629462046C8
:104FF00001B0BDE8F040DDE72DE9F04700F086FAAA
:105000009A46089CDFF89C060068C16B0D68007C1E
:10501000C00709D416E0324629464046FFF7D9FFBB
:105020006D1CAA45F7DA761CB4420FDB4D46F8E753
:105030002B46324639464046FFF7BCFF7F1CBA4537
:10504000F6DA761CB442A8BF4F46F8DABDE8F0871E
:1050500080B5009202E080B500930B46FFF7CCFFCD
:1050600001BD00002DE9F84F834690461F460A9E79
:105070000B9C0C98D0F80090D0F804A07518DFF8BD
:1050800024060068007C00F00300032812D8DFE843
:1050900000F002132D1300F038F814BF53464B46AE
:1050A00000F038F86D1C761C082E04BF00267F1C0B
:1050B000641EF0D1BDE8F18FDBF8100080688047F6
:1050C000814600F022F808D0424629465846FFF7AC
:1050D00078FF89EA000300F01DF86D1C761C082E8D
:1050E00004BF00267F1C641EEBD1E3E700F00DF83F
:1050F00002D0534600F00EF86D1C761C082E04BF3B
:1051000000267F1C641EF1D1D4E738788021F1405D
:10511000084270474246294658464BE72DE9F84F6A
:1051200000F0F2F84FF0C00B00F0D5F802D0022BDF
:1051300013D010E0002A2CD000F0C0F800F04EF898
:1051400000F0D8F87F1C761C042E04BF002619F846
:10515000015F641EF2D1BDE8F18F002A29D000F072
:10516000B3F8C6F103014900C1F106022BFA02F0BF
:105170002840C84003D059F8203000F0C1F87F1C07
:10518000761C042E04BF002618F8015F641EE8D1C7
:10519000E1E705460E4600F021F800F0A3F800F024
:1051A00089F8042E04BF002619F8015F641EF2D1AD
:1051B000D1E705460E4600F011F82BFA01F32B401B
:1051C000C34001D000F092F800F074F8042E04BF40
:1051D000002619F8015F641EEDD1BCE7C6F103009B
:1051E0004000C0F1060170472DE9F84F00F08CF83F
:1051F0004FF0F00B00F06FF802D0022B13D010E04C
:10520000002A2CD000F05AF800F04EF800F072F8A6
:105210007F1C761C022E04BF002619F8015F641E55
:10522000F2D1BDE8F18F002A29D000F04DF8C6F187
:1052300001018900C1F104022BFA02F02840C840A4
:1052400003D059F8203000F05BF87F1C761C022E4A
:1052500004BF002618F8015F641EE8D1E1E70546A7
:105260000E4600F021F800F03DF800F023F8022E81
:1052700004BF002619F8015F641EF2D1D1E705468C
:105280000E4600F011F82BFA01F32B40C34001D079
:1052900000F02CF800F00EF8022E04BF002619F8DA
:1052A000015F641EEDD1BCE7C6F101008000C0F1D2
:1052B0000401704708F10108761C704700974746C3
:1052C000904605460E46704700974746C8469146A9
:1052D00005460E467047DFF8CC331B681B7C13F085
:1052E000030370472BFA01F32B40C340524641465B
:1052F00038465FE62BFA01F22A40C24058F82230C5
:1053000052463946009855E60746884692469946E1
:105310000A990B9C0C9A99F80000884470472DE973
:10532000F84381460E46089D0998DFF8781309680E
:10533000097C11F0030102D0022915D025E00028D4
:1053400014461F461FD08046012D1EDB17F8010BA7
:1053500000F027F86D1E761CF6E717F8013B00F009
:1053600022F86D1E761C0EE0002814461F460ED053
:105370008046012D09DB387808B100F012F86D1E67
:10538000761C7F1CF5E7012DE7DABDE8F183012DDE
:10539000FBDB3B780BB100F006F86D1E761C7F1C22
:1053A000F5E758F8203022463146484602E62DE916
:1053B000F04100F01AF805E038F8023B00F01BF865
:1053C0007F1E6D1C012FF7DABDE8F0812DE9F04159
:1053D00000F00BF805E058F8043B00F00CF87F1ED5
:1053E0006D1C012FF7DABDE8F08104460D46164624
:1053F0009846069F7047324629462046DAE52DE951
:10540000F04F85B006468E4615461C46DDF838B08E
:105410000F9BDDF840A011981299139A012B0AD026
:10542000022B17D0042B24D0082B31D0102B41D0C5
:10543000202B4CD058E000270396CDF810E000F068
:1054400065F85F4550DA00F058F8FFF70BFED044DE
:105450007F1CF6E700270396CDF810E000F056F821
:105460005F4541DA00F049F8FFF758FED0447F1C51
:10547000F6E700270396CDF810E000F047F85F4507
:1054800032DA00F03AF8FFF7AFFED0447F1CF6E7BF
:1054900000270396F046814616465F4524DA0196BA
:1054A00000944B46EA1941460398FFF738FFD14470
:1054B0007F1CF2E70027B046F14606465F4513DA47
:1054C00000F015F8FFF773FF56447F1CF6E700273E
:1054D000B046F14606465F4506DA00F008F8FFF7E9
:1054E00075FF56447F1CF6E705B0BDE8F08F0094C9
:1054F0003346EA1949464046704702960194CDF872
:1055000000904346EA1904990398704780468946FB
:105510001646704738B50446A06850B91C20FCF701
:1055200056FC0546A560206980688047FDF718FD98
:10553000A861A06808B1002032BD012032BD000082
:105540008068491E0D2916D8DFE801F007090B0D08
:105550001515150F13111113131340687047806848
:105560007047C068704700697047806970470120C4
:105570007047002070474FF0FF30704700207047A1
:10558000806800220A804A80C268521E8A800069B0
:10559000401EC880704700003EB500BF49A3D3E954
:1055A0000045CDE90045009101926A4603215BE088
:1055B00038B504460D4600BF48A00068009020465C
:1055C000FFF7A8FFA06830B1056000956A46022188
:1055D000A069FDF7AFFB31BD70B504460D46164618
:1055E000FFF798FFA06810B1C5600661456170BD06
:1055F0007CB504460E46154634A0D0E90023CDE91B
:1056000000232046FFF786FFA16861B1486900B911
:10561000304648614E608D60009601956A460721CC
:10562000A069FDF787FB73BD38B50446FFF772FF2D
:10563000054600220121A069FDF77CFB284332BD0D
:105640000022052101E0002206218069FDF772BBDE
:105650003EB500BF1FA3D3E90045CDE900458DF855
:10566000041000926A4604218069FDF763FB37BD90
:105670000939072913D8DFE801F00406080A120CDB
:105680000E10094870470948704709487047094893
:10569000704709487047094870470948704700201B
:1056A0007047000030000020B1550008D9550008AF
:1056B000F1550008295600084156000847560008D1
:1056C000515600080000000000000000000000002B
:1056D00000000000000000000000000000000000CA
:1056E00000000000000000002020202020002000FA
:1056F00048484800000000005050F850F850500052
:105700002078A07028F02000C0C810204098180011
:105710006090A040A8906800602040000000000059
:105720001020404040201000402010101020400069
:10573000005020F820500000002020F82020000019
:105740000000000000602040000000F800000000A1
:105750000000000000606000000810204080000091
:10576000708898A8C88870002060202020207000D1
:10577000708808304080F800708808300888700011
:1057800010305090F8101000F880F0080888700071
:10579000304080F088887000F808102040404000B9
:1057A0007088887088887000708888780810600019
:1057B00000606000606000000000606000602040E9
:1057C00010204080402010000000F800F800000089
:1057D00080402010204080007088081020002000A9
:1057E00070880868A8A87000708888F88888880081
:1057F000F08888F08888F000708880808088700049
:10580000E09088888890E000F88080F08080F80040
:10581000F88080F080808000708880809888780090
:10582000888888F8888888007020202020207000D0
:1058300038101010109060008890A0C0A0908800D0
:10584000808080808080F80088D8A8A88888880018
:105850008888C8A898888800708888888888700098
:10586000F08888F08080800070888888A890680020
:10587000F08888F0A0908800708880700888700098
:10588000F8202020202020008888888888887000C0
:105890008888888888502000888888A8A8A8500010
:1058A00088885020508888008888885020202000D0
:1058B000F80810204080F8007040404040407000E0
:1058C00000804020100800007010101010107000B0
:1058D000205088000000000000000000000000F8D8
:1058E0004020100000000000000070087888780058
:1058F0008080B0C88888F0000000708080887000C8
:10590000080868988888780000007088F88070001F
:10591000304840E0404040000000788888780870B7
:105920008080B0C888888800200060202020700017
:105930001000301010109060808090A0C0A09000E7
:1059400060202020202070000000D0A888888800D7
:105950000000B0C8888888000000708888887000BF
:105960000000F08888F08080000078888878080837
:105970000000B0C880808000000078807008F000CF
:105980004040E04040483000000088888898680027
:10599000000088888850200000008888A8A850004F
:1059A000000088502050880000008888887808709F
:1059B0000000F8102040F8001020204020201000A7
:1059C00020202020202020004020201020204000E7
:1059D0006890000000000000182000000000000097
:1059E000C0200000000000007088000000000000DF
:1059F000500000000000000068900000000000005F
:105A00000000006020207000006090F08888B08066
:105A100020007088F8888800200070087888780056
:105A20003860A0B8E0A0B800704848E84848700066
:105A3000E0407048487040E00000D02878A058004E
:105A4000A040A010788870006020302830207000BE
:105A5000708898A8C888700000007098A8C8700066
:105A600000007088F88888000000F880E080F80066
:105A7000000070202020700000007088888870006E
:105A80000000888888887000000088C8A89888006E
:105A9000200020202020200020002040808870004E
:105AA0001820000000000000C020000000000000DE
:105AB0002050000000000000500000000000000026
:105AC00068900000000000000000000000000020BE
:105AD0000000000000000000002070A0A0A87020BE
